:020000040800F2
:10000000E818002045010008B71500085511000840
:1000100069140008290A0008EB200008000000000D
:10002000000000000000000000000000B5170008FC
:10003000250E0008000000003D160008A118000869
:100040005F0100085F0100085F0100085F01000810
:100050005F0100085F010008290E00085F01000829
:100060005F0100085F010008650E00085F010008DD
:10007000490A00085F010008690A00085F010008DA
:100080005F0100085F0100085F0100085F010008D0
:100090005F0100085F0100085F0100085F010008C0
:1000A0005F0100085F0100085F0100085F010008B0
:1000B0005F0100085F0100082D1900085F010008BA
:1000C0005F0100085F0100085F0100085F01000890
:1000D0005F010008FD1D00085F010008B11E000857
:1000E0005F0100085F0100085F0100085F01000870
:1000F0005F0100085F0100085F0100085F01000860
:100100005F0100085F0100085F0100085F0100084F
:100110005F0100085F0100085F0100085F0100083F
:100120005F0100085F0100085F0100085F0100082F
:10013000DFF80CD000F01AFB0048004789300008B7
:10014000E81800200648804706480047FEE7FEE71B
:10015000FEE7FEE7FEE7FEE7FEE7FEE7FEE7FEE777
:10016000A518000831010008D2B201E000F8012B07
:10017000491EFBD270470022F6E710B513460A4627
:1001800004461946FFF7F0FF204610BD30B505467E
:100190002A460B4612F8010B13F8014B08B1A04296
:1001A000F8D01CB1002802D06D1CF1E7284630BD04
:1001B00010B5002200E0521C835C8C5CA34201D18C
:1001C000002BF8D1D8B2E1B2401A10BD2DE9FE4F94
:1001D00081EA030404F0004421F0004100944FF050
:1001E000000B23F0004350EA01045ED052EA0304FE
:1001F0005BD0C3F30A54C1F30A552C44A4F2F33480
:100200000194A0FB0254C1F3130141F48011C3F324
:10021000130343F4801301FB024400FB034E840AE2
:10022000970A44EA815447EA8357A4FB076802957A
:100230008D0A05FB07854FEA932C04FB0C54270518
:10024000029D4FEA065847EA1637B5EB08056EEBF4
:10025000070C870E920E47EA811742EA8312A7FB2A
:100260000201B6EB0B0164EB00042B0D43EA0C33E7
:100270005E1844EB1C50DA465146E7FB0201C5F319
:1002800013044FEA0B3343EA14534FEA0432019C40
:1002900043EA0603A4F10C040294009CCDE900B4E7
:1002A00000F0CFF803B0BDE8F08F00200146F9E779
:1002B0000EB540F2334102910021CDE900110A460A
:1002C0000B4600F0BEF803B000BD00F0004230F075
:1002D00000400AD0C10D01F56071C0F3160042EA7A
:1002E0000151C20840071143704700200146704782
:1002F00001F0004330B421F0004150EA010206D081
:100300000A0DA2F56072C1F31301002A02DC30BCB1
:1003100000207047440F44EAC104C100E01830BC1B
:1003200000EBC25000F047B830B50B460146002044
:100330002022012409E021FA02F59D4205D303FAA7
:1003400002F5491B04FA02F52844151EA2F1010228
:10035000F1DC30BD2DE9F05F0546002092469B465A
:1003600088460646814640241BE0284641464746CB
:10037000224600F01CFA53465A46C01A914110D347
:1003800011461846224600F003FA2D1A67EB0108C1
:100390004F4622460120002100F0FAF917EB000930
:1003A0004E41201EA4F10104DFDC484631462A46B6
:1003B0004346BDE8F09F0029A8BF7047401C490094
:1003C00008BF20F00100704710B4B0FA80FC00FABA
:1003D0000CF050EA010404BF10BC704749B1CCF1E5
:1003E000200421FA04F411FA0CF118BF0121214371
:1003F0000843A3EB0C01CB1D4FEA00614FEA10202C
:1004000042BF002010BC704700EBC35010440029CD
:10041000A4BF10BC7047401C490008BF20F0010079
:1004200010BC704710B5141E73F1000408DA401CAC
:1004300041F1000192185B411A4301D120F0010003
:1004400010BD2DE9F04D92469B4611B1B1FA81F2F3
:1004500002E0B0FA80F22032904600F099F90446AA
:100460000F4640EA0A0041EA0B0153465A46084348
:1004700013D0114653EA010019D0C8F1400250468A
:1004800000F095F905460E4650465946424600F0A2
:100490007FF9084305D0012004E020463946BDE835
:1004A000F08D0020054346EAE0762C4337430A9856
:1004B0006305E40AA0EB08000022FD0A44EA475461
:1004C0000A3002D500200146E9E70105101969410B
:1004D000DDE9084500196941BDE8F04DA2E72DE9C5
:1004E000FE4F804681EA0300C00F0C46009021F0C9
:1004F000004123F00045B8EB0200A94105D2404677
:10050000214690461C460B46024623F0004010430D
:1005100047D0270DC7F30A00C3F30A510290401ACF
:10052000019040286BDAC3F3130040F4801B00985D
:10053000924620B10023D2EB030A63EB0B0B019828
:100540005946C0F14002504600F022F906460D46D9
:1005500050465946019A00F03AF910EB0800614103
:10056000002487EA115284EAE7731A4340D0009AC4
:1005700062B3019A012A4FEA075215DC001B61EBB6
:1005800002014FF0004202EA0752CDE90042001C8E
:1005900041F5801132462B46FFF753FF03B0BDE80B
:1005A000F08F40462146F9E7001B61EB0201001C79
:1005B00041F5801300185B412018A2F5001747EBA6
:1005C000030140EAD570B6196D4111E06D084FEA9C
:1005D000360645EAC0754FEA0752001B61EB02017F
:1005E000001C41F5801149084FEA300000195141C3
:1005F00032462B4603B0BDE8F04FFFF713BF00981B
:10060000012240000023D0EB020263EBE07300986C
:1006100021464FEAE074B8EB000061EB0401E9E722
:1006200083F000435BE781F0004158E72DE9F04D8E
:1006300081EA030404F0004B21F0004514464FF01A
:10064000000A23F0004150EA050220D054EA0102DA
:100650001DD0C5F30A570246C5F31303C1F31300B7
:10066000C1F30A5640F4801543F48013A7EB060843
:10067000101BD64608F2FD3873EB050002D308F1D3
:10068000010801E092185B41B8F1000F03DA002085
:100690000146BDE8F08D00204FF4801106468446E7
:1006A0000EE0171B73EB050705D3121B63EB050365
:1006B00006434CEA010C49084FEA300092185B41AE
:1006C00050EA0107EDD152EA030012D082EA040099
:1006D00083EA0501084305D0101BAB4106D2012275
:1006E000002306E000224FF0004302E06FF0010219
:1006F00053101AEB06004CEB085110EB0A0041EBCB
:100700000B01BDE8F04DFFF78DBEC1F30A52C1F3F6
:10071000130140F2FF3341F480119A4202DA0020C3
:100720000146704740F233439A42A2F2334202DC60
:10073000524200F03CB800F02BB8000030B5041E67
:1007400071F1000404DB4FF00044404264EB01010E
:10075000141E73F1000405DB1C464FF000435242A7
:1007600063EB0403994208BF904230BD064C074D2D
:1007700006E0E06840F0010394E807009847103471
:10078000AC42F6D3FFF7D8FCE03100080032000895
:10079000202A04DB203A00FA02F100207047914041
:1007A000C2F1200320FA03F3194390407047202A36
:1007B00004DB203A21FA02F00021704721FA02F30B
:1007C000D040C2F120029140084319467047202AC8
:1007D00006DBCB17203A41FA02F043EAE07306E069
:1007E00041FA02F3D040C2F1200291400843194679
:1007F000704710B500F0CCFC10BD70B506460C4635
:10080000154600F069FDA02000F038FD00F098FDCD
:10081000F0B200F033FD00F093FD00F05DFDA1208B
:1008200000F02CFD00F08CFD0DE0012D04D1002026
:1008300000F0F6FC207003E0012000F0F1FC2070D5
:10084000641C681E85B2002DEFD100F061FD70BD03
:1008500070B5044600F040FDA02000F00FFD00F050
:100860006FFDE0B200F00AFD00F06AFD00F034FD1B
:10087000A12000F003FD00F063FD002000F0D0FC9B
:10088000054600F045FD284670BD00001CB500205F
:100890000090019005226946FFF7AFFF002407E0B2
:1008A0001DF80420214604A001F0E8FE601CC4B23B
:1008B000052CF5DB1CBD0000616464725B25645D82
:1008C0002C20646174615B2523585D0A00000000E0
:1008D00010B50020FFF7BCFF0446214601A001F03F
:1008E000CDFE10BD5245414420444154413A20259B
:1008F00023780A0070B504460D46164600F0ECFC5D
:10090000A02000F0BBFC00F01BFDE0B200F0B6FC44
:1009100000F016FD1FE0287800F0B0FC00F010FD9C
:100920006D1C601C84B2E11704EB5171C910A4EB7B
:10093000C10181B900F0ECFC052002F02FFB00F0B2
:10094000CBFCA02000F09AFC00F0FAFCE0B200F032
:1009500095FC00F0F5FC301EA6F101018EB2DAD153
:1009600000F0D6FC052002F019FB70BD70B50446FE
:100970000D4600F0B1FCA02000F080FC00F0E0FC8F
:10098000E0B200F07BFC00F0DBFC284600F076FCD7
:1009900000F0D6FC00F0BCFC70BD00001CB505A149
:1009A00003C9CDE90001052269460020FFF7A2FF37
:1009B0001CBD0000010203040500000010B5AA21BF
:1009C0000020FFF7D3FF10BD08B50121082000F07B
:1009D00057FE4FF48070ADF8000003208DF8020040
:1009E00010208DF803006946044800F0DBFA4FF44C
:1009F0008071024800F0AAFB08BD0000000C014015
:100A000010B54FF48071024800F0A0FB10BD00004B
:100A1000000C014010B54FF48071024800F098FBC3
:100A200010BD0000000C014000BFFEE770B50024BF
:100A300000BF04E0034850F82450A847641C0C2C65
:100A4000F8D370BD9800002010B5202000F040F8C9
:100A500030B1202000F01EF80021024800F028F8F4
:100A600010BD00001C00024010B54FF4005000F013
:100A70002FF850B14FF4005000F00CF8002103485B
:100A800000F016F801200249087010BD4400024031
:100A9000D800002000F0805111B10349086001E046
:100AA0000249486070470000040402400000024010
:100AB00021B1026842F00102026004E002684FF6D0
:100AC000FE731A40026070470146486880B2704762
:100AD00001460020002201F0805313B1054B1A6833
:100AE00001E0054B1A6802EA01030BB1012000E0A6
:100AF0000020704700040240000002401AB1036861
:100B00000B43036002E003688B430360704710B53A
:100B10000022026847F6F0739A430C6A8B682343FD
:100B20000C6923434C6923438C692343CC692343D9
:100B30004C6A23438C6A23431A430260CB684360A8
:100B40000B6883604B68C36010BD41607047000054
:100B50002DE9F05F4FF0000AD346002400F0D2F8F0
:100B600000F064F8442000F02DF94FF4487002F0D2
:100B700015FA00F0C7F800F059F8BE2000F022F98D
:100B800000F09AF8824600F097F883464AEA0B2470
:100B900004F47840B0F5784F0FD1E043401C84B2A4
:100BA0002046FFF785FB074600220B4BFFF70EFBA5
:100BB0000546FFF79DFB81460BE02046FFF778FBDB
:100BC00007460022054BFFF701FB0546FFF790FBA8
:100BD00081464846BDE8F09F0000B0BF0000B03F2E
:100BE00008B54FF40060ADF8000048208DF8030010
:100BF0006946024800F0D6F908BD00000020014017
:100C000008B50121080200F03BFD4FF40060ADF88B
:100C1000000003208DF8020010208DF803006946C3
:100C2000014800F0BFF908BD0020014010B5552073
:100C300000F0C8F8002400BF05E00449085D00F09A
:100C4000C1F8601CC4B2082CF7DB10BDD000002036
:100C500008B54FF40060ADF8000003208DF80200E5
:100C600010208DF803006946014800F09BF908BD8B
:100C70000020014010B500F045F8332000F0A2F844
:100C8000002400BF0AE000F017F80749085508469D
:100C9000015D06A001F0F2FC601CC4B2082CF2DB7E
:100CA00004A001F0EBFC10BDD0000020252378202B
:100CB000000000000A00000070B50024002500BFFD
:100CC00017E0FFF7C5FF00200C490860022002F082
:100CD0008BF9FFF785FF082002F086F90848D0F865
:100CE0002C01A0402843C5B2322002F07DF9601CDF
:100CF000C4B2082CE5DB284670BD0000AC012442DC
:100D00000000244210B50024FFF7A2FF0020134981
:100D100008604FF4FA7002F067F901201049C1F839
:100D2000AC011E2002F060F9FFF75AFF04E0601CDE
:100D3000C4B2012002F058F908488038006808B1B0
:100D4000F02CF4DBF02C03DB06A001F097FC03E0B1
:100D50000AA001F093FC002410BD0000AC01244265
:100D600000002442445331384232302052657365CA
:100D700074204661696C65640A0000004453313890
:100D80004232302052657365742053756363657316
:100D9000730A000070B5FFF7DBFE06463046FFF72A
:100DA00094FA044622460B4601A001F067FC70BD90
:100DB0006375727265742074656D703A20252E33E8
:100DC000660A000070B504460025FFF741FF00BF2A
:100DD00020E004F0010068B1002010490860022002
:100DE00002F002F901200E49C1F8AC013C2002F0EA
:100DF000FBF80CE00020094908603C2002F0F4F800
:100E000001200749C1F8AC01022002F0EDF864109E
:100E1000681CC5B2082DDCDB70BD0000AC012442AB
:100E2000000024427047000010B5012000F03CF89B
:100E300001280ED10A2002F0B1F808480068012804
:100E400007D10748006808B9012000E000200449E4
:100E50000860012000F022F810BD000000012142CE
:100E60009481214210B5102000F01EF8012810D105
:100E7000102000F013F80A2002F090F805480068EE
:100E800038B90548006808B9012000E0002002498F
:100E9000086010BD10012342A08121420149086071
:100EA0007047000014040140014600200022074B57
:100EB0001B6803EA0102054B14331B680B4013B196
:100EC0000AB1012000E0002070470000000401404A
:100ED000002123498279002A3AD00A461268036821
:100EE0009A430B461A600A1D126803689A430B1D49
:100EF0001A60027911440A6803681A430A60184AA2
:100F00000832126803689A43154B08331A601A1D99
:100F1000126803689A43124B0C331A604279102A04
:100F20000ED11A1F126803681A430D4B08331A605A
:100F30001A1D126803681A43094B0C331A600DE03E
:100F40000749427911440A6803681A430A6005E0B8
:100F5000027911440A6803689A430A6070470000E6
:100F60000004014030B500228B071C0F0F2303FA49
:100F700004F20B4B8C1053F824309343084C8D1023
:100F800044F8253023468C1053F824308C07240F66
:100F900000FA04F42343024C8D1044F8253030BD90
:100FA000080001402DE9F0410246002500260020FE
:100FB00000230024002791F803C00CF00F0591F8DE
:100FC00003C00CF0100CBCF1000F03D091F802C06C
:100FD0004CEA050591F800C0BCF1000F31D014684F
:100FE00000202BE04FF0010C0CFA00F3B1F800C028
:100FF0000CEA03069E4220D183004FF00F0C0CFA3E
:1010000003F7BC4305FA03FC4CEA040491F803C05F
:10101000BCF1280F06D14FF0010C0CFA00FCC2F80D
:1010200014C00AE091F803C0BCF1480F05D14FF09D
:10103000010C0CFA00FCC2F810C0401C0828D1D3E7
:101040001460B1F800C0BCF1FF0F34DD546800201B
:101050002EE000F1080C4FF0010808FA0CF3B1F88B
:1010600000C00CEA03069E4221D183004FF00F0C12
:101070000CFA03F7BC4305FA03FC4CEA040491F8AC
:1010800003C0BCF1280F05D100F1080C08FA0CF8D8
:10109000C2F8148091F803C0BCF1480F07D100F1E9
:1010A000080C4FF0010808FA0CF8C2F81080401C38
:1010B0000828CED35460BDE8F0810000F0B50A46A0
:1010C000002300240021002500F00046B6F1004F67
:1010D00002D11D4EF16901E01B4E7168C0F303455A
:1010E00083B200F44016B6F5401F08D121F07061BC
:1010F000154E766826F07066134F7E6012E000F49D
:101100008016B6F5801F06D1032606FA05F4A14322
:1011100041F0706106E0460D360103FA06F6B14370
:1011200041F0706122B1460D360103FA06F63143F3
:1011300000F00046B6F1004F02D1034EF16101E02C
:10114000014E7160F0BD0000000001404161704738
:101150000161704700BFFEE710B500200A49086032
:1011600000F016FB00200949C1F89C01062001F09F
:101170003BFF012004490860062001F035FF0020F4
:101180000249C1F8980110BD988121420080214296
:1011900008B50121082000F073FA4020ADF80000E6
:1011A00003208DF8020010208DF8030069460B48DB
:1011B000FFF7F8FE8020ADF8000003208DF8020054
:1011C00010208DF8030069460448FFF7EBFE01206C
:1011D000034908600349C1F8980108BD000C0140AB
:1011E0009C8121420080214210B500200A490860FC
:1011F00000F0CEFA01200949C1F89C01062001F057
:10120000F3FE012004490860062001F0EDFE0020F5
:101210000249C1F8980110BD988121420080214205
:1012200070B505460024002600F0A4FA00BF16E0C1
:10123000002010490860062001F0D6FE01200E496A
:10124000C1F898010B487C380068C4F10701884058
:101250003043C6B2062001F0C7FE601CC4B2082CA1
:10126000E6DB15B9FFF7C0FF01E0FFF775FF304679
:1012700070BD0000988121420080214270B5044673
:1012800000F086FA00201249086000251CE004F0F6
:10129000800020B101200E49091D086003E00020F4
:1012A0000B49091D08606006040E062001F09CFE33
:1012B000012007490860062001F096FE002005493C
:1012C000C1F89801681CC5B2082DE0DB70BD0000B4
:1012D000988121420080214210B500F059FA012086
:1012E000094908600949C1F89C01062001F07CFE0B
:1012F00000200549091D0860062001F075FE002048
:101300000249C1F8980110BD988121420080214214
:1013100010B500F03DFA0020074908600120074998
:10132000C1F89801062001F05FFE01200249086023
:10133000062001F059FE10BD9C812142008021420F
:1013400010B5002400200F490860062001F04CFE73
:1013500000F010FA01200C49C1F89801062001F0B4
:1013600043FE06E0641CFA2C03D9FFF7D1FF0120ED
:1013700010BD04487C3800680028F3D1014908609A
:1013800000BFF5E7988121420080214208B5012184
:10139000402000F075F90121042000F071F91020BF
:1013A000ADF8000048208DF8030069460648FFF7B5
:1013B000F9FD0120ADF8000028208DF803006946F2
:1013C0000248FFF7EFFD08BD00180140000801408A
:1013D00008B50121082000F053F90121402000F058
:1013E0004FF92020ADF8000003208DF802001020F6
:1013F0008DF8030069460C48FFF7D4FD2020ADF8B6
:10140000000003208DF8020010208DF803006946CB
:101410000648FFF7C7FD20210348FFF799FE20216A
:101420000248FFF795FE08BD000C0140001801407E
:1014300010B520210348FFF78BFE20210248FFF75B
:1014400087FE10BD000C01400018014010B520219E
:101450000348FFF77BFE20210248FFF777FE10BD0F
:10146000000C01400018014000BFFEE700B58DB040
:101470000121084600F0E4F80121880300F000F99A
:10148000254803900020099080200790C000059017
:10149000224802900020089006901020049000201E
:1014A0000C900A904FF400500B9002A91C48FFF7D3
:1014B0002EFB012202211A48FFF720FB0E208DF897
:1014C000040000208DF8050002208DF806000120A0
:1014D0008DF8070001A800F06FF812480390002073
:1014E000099080200790C00005900C4802900020D1
:1014F0000890069004900C900A904FF400500B90C6
:1015000002A907481430FFF702FB012104481430F8
:10151000FFF7CEFA0DB000BDE8040020043801400A
:1015200044000240E80800200EB50121084600F002
:10153000A7F800210846FFF715FD04210846FFF72C
:1015400011FD0120019000208DF8080008208DF881
:10155000090001208DF80A0001A8FFF7B9FC10204E
:10156000019000208DF808000C208DF80900012062
:101570008DF80A0001A8FFF7ABFC06208DF80000EB
:1015800001208DF8010002208DF8020001208DF865
:101590000300684600F010F80A208DF800000020D3
:1015A0008DF8010001208DF802008DF803006846D7
:1015B00000F002F80EBD704770B5002100230F2225
:1015C000C47804B3154C246804F4E064C4F5E06402
:1015D000210AC1F10403CA40447804FA03F1847873
:1015E0001440214309010E4C0678A155047804F0FB
:1015F0001F050124AC4005786D11AD0005F1E02513
:10160000C5F8004109E0047804F01F050124AC404E
:10161000044D0678761145F8264070BD0CED00E0CB
:1016200000E400E080E100E002490143024A116069
:10163000704700000000FA050CED00E07047000064
:1016400029B1064A52690243044B5A6104E0034A35
:1016500052698243014B5A617047000000100240FA
:1016600029B1064AD2690243044BDA6104E0034A15
:10167000D2698243014BDA617047000000100240DA
:1016800029B1064A92690243044B9A6104E0034A75
:1016900092698243014B9A6170470000001002403A
:1016A00030B500210022002400232D4D6D6805F087
:1016B0000C0121B1042905D0082923D105E0294DC9
:1016C000056022E0274D05601FE0254D6D6805F49B
:1016D0007012234D6D6805F48034022505EB9242AB
:1016E0001CB9214D554305600BE01D4D6D6805F497
:1016F00000351DB11C4D5543056002E0194D5543A1
:10170000056002E0174D056000BF00BF144D6D6815
:1017100005F0F0010909154D6B5C0568DD40456079
:101720000F4D6D6805F4E061090A104D6B5C45686A
:10173000DD4085600A4D6D6805F46051C90A0B4DA6
:101740006B5C4568DD40C560054D6D6805F4404142
:10175000890B074D6B5CC568B5FBF3F5056130BDC2
:101760000010024000127A0000093D000400002031
:101770001400002008B58020ADF8000048208DF846
:10178000030069460148FFF70DFC08BD000C01404D
:1017900008B58020ADF8000003208DF8020010206D
:1017A0008DF8030069460248FFF7FCFB08BD000006
:1017B000000C0140704710B500F002F810BD0000A9
:1017C0000CB50020019000903348006840F4803050
:1017D0003149086000BF3048006800F400300090D4
:1017E0000198401C0190009818B90198B0F5A06FBD
:1017F000F1D12948006800F4003010B101200090B8
:1018000001E0002000900098012843D1234800689F
:1018100040F01000214908600846006820F00300ED
:1018200008600846006840F0020008601A484068F6
:10183000194948600846406848600846406840F4D6
:10184000806048600846406820F47C104860084684
:10185000406840F4E81048600846006840F0807036
:10186000086000BF0C48006800F000700028F9D044
:101870000948406820F0030007494860084640686E
:1018800040F00200486000BF0348406800F00C00D0
:101890000828F9D10CBD00000010024000200240D1
:1018A0007047000010B51348006840F0010011496E
:1018B000086008464068104908400E4948600846DC
:1018C00000680E4908400B4908600846006820F48B
:1018D000802008600846406820F4FE0048604FF40D
:1018E0001F008860FFF767FF4FF000600449086041
:1018F00010BD0000001002400000FFF8FFFFF6FEE0
:1019000008ED00E04FF0E020006920F004004FF007
:10191000E021086109200349086042F228300249A9
:1019200008607047180000201C00002010B501213D
:10193000084800F05EF858B10121064800F04AF866
:101940000548006808B9012000E00020024908604D
:1019500010BD000000080040948121421FB5012104
:101960000420FFF77DFE41F28730ADF8080043F612
:101970003F00ADF804000020ADF80A00ADF8060005
:1019800001A90B4800F050F801221146084800F068
:1019900041F81E208DF8000000208DF80100012084
:1019A0008DF802008DF803006846FFF705FE1FBDA5
:1019B0000008004010B50121014800F00EF810BDEC
:1019C0000008004010B50021014800F006F810BDE5
:1019D00000080040CA430282704721B1028842F0E9
:1019E0000102028004E002884FF6FE731A40028072
:1019F000704730B50246002000230024158A05EA0E
:101A00000103958905EA010413B10CB1012000E03E
:101A1000002030BD1AB183890B43838102E08389A2
:101A20008B43838170470000002202881D4B98423F
:101A30000ED01D4B98420BD0B0F1804F08D01B4BFD
:101A4000984205D01A4B984202D01A4B984204D1C2
:101A50004FF68F731A404B881A43174B984207D0A2
:101A6000164B984204D04FF6FF431A40CB881A43D6
:101A700002808B8883850B8803850A4B98420BD0A4
:101A8000094B984208D00E4B984205D00D4B984216
:101A900002D00D4B984201D10B7A03860123838239
:101AA00070470000002C0140003401400004004059
:101AB00000080040000C00400010004000140040EE
:101AC00000400140004401400048014010B500249E
:101AD00000BF03E0412013490855641CB4F5806F32
:101AE000F8D300211048FEF7E3FF012280210F48C0
:101AF00000F021FA4FF480610B48FFF726F801212E
:101B00000948FEF7D5FF00200949087006E008489B
:101B1000007818B107A000F0B1FD00E0F7E700BFC2
:101B200010BD0000E80400204400024000380140DD
:101B3000D80000200A20444D41205478205375637A
:101B4000636573732C20496E746572727570740AC4
:101B50000000000000B58DB001210846FFF770FDC0
:101B6000254803900020099080200790C000059030
:101B70002248029000200890069010200490002037
:101B80000C900A904FF400500B9002A91C48FEF7ED
:101B9000BEFF1C4803900020099080200790C000E1
:101BA00005901648029000200890069004900C9032
:101BB0000A904FF400500B9002A911481430FEF720
:101BC000A6FF01210E481430FEF772FF0122022108
:101BD0000B48FEF793FF0C208DF8040000208DF8D1
:101BE000050001208DF806008DF8070001A8FFF719
:101BF000E3FC0DB000BD0000E80C002004480040EC
:101C00001C000240E810002000B587B001218804C4
:101C1000FFF726FD01210820FFF732FD4FF4806019
:101C2000ADF8180003208DF81A0018208DF81B005D
:101C300006A92148FFF7B6F94FF40060ADF8180087
:101C400004208DF81B0006A91B48FFF7ABF94FF4E1
:101C5000E13002900020ADF80C00ADF81000ADF8B6
:101C60000E000C20ADF812000020ADF8140002A9FF
:101C7000124800F0C5F90121104800F050F9012286
:101C800040F224410D4800F096F927208DF8040019
:101C900000208DF8050001208DF806008DF8070062
:101CA00001A8FFF789FC0122C021044800F043F994
:101CB000FFF750FF07B000BD000C01400048004096
:101CC0000FB408B503A800900B48009A029900F0E1
:101CD000E5FC0020009000210848FEF7E9FE4FF4E3
:101CE00080610648FEF731FF01210448FEF7E0FE5F
:101CF00001B05DF814FB0000E80C00201C0002405D
:101D000000B587B001210420FFF7BAFC0121880348
:101D1000FFF7B6FC4FF40070ADF8180003208DF803
:101D20001A0018208DF81B0006A92448FFF73AF97D
:101D30004FF48060ADF8180004208DF81B0006A950
:101D40001E48FFF72FF94FF4E13002900020ADF864
:101D50000C00ADF81000ADF80E000C20ADF812002C
:101D60000020ADF8140002A9154800F049F901213E
:101D7000134800F0D4F825208DF8040000208DF8D9
:101D8000050002208DF8060001208DF8070001A84B
:101D9000FFF712FC012240F22551094800F00BF92F
:101DA000012240F22441064800F005F90122C02139
:101DB000034800F0C0F807B000BD00000008014073
:101DC0000038014010B5044600BF4021044800F02F
:101DD000BBF80028F9D02146014800F082F910BD77
:101DE0000038014010B5044603E02078FFF7EAFF11
:101DF000641C20780028F8D110BD000010B540F216
:101E00002551244800F0ADF8F0B140F225512148A9
:101E100000F076F81F4800F05FF9C4B21E48016870
:101E20000068401C1C4A10601C4844540A2C0BD10A
:101E3000002110460068801E184A115400201649DF
:101E4000086001201649086040F22441114800F062
:101E500088F8E8B10F4800880E48001D0088114836
:101E6000FEF732FEC0F580600F49086000210E4881
:101E70000068801E0D4A11540A48FEF719FE4FF4FF
:101E800080610848FEF761FE01210648FEF710FE5A
:101E900010BD000000380140C8000020E80000200C
:101EA000CC00002058000240DC000020E8080020A0
:101EB00010B540F224410F4800F053F8C0B10D486E
:101EC00000880C48001D00880B48FEF7FDFDC0F59A
:101ED00080600A49086000210748FEF7E9FD4FF4D9
:101EE000806005493039486301210348FEF7E0FD71
:101EF00010BD00000048004030000240E00000201B
:101F000010B50022002340F66A14A14200D100BFA0
:101F10000A1201249440A3B2DC43048010BD21B115
:101F2000828942F40052828104E082894DF6FF7377
:101F30001A40828170471AB1838A0B43838202E080
:101F4000838A8B438382704702460020B1F5007F6D
:101F500000D100BF13880B400BB1012000E000202E
:101F6000704770B50246002400230025002040F68B
:101F70006A16B14200D100BFC1F3421501F01F0340
:101F8000012606FA03F3012D02D19689334006E0BB
:101F9000022D02D1168A334001E0968A33400C129A
:101FA000012606FA04F41688344013B10CB101205E
:101FB00000E0002070BDF0B5034600240026002597
:101FC000002040F66A17B94200D100BF1846C1F39D
:101FD000421401F01F06012707FA06F5012C01D172
:101FE0000C3004E0022C01D1103000E014301AB1A2
:101FF00007682F43076002E00768AF430760F0BD42
:102000002DE9F04786B005460E460024A24600BFE3
:10201000A1460027B08900B100BF2F462C8A4CF69C
:10202000FF700440F08804432C82AC894EF6F31014
:102030000440B08831890843718908430443AC8166
:10204000AC8A4FF6FF400440B0890443AC8201A83B
:10205000FFF726FB1F48874202D1DDF810A001E000
:10206000DDF80CA0A88900F4004040B10AEBCA00DA
:1020700000EB0A1031684900B0FBF1F807E00AEB09
:10208000CA0000EB0A1031688900B0FBF1F8642047
:10209000B8FBF0F004012009642101FB1089A88934
:1020A00000F4004040B1322000EBC900B0FBF1F079
:1020B00000F00700044308E0322000EB091064211F
:1020C000B0FBF1F000F00F0004432C8106B0BDE836
:1020D000F08700000038014001468888C0F30800FE
:1020E0007047C1F308028280704700BFFEE710B559
:1020F00000F004F808B1FFF7FAFF10BD10B5322068
:1021000000F012FA20B12FA000F0B8FA012010BDA3
:1021100030A000F0B3FA322132A000F063FA20B10F
:1021200033A000F0ABFA0220F1E737A000F0A6FAE6
:1021300032213BA000F056FA20B13DA000F09EFAFB
:102140000320E4E741A000F099FA1E2000F09CF97A
:1021500020B145A000F092FA0420D8E74FF47A703D
:1021600000F01CFF4FF47A7000F018FF44A000F05C
:1021700085FA322148A000F035FA20B14AA000F0DB
:102180007DFA0520C3E74EA000F078FA322153A073
:1021900000F028FA20B154A000F070FA0620B6E74B
:1021A00057A000F06BFA0A2000F0D2F820B15BA033
:1021B00000F064FA0720AAE75EA000F05FFA0020B2
:1021C000A5E700007265736574206661696C6564DB
:1021D0000A0000007265736574207375636365732C
:1021E000730A000041542B43574D4F44453D310085
:1021F00073657420737461206D6F64652066616916
:102200006C65640A000000007365742073746120BB
:102210006D6F646520737563636573730A000000F6
:1022200041542B43574155544F434F4E4E3D300080
:1022300063616E63656C206175746F20636F6E6E91
:10224000206661696C65640A0000000063616E636A
:10225000656C206175746F20636F6E6E207375639B
:10226000636573730A000000636F6E6E65637420AC
:10227000726F75746572206661696C65640A00002E
:10228000636F6E6E65637420726F75746572207310
:102290007563636573730A0041542B4349504D4F76
:1022A00044453D3100000000736574206469726527
:1022B0006374206D6F6465206661696C65640A00F3
:1022C00073657420646972656374206D6F64652042
:1022D000737563636573730A0000000041542B43F8
:1022E00049504D55583D30007365742073696E67D1
:1022F0006C65206D6F6465206661696C65640A00B9
:102300007365742073696E676C65206D6F646520FA
:10231000737563636573730A00000000636F6E6E0C
:1023200065637420736572766572206661696C6599
:10233000640A0000636F6E6E656374207365727665
:10234000657220737563636573732837290A00000B
:1023500070B50446254600202B4908604FF4806183
:102360002A48FDF708FF4FF4FA5229A12CA0FFF7E5
:10237000A7FC13E0642000F011FE30A12348FDF714
:1023800005FF00B10EE02FA12048FDF7FFFE08B1C8
:10239000012070BD21462DA000F070F9201EA4F18F
:1023A0000104E7D100BF2AA000F068F9002C01DC8D
:1023B0000220EEE727A000F061F900201249086032
:1023C0004FF480611148FDF7D6FE2AA0FFF778FC94
:1023D0000CE0642000F0E2FD2AA10C48FDF7D6FED7
:1023E00000B107E0294619A000F048F9281EA5F120
:1023F0000105EED100BF16A000F040F9002D01DC70
:102400000320C6E70020C4E7E0000020E810002019
:102410003139322E3136382E32342E3135390000F2
:1024200041542B43495053544152543D225443503C
:10243000222C222573222C25640D0A00434F4E4E78
:1024400045435400434C4F5345440000256420004D
:102450000A000000636F6E6E6563742073657276A8
:102460006572207375636365737328383236362955
:102470000A00000041542B43495053454E440D0A75
:10248000000000004F4B000010B504460020144926
:1024900008604FF480611348FDF76DFE12A215A18C
:1024A00016A0FFF70DFC0DE04FF47A7000F076FDFA
:1024B00018A10C48FDF76AFE00B107E0214618A0FC
:1024C00000F0DCF8201EA4F10104EDD100BF15A03E
:1024D00000F0D4F8002C01DC012010BD0020FCE746
:1024E000E0000020E81000203732393833316868C6
:1024F00000000000434D43430000000041542B43C3
:10250000574A41503D222573222C222573220D0A61
:10251000000000005749464920474F5420495000C9
:10252000256420000A00000010B50446002013496D
:1025300008604FF4FA7000F031FD01201049C1F835
:10254000BC010CE0642000F029FD0EA10F48FDF74E
:102550001DFE00B107E021460DA000F08FF8201EFF
:10256000A4F10104EED100BF0AA000F087F8002C0E
:1025700001DC012010BD0020FCE70000BC0121426D
:10258000000021427265616479000000E8100020BB
:10259000256420000A00000008B501210420FFF78F
:1025A0006FF801210846FFF76BF801210A48FEF792
:1025B00085FD4FF40040ADF8000003208DF80200C7
:1025C00010208DF8030069460448FEF7EBFC01205B
:1025D0000349086008BD0000000230000008014007
:1025E000BC01214270B505460C4600201349086025
:1025F0004FF480611248FDF7BEFD294611A0FFF798
:102600005FFB0CE0642000F0C9FC10A10C48FDF752
:10261000BDFD00B107E021460DA000F02FF8201EFF
:10262000A4F10104EED100BF0AA000F027F8002CAD
:1026300001DC012070BD0020FCE70000E00000206C
:10264000E810002025730D0A000000004F4B000029
:10265000256420000A00000010B503A4214606A04E
:10266000FFF72EFB10BD000068656C6C6F2C2065B9
:102670007370383236360A00257300000FB4054BEC
:1026800010B503A9044A029800F0ECF810BC5DF8FC
:1026900014FB000065300008E400002037B5144644
:1026A0000846064B6A46214600F0DCF804466946B7
:1026B000002000F06EFC20463EBD0000932F000875
:1026C00002E008C8121F08C1002AFAD170477047FB
:1026D000002001E001C1121F002AFBD17047000059
:1026E0002DE9FF5F82B00021DDE90430020DDDF845
:1026F00040B0034318D044F61050A2F2FF324243D8
:102700001514119801281FD0A5EB0B00401C5FEA9F
:10271000000A4FF000064E4FDFF83891B0465046A1
:1027200015D5CAF1000413E0119801244AA3012829
:1027300001D16FEA0B010298119AC0E90031C0E99A
:10274000024206B0BDE8F09FCBF10000DFE704468F
:102750000021404A491842EB0450CDE9001012E034
:10276000E00707D032463B4640464946FDF72EFD7E
:102770008046894632463B4610461946FDF726FDFF
:1027800006460F466410002CEAD1DDE90401DDE9BC
:102790000023BAF1000F06DAFDF718FD42464B465A
:1027A000FDF714FD05E0FDF741FF42464B46FDF7FE
:1027B0003DFF04460E460022284BFDF7BFFF03D81D
:1027C0004FF0FF30014607E00022254B20463146FE
:1027D000FDF785FEFDF799FF102409E0002C0ADBC8
:1027E0000A220023FDF7B6FD039B30321A55641E02
:1027F00050EA0102F2D1641C039AC4F1110314449B
:10280000119A012A03D0012208430DD10AE008439E
:1028100004D000204FF0110B119072E7A3EB0B05D1
:102820006D1E0DE05B4504DD4FF0000205F1010572
:1028300004E003DA4FF00002A5F10105002AECD014
:1028400002981199C0E90231C0E9004579E700001A
:10285000000014400000F03F300000000000F04392
:102860000000E03F2DE9FF4F95B09B4689460646A4
:1028700000250FE2252877D100242746F84A0121B8
:10288000059400E0044316F8013F203B01FA03F0F1
:102890001042F7D130782A2811D06FF02F0330780A
:1028A000A0F13002092A16D8059A44F0020402EB7E
:1028B000820203EB42021044761C0590EFE759F8C0
:1028C000042B0592002A03DA504244F40054059088
:1028D00044F00204761C30782E2816D116F8010F29
:1028E00044F004042A280DD06FF02F023078A0F1B4
:1028F0003003092B09D807EB870302EB4303C71802
:10290000761CF3E759F8047B761C30786C280FD0DE
:1029100006DC4C2817D068280DD06A2814D104E0B2
:10292000742810D07A280FD10DE044F400140AE086
:1029300044F4801401E044F440147278824202D1DD
:1029400004F58014761C761C307866280BD013DCD6
:10295000582877D009DC002875D04528F6D04628BD
:10296000F4D047281AD19DE118E0632835D06428B7
:1029700079D0652812D195E1702873D008DC6728DA
:10298000F1D069286FD06E280DD06F2806D1B5E040
:1029900073282CD0752875D0782874D05A4617998A
:1029A00090476D1C75E1C4F30250022809D003283A
:1029B0000DD0D9F8001004280DD00D6009F10409DC
:1029C00067E1D9F80010EA17C1E90052F6E7D9F833
:1029D00000100D80F2E70D70F0E719F8041B8DF878
:1029E000001000208DF80100EA46012003E059F8AC
:1029F00004AB4FF0FF3061074FF0000102D40DE04F
:102A000008F101018846B9420FDA8045F8DB1AF86F
:102A100008100029F4D108E008F10101884681423C
:102A2000FADB1AF808100029F6D105985B46A0EBEE
:102A3000080721463846179A00F094FA284400EB1C
:102A4000080507E04DE029E10DE01AF8010B5A46B0
:102A500017999047B8F10108F7D25B4621463846EE
:102A6000179A13E142E00A220092C4F302524FF097
:102A7000000A022A08D059F804CB032A4FEAEC7165
:102A80000AD00DE029E02AE009F1070121F0070250
:102A9000F2E802C1914609E00FFA8CFC4FEAEC71B2
:102AA000042A03D14FFA8CFC4FEAEC71002907DAB3
:102AB0000A460021DCF1000C61EB02012D2202E04C
:102AC000220504D52B228DF80420012203E0E20721
:102AD00001D02022F7E7904659E00A2102E01022B7
:102AE0000DE010214FF0000A00910BE010224FF092
:102AF000000A44F004040827009203E008224FF083
:102B0000000A0092C4F30252022A05D059F804CBFD
:102B10000021032A08D009E009F1070121F007028A
:102B2000F2E802C1914605E01FFA8CFC042A01D1AB
:102B30000CF0FF0C4FF00008220728D5702806D0B3
:102B4000009B83F0100353EA0A0305D00EE04022F5
:102B50008DF80420012208E05CEA010206D0302250
:102B60008DF804208DF8050002229046009B83F02A
:102B7000080353EA0A030AD15CEA010201D16207A1
:102B800005D530228DF804204FF001087F1E58280B
:102B900004D034A003900EA802900DE036A0F9E70F
:102BA00053466046009AFDF7D5FB84460398825C45
:102BB0000298401E029002705CEA0100F0D1029877
:102BC00006A9081A00F1200A600702D524F480340F
:102BD00000E00127574502DDA7EB0A0000E00020D6
:102BE00000EB0A01009005984144401A0590E0036B
:102BF00006D45B462146179A059800F0B3F90544C0
:102C0000002706E001A85A46C05D179990476D1C41
:102C10007F1C4745F6DBE0030CD55B462146179A3F
:102C2000059800F09FF9054404E030205A461799B2
:102C300090476D1C0099481E00900029F5DC08E0C3
:102C4000029802995A460078491C029117999047B8
:102C50006D1CBAF10001AAF1010AF1DC65E1000086
:102C60000928010030313233343536373839616262
:102C70006364656600000000303132333435363726
:102C800038394142434445460000000000F058F9FD
:102C90000544761C307800287FF4ECAD19B0284646
:102CA000BDE8F08F620700D4062709F1070222F081
:102CB000070CFCE80223E14603F000485FEA080C39
:102CC00002D00FF2702C0DE05FEA045C02D50FF227
:102CD000682C07E05FEAC47C02D00FF2602C01E0B0
:102CE000AFF2700C4FF0FF3823F00043CDF850C026
:102CF00065280CD006DC452809D046281DD0472879
:102D00003DD13DE0662818D067287ED138E000210B
:102D1000112F01DB112000E0781CCDE9000106A98C
:102D20000EA8FFF7DDFCDDE90F010E9A03910021EB
:102D3000009207F1010A04914DE04FF00040009726
:102D4000CDE9011006A90EA8FFF7CAFCDDE90F02C4
:102D500003920E9B11990022DDF80CA000930492BF
:102D600011B9791C00EB010AB7EB0A0004D4C0F1D9
:102D7000FF3007F1010A0490AAEB0700019044E03C
:102D8000012F00DA01270021112F01DD112000E0C1
:102D90003846CDE9000106A90EA8FFF7A1FCDDE940
:102DA0000F010E9A0391002104910092BA46210767
:102DB0000CD40399514500DA8A46BAF1010F05DDBA
:102DC000009AAAF10101515C302908D0B84202DA18
:102DD00010F1040F06DA0121CDE9011015E0AAF186
:102DE0000101E9E7002805DC049901440491AAEBFC
:102DF000000102E0411C514500DD8A460499401A59
:102E0000401C01904FF000400290200704D401982C
:102E1000504501DBCDF8048000208DF84F0002986A
:102E20000DF14F07B0F1004F25D02B200E900298E6
:102E30004FF0020800280CDA404202902D200E903C
:102E400007E00A210298FDF76FFA3031029007F887
:102E5000011DB8F10001A8F10108F2DC0298002878
:102E6000EFD1791E0E980870307800F0200040F005
:102E7000450007F8020D12A8C01B00F107081498BE
:102E8000007800B1012000EB0A01019801EBE0712C
:102E900005984144401A401E0590E00306D45B4665
:102EA0002146179A059800F05DF8054414980078BB
:102EB00018B15A46179990476D1CE00324D55B461C
:102EC0002146179A059800F04DF805441CE0049837
:102ED000002807DBDDE90301884203DD0098405C40
:102EE000179901E0179930205A469047049805F148
:102EF0000105401C04900198401E019004D12E2031
:102F00005A46179990476D1CBAF10001AAF1010ABF
:102F1000DDDC05E017F8010B5A46179990476D1C48
:102F2000B8F10001A8F10108F4DC5B462146179ACC
:102F30000598ABE62D0000002B00000020000000EB
:102F40002DE9F041044600251E461746880404D4A6
:102F500005E039462020B0476D1C641EF9D528468F
:102F6000BDE8F0812DE9F041044600251E4690465B
:102F7000C80301D5302700E02027880404D505E0E8
:102F800041463846B0476D1C641EF9D52846BDE859
:102F9000F0810A68531C0B60107070470146114A9B
:102FA00012684A434FF0E0235A6100229A611A46A0
:102FB000126942F001021A6100BF4FF0E02210696D
:102FC00000F001021AB100F48032002AF5D04FF06F
:102FD000E022126922F001024FF0E0231A61002280
:102FE0009A6170471C0000200146114A12684A434A
:102FF0004FF0E0235A6100229A611A46126942F0AA
:1030000001021A6100BF4FF0E022106900F00102D6
:103010001AB100F48032002AF5D04FF0E022126994
:1030200022F001024FF0E0231A6100229A617047FA
:103030001800002070B50546002400BF0BE00848CA
:1030400050F834102846FDF7B3F818B9044800EBDF
:10305000C40070BD641C0F2CF1D30020F9E7000000
:103060002000002070B504460D4600BF40210548F1
:10307000FEF76AFF0028F9D0E1B20248FFF731F805
:10308000204670BD003801404FF4A060FEF7CCFA36
:10309000FDF7CCFC26E014480068A0B113A0FEF7B1
:1030A000A1FE1748FFF7C6FF1649086008460068EA
:1030B00018B109684868804702E013A0FEF792FE45
:1030C0000020094908601548006858B1144915A046
:1030D000FFF7D4FA0020114908604FF480611048CE
:1030E000FDF749F8D7E70000DC0000207265636552
:1030F0006976656420636F6D6D616E643A000000EF
:10310000E808002000000020696E76616C69642088
:10311000636F6D6D616E640A00000000E0000020C6
:10312000E8100020726563656976656420646174E7
:10313000612066726F6D20736572766572203E2025
:1031400025730D0A00000000454550524F4D205296
:1031500000000000454550524F4D205253000000E2
:10316000454550524F4D20575300000045455052A1
:103170004F4D2057000000006573702073656E642A
:10318000000000006C6564206F6666006265657013
:10319000206F666600000000726F6D006C65642031
:1031A0006F6E000062656570206F6E0074656D70F3
:1031B0000000000074696D342073746F70000000AB
:1031C00065737020636F6E6E6563740074696D342F
:1031D0002073746172740000646D61207478000063
:1031E0000032000800000020E8000000C0260008AF
:1031F000E8320008E800002000180000D02600088F
:1032000000000000000000000102030401020304AA
:10321000060708090204060800000000000000007C
:103220009C3100084D140008843100083114000856
:10323000A4310008150A00088C310008010A0008B2
:1032400048310008D10800086C310008BD090008A9
:10325000543100088D080008603100089D090008FD
:10326000AC310008950D000898310008750C000875
:10327000D8310008CD1A0008CC310008B519000873
:10328000B4310008C5190008C0310008EF2000085B
:103290007831000859260008D1130008C909000830
:1032A000051900088D13000829150008011D0008E4
:1032B000F3070008010C00086D1400085D190008F0
:1032C000091C00089925000800000000000000000B
:1032D00000000000000000000000000000000000EE
:0832E0000000000000000000E6
:0400000508000131BD
:00000001FF
