:020000040800F2
:10000000A8080020450100081B130008730F000812
:1000100089120008E10900086F19000800000000BB
:10002000000000000000000000000000D9140008DB
:10003000D50C000800000000A1130008C515000839
:100040005F0100085F0100085F0100085F01000810
:100050005F0100085F010008D90C00085F0100087B
:100060005F0100085F010008150D00085F0100082E
:100070005F0100085F0100085F0100085F010008E0
:100080005F0100085F0100085F0100085F010008D0
:100090005F0100085F0100085F0100085F010008C0
:1000A0005F0100085F0100085F0100085F010008B0
:1000B0005F0100085F0100085F0100085F010008A0
:1000C0005F0100085F0100085F0100085F01000890
:1000D0005F010008351700085F0100085F01000894
:1000E0005F0100085F0100085F0100085F01000870
:1000F0005F0100085F0100085F0100085F01000860
:100100005F0100085F0100085F0100085F0100084F
:100110005F0100085F0100085F0100085F0100083F
:100120005F0100085F0100085F0100085F0100082F
:10013000DFF80CD000F0F6FA00480047552300081D
:10014000A80800200648804706480047FEE7FEE76B
:10015000FEE7FEE7FEE7FEE7FEE7FEE7FEE7FEE777
:10016000C91500083101000810B5002200E0521C3A
:10017000835C8C5CA34201D1002BF8D1D8B2E1B2F0
:10018000401A10BD2DE9FE4F81EA030404F000443B
:1001900021F0004100944FF0000B23F0004350EA9F
:1001A00001045ED052EA03045BD0C3F30A54C1F3E6
:1001B0000A552C44A4F2F3340194A0FB0254C1F379
:1001C000130141F48011C3F3130343F4801301FBC3
:1001D000024400FB034E840A970A44EA815447EA2A
:1001E0008357A4FB076802958D0A05FB07854FEA34
:1001F000932C04FB0C542705029D4FEA065847EA4E
:100200001637B5EB08056EEB070C870E920E47EA22
:10021000811742EA8312A7FB0201B6EB0B0164EBE4
:1002200000042B0D43EA0C335E1844EB1C50DA46F5
:100230005146E7FB0201C5F313044FEA0B3343EACF
:1002400014534FEA0432019C43EA0603A4F10C0460
:100250000294009CCDE900B400F0CFF803B0BDE8F3
:10026000F08F00200146F9E70EB540F233410291CC
:100270000021CDE900110A460B4600F0BEF803B09C
:1002800000BD00F0004230F000400AD0C10D01F581
:100290006071C0F3160042EA0151C20840071143E1
:1002A000704700200146704701F0004330B421F050
:1002B000004150EA010206D00A0DA2F56072C1F3B6
:1002C0001301002A02DC30BC00207047440F44EACE
:1002D000C104C100E01830BC00EBC25000F047B8C8
:1002E00030B50B46014600202022012409E021FA06
:1002F00002F59D4205D303FA02F5491B04FA02F503
:100300002844151EA2F10102F1DC30BD2DE9F05F99
:100310000546002092469B46884606468146402474
:100320001BE0284641464746224600F01CFA534649
:100330005A46C01A914110D311461846224600F081
:1003400003FA2D1A67EB01084F46224601200021CF
:1003500000F0FAF917EB00094E41201EA4F1010448
:10036000DFDC484631462A464346BDE8F09F002977
:10037000A8BF7047401C490008BF20F0010070472B
:1003800010B4B0FA80FC00FA0CF050EA010404BF8B
:1003900010BC704749B1CCF1200421FA04F411FAE1
:1003A0000CF118BF012121430843A3EB0C01CB1D25
:1003B0004FEA00614FEA102042BF002010BC704796
:1003C00000EBC35010440029A4BF10BC7047401C70
:1003D000490008BF20F0010010BC704710B5141E82
:1003E00073F1000408DA401C41F1000192185B41EE
:1003F0001A4301D120F0010010BD2DE9F04D9246C5
:100400009B4611B1B1FA81F202E0B0FA80F22032DB
:10041000904600F099F904460F4640EA0A0041EA86
:100420000B0153465A46084313D0114653EA0100C4
:1004300019D0C8F14002504600F095F905460E4625
:1004400050465946424600F07FF9084305D0012046
:1004500004E020463946BDE8F08D0020054346EA19
:10046000E0762C4337430A986305E40AA0EB0800C2
:100470000022FD0A44EA47540A3002D50020014612
:10048000E9E7010510196941DDE9084500196941ED
:10049000BDE8F04DA2E72DE9FE4F804681EA03005A
:1004A000C00F0C46009021F0004123F00045B8EB4E
:1004B0000200A94105D24046214690461C460B4603
:1004C000024623F00040104347D0270DC7F30A002F
:1004D000C3F30A510290401A019040286BDAC3F32B
:1004E000130040F4801B0098924620B10023D2EB09
:1004F000030A63EB0B0B01985946C0F140025046CA
:1005000000F022F906460D4650465946019A00F081
:100510003AF910EB08006141002487EA115284EA9D
:10052000E7731A4340D0009A62B3019A012A4FEA56
:10053000075215DC001B61EB02014FF0004202EA9A
:100540000752CDE90042001C41F5801132462B468E
:10055000FFF753FF03B0BDE8F08F40462146F9E7AF
:10056000001B61EB0201001C41F5801300185B4188
:100570002018A2F5001747EB030140EAD570B61921
:100580006D4111E06D084FEA360645EAC0754FEA45
:100590000752001B61EB0201001C41F58011490864
:1005A0004FEA30000019514132462B4603B0BDE8F6
:1005B000F04FFFF713BF0098012240000023D0EB5B
:1005C000020263EBE073009821464FEAE074B8EB57
:1005D000000061EB0401E9E783F000435BE781F091
:1005E000004158E72DE9F04D81EA030404F0004B87
:1005F00021F0004514464FF0000A23F0004150EA74
:10060000050220D054EA01021DD0C5F30A57024664
:10061000C5F31303C1F31300C1F30A5640F4801568
:1006200043F48013A7EB0608101BD64608F2FD38EA
:1006300073EB050002D308F1010801E092185B4159
:10064000B8F1000F03DA00200146BDE8F08D00206C
:100650004FF48011064684460EE0171B73EB050726
:1006600005D3121B63EB050306434CEA010C490852
:100670004FEA300092185B4150EA0107EDD152EA8F
:10068000030012D082EA040083EA0501084305D082
:10069000101BAB4106D20122002306E000224FF0DE
:1006A000004302E06FF0010253101AEB06004CEB1E
:1006B000085110EB0A0041EB0B01BDE8F04DFFF7CC
:1006C0008DBEC1F30A52C1F3130140F2FF3341F46E
:1006D00080119A4202DA00200146704740F233430B
:1006E0009A42A2F2334202DC524200F03CB800F0DF
:1006F0002BB8000030B5041E71F1000404DB4FF08C
:100700000044404264EB0101141E73F1000405DB58
:100710001C464FF00043524263EB0403994208BF6A
:10072000904230BD064C074D06E0E06840F0010302
:1007300094E8070098471034AC42F6D3FFF7FCFC6E
:100740002824000848240008202A04DB203A00FA64
:1007500002F1002070479140C2F1200320FA03F318
:10076000194390407047202A04DB203A21FA02F016
:100770000021704721FA02F3D040C2F120029140DB
:10078000084319467047202A06DBCB17203A41FA66
:1007900002F043EAE07306E041FA02F3D040C2F10E
:1007A0002002914008431946704710B500F000FC44
:1007B00010BD70B506460C46154600F09DFCA02005
:1007C00000F06CFC00F0CCFCF0B200F067FC00F034
:1007D000C7FC00F091FCA12000F060FC00F0C0FC20
:1007E0000DE0012D04D1002000F02AFC207003E070
:1007F000012000F025FC2070641C681E85B2002DCD
:10080000EFD100F095FC70BD70B5044600F074FCAB
:10081000A02000F043FC00F0A3FCE0B200F03EFC9E
:1008200000F09EFC00F068FCA12000F037FC00F016
:1008300097FC002000F004FC054600F079FC2846F7
:1008400070BD00001CB50020009001900522694693
:10085000FFF7AFFF002407E01DF80420214604A0A5
:1008600001F088F8601CC4B2052CF5DB1CBD00004B
:10087000616464725B25645D2C20646174615B2536
:1008800023585D0A0000000010B50020FFF7BCFFF0
:100890000446214601A001F06DF810BD52454144C7
:1008A00020444154413A202523780A0070B504467B
:1008B0000D46164600F020FCA02000F0EFFB00F0F3
:1008C0004FFCE0B200F0EAFB00F04AFC1FE02878A1
:1008D00000F0E4FB00F044FC6D1C601C84B2E117E6
:1008E00004EB5171C910A4EBC10181B900F020FCE7
:1008F000052001F0B9FC00F0FFFBA02000F0CEFBCA
:1009000000F02EFCE0B200F0C9FB00F029FC301E24
:10091000A6F101018EB2DAD100F00AFC052001F047
:10092000A3FC70BD70B504460D4600F0E5FBA020A9
:1009300000F0B4FB00F014FCE0B200F0AFFB00F0FC
:100940000FFC284600F0AAFB00F00AFC00F0F0FBC8
:1009500070BD00001CB505A103C9CDE90001052249
:1009600069460020FFF7A2FF1CBD0000010203043E
:100970000500000010B5AA210020FFF7D3FF10BD2D
:1009800008B50121082000F00DFD4FF48070ADF88E
:10099000000003208DF8020010208DF80300694646
:1009A000044800F057FA4FF48071024800F0DDFA75
:1009B00008BD0000000C014010B54FF480710248E2
:1009C00000F0D3FA10BD0000000C014010B54FF448
:1009D0008071024800F0CBFA10BD0000000C01400D
:1009E00000BFFEE770B5002400BF04E0034850F8E4
:1009F0002450A847641C082CF8D370BD7000002058
:100A00002DE9F05F4FF0000AD346002400F0D2F841
:100A100000F064F8442000F02DF94FF4487001F024
:100A200023FC00F0C7F800F059F8BE2000F022F9CE
:100A300000F09AF8824600F097F883464AEA0B24C1
:100A400004F47840B0F5784F0FD1E043401C84B2F5
:100A50002046FFF709FC074600220B4BFFF792FBED
:100A60000546FFF721FC81460BE02046FFF7FCFB23
:100A700007460022054BFFF785FB0546FFF714FCF0
:100A800081464846BDE8F09F0000B0BF0000B03F7F
:100A900008B54FF40060ADF8000048208DF8030061
:100AA0006946024800F0D6F908BD00000020014068
:100AB00008B50121080200F075FC4FF40060ADF8A4
:100AC000000003208DF8020010208DF80300694615
:100AD000014800F0BFF908BD0020014010B55520C5
:100AE00000F0C8F8002400BF05E00449085D00F0EC
:100AF000C1F8601CC4B2082CF7DB10BD98000020C0
:100B000008B54FF40060ADF8000003208DF8020036
:100B100010208DF803006946014800F09BF908BDDC
:100B20000020014010B500F045F8332000F0A2F895
:100B3000002400BF0AE000F017F8074908550846EE
:100B4000015D06A000F016FF601CC4B2082CF2DBA9
:100B500004A000F00FFF10BD98000020252378208E
:100B6000000000000A00000070B50024002500BF4E
:100B700017E0FFF7C5FF00200C490860022001F0D4
:100B800099FBFFF785FF082001F094FB0848D0F897
:100B90002C01A0402843C5B2322001F08BFB601C21
:100BA000C4B2082CE5DB284670BD0000AC0124422D
:100BB0000000244210B50024FFF7A2FF00201349D3
:100BC00008604FF4FA7001F075FB01201049C1F87C
:100BD000AC011E2001F06EFBFFF75AFF04E0601C21
:100BE000C4B2012001F066FB08488038006808B1F3
:100BF000F02CF4DBF02C03DB06A000F0BBFE03E0DE
:100C00000AA000F0B7FE002410BD0000AC01244291
:100C1000000024424453313842323020526573651B
:100C200074204661696C65640A00000044533138E1
:100C30004232302052657365742053756363657367
:100C4000730A000070B5FFF7DBFE06463046FFF77B
:100C500018FB044622460B4601A000F08BFE70BD37
:100C60006375727265742074656D703A20252E3339
:100C7000660A000070B504460025FFF741FF00BF7B
:100C800020E004F0010068B1002010490860022053
:100C900001F010FB01200E49C1F8AC013C2001F02D
:100CA00009FB0CE00020094908603C2001F002FB30
:100CB00001200749C1F8AC01022001F0FBFA6410E1
:100CC000681CC5B2082DDCDB70BD0000AC012442FD
:100CD000000024427047000010B5012000F03CF8ED
:100CE00001280ED10A2001F0BFFA08480068012847
:100CF00007D10748006808B9012000E00020044936
:100D00000860012000F022F810BD0000000121421F
:100D10009481214210B5102000F01EF8012810D156
:100D2000102000F013F80A2001F09EFA0548006830
:100D300038B90548006808B9012000E000200249E0
:100D4000086010BD10012342A081214201490860C2
:100D50007047000014040140014600200022074BA8
:100D60001B6803EA0102054B14331B680B4013B1E7
:100D70000AB1012000E0002070470000000401409B
:100D8000002123498279002A3AD00A461268036872
:100D90009A430B461A600A1D126803689A430B1D9A
:100DA0001A60027911440A6803681A430A60184AF3
:100DB0000832126803689A43154B08331A601A1DEB
:100DC000126803689A43124B0C331A604279102A56
:100DD0000ED11A1F126803681A430D4B08331A60AC
:100DE0001A1D126803681A43094B0C331A600DE090
:100DF0000749427911440A6803681A430A6005E00A
:100E0000027911440A6803689A430A607047000037
:100E10000004014030B500228B071C0F0F2303FA9A
:100E200004F20B4B8C1053F824309343084C8D1074
:100E300044F8253023468C1053F824308C07240FB7
:100E400000FA04F42343024C8D1044F8253030BDE1
:100E5000080001402DE9F04102460025002600204F
:100E600000230024002791F803C00CF00F0591F82F
:100E700003C00CF0100CBCF1000F03D091F802C0BD
:100E80004CEA050591F800C0BCF1000F31D01468A0
:100E900000202BE04FF0010C0CFA00F3B1F800C079
:100EA0000CEA03069E4220D183004FF00F0C0CFA8F
:100EB00003F7BC4305FA03FC4CEA040491F803C0B1
:100EC000BCF1280F06D14FF0010C0CFA00FCC2F85F
:100ED00014C00AE091F803C0BCF1480F05D14FF0EF
:100EE000010C0CFA00FCC2F810C0401C0828D1D339
:100EF0001460B1F800C0BCF1FF0F34DD546800206D
:100F00002EE000F1080C4FF0010808FA0CF3B1F8DC
:100F100000C00CEA03069E4221D183004FF00F0C63
:100F20000CFA03F7BC4305FA03FC4CEA040491F8FD
:100F300003C0BCF1280F05D100F1080C08FA0CF829
:100F4000C2F8148091F803C0BCF1480F07D100F13A
:100F5000080C4FF0010808FA0CF8C2F81080401C89
:100F60000828CED35460BDE8F0814161704701612B
:100F7000704700BFFEE7000010B500200A49086076
:100F800000F098FA00200949C1F89C01062001F000
:100F900091F9012004490860062001F08BF9002036
:100FA0000249C1F8980110BD988121420080214278
:100FB00008B50121082000F0F5F94020ADF8000047
:100FC00003208DF8020010208DF8030069460B48BD
:100FD000FFF740FF8020ADF8000003208DF80200ED
:100FE00010208DF8030069460448FFF733FF012005
:100FF000034908600349C1F8980108BD000C01408D
:101000009C8121420080214210B500200A490860DD
:1010100000F050FA01200949C1F89C01062001F0B6
:1010200049F9012004490860062001F043F9002035
:101030000249C1F8980110BD9881214200802142E7
:1010400070B505460024002600F026FA00BF16E021
:10105000002010490860062001F02CF901200E49FB
:10106000C1F898010B487C380068C4F1070188403A
:101070003043C6B2062001F01DF9601CC4B2082C32
:10108000E6DB15B9FFF7C0FF01E0FFF775FF30465B
:1010900070BD0000988121420080214270B5044655
:1010A00000F008FA00201249086000251CE004F056
:1010B000800020B101200E49091D086003E00020D6
:1010C0000B49091D08606006040E062001F0F2F8C5
:1010D000012007490860062001F0ECF800200549CE
:1010E000C1F89801681CC5B2082DE0DB70BD000096
:1010F000988121420080214210B500F0DBF90120E7
:10110000094908600949C1F89C01062001F0D2F89C
:1011100000200549091D0860062001F0CBF80020D9
:101120000249C1F8980110BD9881214200802142F6
:1011300010B500F0BFF900200749086001200749F9
:10114000C1F89801062001F0B5F8012002490860B5
:10115000062001F0AFF810BD9C81214200802142A1
:1011600010B5002400200F490860062001F0A2F805
:1011700000F092F901200C49C1F89801062001F015
:1011800099F806E0641CFA2C03D9FFF7D1FF01207F
:1011900010BD04487C3800680028F3D1014908607C
:1011A00000BFF5E7988121420080214208B5012166
:1011B000402000F0F7F80121042000F0F3F810209F
:1011C000ADF8000048208DF8030069460648FFF797
:1011D00041FE0120ADF8000028208DF8030069468B
:1011E0000248FFF737FE08BD001801400008014023
:1011F00008B50121082000F0D5F80121402000F0B9
:10120000D1F82020ADF8000003208DF80200102056
:101210008DF8030069460C48FFF71CFE2020ADF84E
:10122000000003208DF8020010208DF803006946AD
:101230000648FFF70FFE20210348FFF798FE202104
:101240000248FFF794FE08BD000C01400018014061
:1012500010B520210348FFF78AFE20210248FFF73E
:1012600086FE10BD000C01400018014010B5202181
:101270000348FFF77AFE20210248FFF776FE10BDF3
:10128000000C01400018014000BFFEE70EB501212F
:10129000084600F087F800210846FFF7BBFD04214F
:1012A0000846FFF7B7FD0120019000208DF80800E7
:1012B00008208DF8090001208DF80A0001A8FFF729
:1012C0005FFD1020019000208DF808000C208DF8A3
:1012D000090001208DF80A0001A8FFF751FD062042
:1012E0008DF8000001208DF8010002208DF8020029
:1012F00001208DF80300684600F010F80A208DF8F0
:10130000000000208DF8010001208DF802008DF80A
:101310000300684600F002F80EBD704770B500216A
:1013200000230F22C47804B3154C246804F4E0644D
:10133000C4F5E064210AC1F10403CA40447804FA08
:1013400003F184781440214309010E4C0678A1551D
:10135000047804F01F050124AC4005786D11AD0040
:1013600005F1E025C5F8004109E0047804F01F0507
:101370000124AC40044D0678761145F8264070BD36
:101380000CED00E000E400E080E100E002490143F0
:10139000024A1160704700000000FA050CED00E001
:1013A0007047000029B1064A92690243044B9A61D2
:1013B00004E0034A92698243014B9A61704700003E
:1013C0000010024030B500210022002400232D4DE2
:1013D0006D6805F00C0121B1042905D0082923D13D
:1013E00005E0294D056022E0274D05601FE0254DF1
:1013F0006D6805F47012234D6D6805F48034022584
:1014000005EB92421CB9214D554305600BE01D4D83
:101410006D6805F400351DB11C4D5543056002E0B3
:10142000194D5543056002E0174D056000BF00BF30
:10143000144D6D6805F0F0010909154D6B5C0568E8
:10144000DD4045600F4D6D6805F4E061090A104DFF
:101450006B5C4568DD4085600A4D6D6805F4605140
:10146000C90A0B4D6B5C4568DD40C560054D6D6874
:1014700005F44041890B074D6B5CC568B5FBF3F57E
:10148000056130BD0010024000127A0000093D00E5
:10149000040000201400002008B58020ADF80000F2
:1014A00048208DF8030069460148FFF7D3FC08BDCA
:1014B000000C014008B58020ADF8000003208DF835
:1014C000020010208DF8030069460248FFF7C2FCB5
:1014D00008BD0000000C0140704710B500F002F894
:1014E00010BD00000CB5002001900090334800684A
:1014F00040F480303149086000BF3048006800F493
:10150000003000900198401C0190009818B9019893
:10151000B0F5A06FF1D12948006800F4003010B197
:101520000120009001E0002000900098012843D1A4
:101530002348006840F01000214908600846006810
:1015400020F0030008600846006840F002000860D0
:101550001A4840681949486008464068486008468B
:10156000406840F4806048600846406820F47C1081
:1015700048600846406840F4E81048600846006843
:1015800040F08070086000BF0C48006800F00070F8
:101590000028F9D00948406820F003000749486056
:1015A0000846406840F00200486000BF03484068B9
:1015B00000F00C000828F9D10CBD0000001002401A
:1015C000002002407047000010B51348006840F04A
:1015D00001001149086008464068104908400E495A
:1015E0004860084600680E4908400B4908600846F4
:1015F000006820F4802008600846406820F4FE005F
:1016000048604FF41F008860FFF767FF4FF00060ED
:101610000449086010BD0000001002400000FFF8FF
:10162000FFFFF6FE08ED00E04FF0E020006920F03B
:1016300004004FF0E021086109200349086042F2EC
:101640002830024908607047180000201C00002064
:1016500000B587B001210420FFF7A4FE0121880313
:10166000FFF7A0FE4FF40070ADF8180003208DF8CE
:101670001A0018208DF81B0006A91E48FFF7EAFB88
:101680004FF48060ADF8180004208DF81B0006A907
:101690001848FFF7DFFB4FF4E13002900020ADF86F
:1016A0000C00ADF81000ADF80E000C20ADF81200E3
:1016B0000020ADF8140002A90F4800F0E3F8012162
:1016C0000D4800F076F825208DF8040000208DF8F4
:1016D000050002208DF8060001208DF8070001A802
:1016E000FFF71CFE012240F22551034800F0A4F848
:1016F00007B000BD000801400038014010B50446A5
:1017000000BF4021044800F060F80028F9D02146CD
:10171000014800F028F910BD0038014010B504461A
:1017200003E02078FFF7EAFF641C20780028F8D156
:1017300010BD000010B540F22551124800F052F8DB
:10174000F0B140F225510F4800F024F80D4800F0A8
:1017500005F9C4B20C4801680068401C0A4A1060D0
:101760000A4844540A2C0BD1002110460068801E00
:10177000064A115400200449086001200449086009
:1017800010BD00000038014090000020A40000209F
:101790009400002010B50022002340F66A14A142F4
:1017A00000D100BF0A1201249440A3B2DC4304809C
:1017B00010BD21B1828942F40052828104E0828905
:1017C0004DF6FF731A408281704702460020B1F542
:1017D000007F00D100BF13880B400BB1012000E057
:1017E0000020704770B50246002400230025002029
:1017F00040F66A16B14200D100BFC1F3421501F0B4
:101800001F03012606FA03F3012D02D19689334006
:1018100006E0022D02D1168A334001E0968A334059
:101820000C12012606FA04F41688344013B10CB1E8
:10183000012000E0002070BDF0B503460024002622
:101840000025002040F66A17B94200D100BF1846B3
:10185000C1F3421401F01F06012707FA06F5012C17
:1018600001D10C3004E0022C01D1103000E0143022
:101870001AB107682F43076002E00768AF430760AB
:10188000F0BD00002DE9F04786B005460E46002465
:10189000A24600BFA1460027B08900B100BF2F4675
:1018A0002C8A4CF6FF700440F08804432C82AC89EB
:1018B0004EF6F3100440B08831890843718908431B
:1018C0000443AC81AC8A4FF6FF400440B089044326
:1018D000AC8201A8FFF776FD1F48874202D1DDF8F0
:1018E00010A001E0DDF80CA0A88900F4004040B190
:1018F0000AEBCA0000EB0A1031684900B0FBF1F8AE
:1019000007E00AEBCA0000EB0A1031688900B0FB5F
:10191000F1F86420B8FBF0F004012009642101FB18
:101920001089A88900F4004040B1322000EBC900C2
:10193000B0FBF1F000F00700044308E0322000EBB8
:1019400009106421B0FBF1F000F00F0004432C817A
:1019500006B0BDE8F08700000038014001468888E5
:10196000C0F308007047C1F308028280704700BFCF
:10197000FEE700000FB4054B10B503A9044A029816
:1019800000F0DAF810BC5DF814FB00003123000809
:10199000A000002002E008C8121F08C1002AFAD1E6
:1019A00070477047002001E001C1121F002AFBD1DF
:1019B000704700002DE9FF5F82B00021DDE90430AF
:1019C000020DDDF840B0034318D044F61050A2F2E7
:1019D000FF3242431514119801281FD0A5EB0B00CC
:1019E000401C5FEA000A4FF000064E4FDFF83891C6
:1019F000B046504615D5CAF1000413E011980124F1
:101A00004AA3012801D16FEA0B010298119AC0E99B
:101A10000031C0E9024206B0BDE8F09FCBF1000002
:101A2000DFE704460021404A491842EB0450CDE963
:101A3000001012E0E00707D032463B4640464946D8
:101A4000FEF7A0FB8046894632463B4610461946C3
:101A5000FEF798FB06460F466410002CEAD1DDE93C
:101A60000401DDE90023BAF1000F06DAFEF78AFB74
:101A700042464B46FEF786FB05E0FEF7B3FD4246C5
:101A80004B46FEF7AFFD04460E460022284BFEF7FC
:101A900031FE03D84FF0FF30014607E00022254B0E
:101AA00020463146FEF7F7FCFEF70BFE102409E056
:101AB000002C0ADB0A220023FEF728FC039B3032AD
:101AC0001A55641E50EA0102F2D1641C039AC4F153
:101AD00011031444119A012A03D0012208430DD1A5
:101AE0000AE0084304D000204FF0110B119072E778
:101AF000A3EB0B056D1E0DE05B4504DD4FF000020E
:101B000005F1010504E003DA4FF00002A5F101053B
:101B1000002AECD002981199C0E90231C0E90045D1
:101B200079E70000000014400000F03F30000000A2
:101B30000000F0430000E03F2DE9FF4F95B09B46C9
:101B40008946064600250FE2252877D1002427463E
:101B5000F84A0121059400E0044316F8013F203BB8
:101B600001FA03F01042F7D130782A2811D06FF033
:101B70002F033078A0F13002092A16D8059A44F0D4
:101B8000020402EB820203EB42021044761C059031
:101B9000EFE759F8042B0592002A03DA504244F487
:101BA0000054059044F00204761C30782E2816D19B
:101BB00016F8010F44F004042A280DD06FF02F020C
:101BC0003078A0F13003092B09D807EB870302EB2B
:101BD0004303C718761CF3E759F8047B761C30786A
:101BE0006C280FD006DC4C2817D068280DD06A2846
:101BF00014D104E0742810D07A280FD10DE044F4F9
:101C000000140AE044F4801401E044F440147278B3
:101C1000824202D104F58014761C761C3078662846
:101C20000BD013DC582877D009DC002875D0452864
:101C3000F6D04628F4D047281AD19DE118E0632851
:101C400035D0642879D0652812D195E1702873D0F9
:101C500008DC6728F1D069286FD06E280DD06F2876
:101C600006D1B5E073282CD0752875D0782874D0AB
:101C70005A46179990476D1C75E1C4F3025002282B
:101C800009D003280DD0D9F8001004280DD00D601C
:101C900009F1040967E1D9F80010EA17C1E9005217
:101CA000F6E7D9F800100D80F2E70D70F0E719F8AB
:101CB000041B8DF8001000208DF80100EA46012079
:101CC00003E059F804AB4FF0FF3061074FF000011B
:101CD00002D40DE008F101018846B9420FDA8045CF
:101CE000F8DB1AF808100029F4D108E008F1010126
:101CF00088468142FADB1AF808100029F6D10598C7
:101D00005B46A0EB080721463846179A00F094FA84
:101D1000284400EB080507E04DE029E10DE01AF842
:101D2000010B5A4617999047B8F10108F7D25B4664
:101D300021463846179A13E142E00A220092C4F382
:101D400002524FF0000A022A08D059F804CB032AA5
:101D50004FEAEC710AD00DE029E02AE009F1070111
:101D600021F00702F2E802C1914609E00FFA8CFC6B
:101D70004FEAEC71042A03D14FFA8CFC4FEAEC7164
:101D8000002907DA0A460021DCF1000C61EB0201B0
:101D90002D2202E0220504D52B228DF804200122F9
:101DA00003E0E20701D02022F7E7904659E00A213C
:101DB00002E010220DE010214FF0000A00910BE02C
:101DC00010224FF0000A44F004040827009203E0B8
:101DD00008224FF0000A0092C4F30252022A05D0F2
:101DE00059F804CB0021032A08D009E009F10701C2
:101DF00021F00702F2E802C1914605E01FFA8CFCCF
:101E0000042A01D10CF0FF0C4FF00008220728D55E
:101E1000702806D0009B83F0100353EA0A0305D014
:101E20000EE040228DF80420012208E05CEA010265
:101E300006D030228DF804208DF80500022290464D
:101E4000009B83F0080353EA0A030AD15CEA01020B
:101E500001D1620705D530228DF804204FF001082A
:101E60007F1E582804D034A003900EA802900DE0E5
:101E700036A0F9E753466046009AFEF747FA8446D3
:101E80000398825C0298401E029002705CEA010096
:101E9000F0D1029806A9081A00F1200A600702D5BD
:101EA00024F4803400E00127574502DDA7EB0A0047
:101EB00000E0002000EB0A01009005984144401A20
:101EC0000590E00306D45B462146179A059800F07A
:101ED000B3F90544002706E001A85A46C05D1799EA
:101EE00090476D1C7F1C4745F6DBE0030CD55B4635
:101EF0002146179A059800F09FF9054404E0302028
:101F00005A46179990476D1C0099481E0090002969
:101F1000F5DC08E0029802995A460078491C0291C3
:101F2000179990476D1CBAF10001AAF1010AF1DC82
:101F300065E100000928010030313233343536378D
:101F40003839616263646566000000003031323305
:101F500034353637383941424344454600000000A5
:101F600000F058F90544761C307800287FF4ECAD79
:101F700019B02846BDE8F08F620700D4062709F1A2
:101F8000070222F0070CFCE80223E14603F00048B8
:101F90005FEA080C02D00FF2702C0DE05FEA045CDF
:101FA00002D50FF2682C07E05FEAC47C02D00FF282
:101FB000602C01E0AFF2700C4FF0FF3823F00043CB
:101FC000CDF850C065280CD006DC452809D046283D
:101FD0001DD047283DD13DE0662818D067287ED126
:101FE00038E00021112F01DB112000E0781CCDE941
:101FF000000106A90EA8FFF7DDFCDDE90F010E9A2E
:1020000003910021009207F1010A04914DE04FF085
:1020100000400097CDE9011006A90EA8FFF7CAFC01
:10202000DDE90F0203920E9B11990022DDF80CA04E
:102030000093049211B9791C00EB010AB7EB0A0076
:1020400004D4C0F1FF3007F1010A0490AAEB0700A5
:10205000019044E0012F00DA01270021112F01DD5A
:10206000112000E03846CDE9000106A90EA8FFF7CF
:10207000A1FCDDE90F010E9A039100210491009269
:10208000BA4621070CD40399514500DA8A46BAF1C1
:10209000010F05DD009AAAF10101515C302908D039
:1020A000B84202DA10F1040F06DA0121CDE901107D
:1020B00015E0AAF10101E9E7002805DC04990144D3
:1020C0000491AAEB000102E0411C514500DD8A4663
:1020D0000499401A401C01904FF0004002902007E4
:1020E00004D40198504501DBCDF8048000208DF820
:1020F0004F0002980DF14F07B0F1004F25D02B2073
:102100000E9002984FF0020800280CDA404202902C
:102110002D200E9007E00A210298FEF7E1F83031F9
:10212000029007F8011DB8F10001A8F10108F2DCE6
:1021300002980028EFD1791E0E980870307800F0D0
:10214000200040F0450007F8020D12A8C01B00F166
:1021500007081498007800B1012000EB0A010198EB
:1021600001EBE07105984144401A401E0590E003E0
:1021700006D45B462146179A059800F05DF80544A1
:102180001498007818B15A46179990476D1CE003CF
:1021900024D55B462146179A059800F04DF8054472
:1021A0001CE00498002807DBDDE90301884203DD19
:1021B0000098405C179901E0179930205A469047E3
:1021C000049805F10105401C04900198401E0190FF
:1021D00004D12E205A46179990476D1CBAF1000180
:1021E000AAF1010ADDDC05E017F8010B5A46179940
:1021F00090476D1CB8F10001A8F10108F4DC5B46C2
:102200002146179A0598ABE62D0000002B00000030
:10221000200000002DE9F041044600251E46174627
:10222000880404D405E039462020B0476D1C641EA4
:10223000F9D52846BDE8F0812DE9F0410446002596
:102240001E469046C80301D5302700E020278804A9
:1022500004D505E041463846B0476D1C641EF9D5EB
:102260002846BDE8F08100000146114A12684A4341
:102270004FF0E0235A6100229A611A46126942F037
:1022800001021A6100BF4FF0E022106900F0010264
:102290001AB100F48032002AF5D04FF0E022126922
:1022A00022F001024FF0E0231A6100229A61704788
:1022B0001C0000200146114A12684A434FF0E023F7
:1022C0005A6100229A611A46126942F001021A61AB
:1022D00000BF4FF0E022106900F001021AB100F4D3
:1022E0008032002AF5D04FF0E022126922F001027C
:1022F0004FF0E0231A6100229A6170471800002015
:1023000070B50546002400BF0BE0084850F83410B3
:102310002846FDF729FF18B9044800EBC40070BD3A
:10232000641C0A2CF1D30020F9E7000020000020F3
:1023300070B504460D4600BF40210548FFF745FA39
:102340000028F9D0E1B20248FFF70DFB204670BD2E
:10235000003801404FF4A060FFF718F8FEF742FB89
:1023600017E00C480068A0B10BA0FFF7D7F90F48A1
:10237000FFF7C6FF0E4908600846006818B10968F3
:102380004868804702E00BA0FFF7C8F90020014928
:102390000860E6E79400002072656365697665640D
:1023A00020636F6D6D616E643A000000A400002030
:1023B00000000020696E76616C696420636F6D6D4A
:1023C000616E640A00000000454550524F4D205296
:1023D00000000000454550524F4D20525300000070
:1023E000454550524F4D205753000000454550522F
:1023F0004F4D2057000000006C6564206F6666003A
:1024000062656570206F666600000000726F6D0087
:102410006C6564206F6E000062656570206F6E00F1
:1024200074656D7000000000482400080000002062
:10243000A400000094190008EC240008A400002067
:1024400004080000A41900080000000000000000BB
:102450000102030401020304060708090204060836
:102460000000000000000000102400086D120008A9
:10247000F82300085112000818240008CD090008AC
:1024800000240008B9090008C823000889080008CA
:10249000EC23000875090008D4230008450800084B
:1024A000E02300085509000820240008450C000816
:1024B0000C240008250B0008F11100088109000810
:1024C00029160008AD1100088D12000851160008E9
:1024D000AB070008B10A000800000000000000007F
:0C24E000000000000000000000000000F0
:0400000508000131BD
:00000001FF
