:020000040800F2
:10000000C8B70020DD01000871110008C90F000801
:100010006D110008D5080008971D000800000000B9
:100020000000000000000000000000004501000882
:100030005D0C000800000000890100087D14000824
:10004000F7010008F7010008F7010008F7010008B0
:10005000F7010008F7010008610C0008F70100082B
:10006000F7010008910C0008BD0C0008F70100081A
:10007000F1080008F701000811090008F70100085D
:10008000F7010008F7010008F7010008F701000870
:10009000F7010008F7010008F7010008F701000860
:1000A000F7010008F7010008F7010008F701000850
:1000B000F7010008F701000849150008F7010008DA
:1000C000F7010008F7010008F7010008F701000830
:1000D000F70100080D1A0008F7010008C11A00080E
:1000E000F7010008F7010008F7010008F701000810
:1000F000F7010008F7010008F7010008F701000800
:10010000F7010008F7010008F7010008F7010008EF
:10011000F7010008F7010008F7010008F7010008DF
:10012000F7010008F7010008F7010008F7010008CF
:10013000DFF80CD000F06AFB004800473D2D0008B6
:10014000C8B70020224B19680868B0E8F00F80F3A8
:100150000988BFF36F8F4FF0000080F311884EF0D5
:100160000D0E70470000000006480068006880F32C
:10017000088862B661B6BFF34F8FBFF36F8F00DFA1
:1001800000BF00BF08ED00E0EFF30980BFF36F8F01
:100190000F4B1A6820E9F00F106008B54FF05000BF
:1001A00080F31188BFF34F8FBFF36F8F03F086FB8F
:1001B0004FF0000080F31188BDE808401968086816
:1001C000B0E8F00F80F30988BFF36F8F704700BF6E
:1001D00080000020EFF3058070470000064880474C
:1001E00006480047FEE7FEE7FEE7FEE7FEE7FEE71C
:1001F000FEE7FEE7FEE7FEE7E9140008310100082C
:1002000040EA01039B0703D009E008C9121F08C098
:10021000042AFAD203E011F8013B00F8013B521E18
:10022000F9D27047D2B201E000F8012B491EFBD28F
:1002300070470022F6E710B513460A4604461946F1
:10024000FFF7F0FF204610BD30B505462A460B46A5
:1002500012F8010B13F8014B08B1A042F8D01CB101
:10026000002802D06D1CF1E7284630BD2DE9FE4F75
:1002700081EA030404F0004421F0004100944FF0AF
:10028000000B23F0004350EA01045ED052EA03045D
:100290005BD0C3F30A54C1F30A552C44A4F2F334DF
:1002A0000194A0FB0254C1F3130141F48011C3F384
:1002B000130343F4801301FB024400FB034E840A42
:1002C000970A44EA815447EA8357A4FB07680295DA
:1002D0008D0A05FB07854FEA932C04FB0C54270578
:1002E000029D4FEA065847EA1637B5EB08056EEB54
:1002F000070C870E920E47EA811742EA8312A7FB8A
:100300000201B6EB0B0164EB00042B0D43EA0C3346
:100310005E1844EB1C50DA465146E7FB0201C5F378
:1003200013044FEA0B3343EA14534FEA0432019C9F
:1003300043EA0603A4F10C040294009CCDE900B446
:1003400000F0CFF803B0BDE8F08F00200146F9E7D8
:100350000EB540F2334102910021CDE900110A4669
:100360000B4600F0BEF803B000BD00F0004230F0D4
:1003700000400AD0C10D01F56071C0F3160042EAD9
:100380000151C208400711437047002001467047E1
:1003900001F0004330B421F0004150EA010206D0E0
:1003A0000A0DA2F56072C1F31301002A02DC30BC11
:1003B00000207047440F44EAC104C100E01830BC7B
:1003C00000EBC25000F047B830B50B4601460020A4
:1003D0002022012409E021FA02F59D4205D303FA07
:1003E00002F5491B04FA02F52844151EA2F1010288
:1003F000F1DC30BD2DE9F05F0546002092469B46BA
:1004000088460646814640241BE02846414647462A
:10041000224600F01CFA53465A46C01A914110D3A6
:1004200011461846224600F003FA2D1A67EB010820
:100430004F4622460120002100F0FAF917EB00098F
:100440004E41201EA4F10104DFDC484631462A4615
:100450004346BDE8F09F0029A8BF7047401C4900F3
:1004600008BF20F00100704710B4B0FA80FC00FA19
:100470000CF050EA010404BF10BC704749B1CCF144
:10048000200421FA04F411FA0CF118BF01212143D0
:100490000843A3EB0C01CB1D4FEA00614FEA10208B
:1004A00042BF002010BC704700EBC350104400292D
:1004B000A4BF10BC7047401C490008BF20F00100D9
:1004C00010BC704710B5141E73F1000408DA401C0C
:1004D00041F1000192185B411A4301D120F0010063
:1004E00010BD2DE9F04D92469B4611B1B1FA81F253
:1004F00002E0B0FA80F22032904600F099F904460A
:100500000F4640EA0A0041EA0B0153465A460843A7
:1005100013D0114653EA010019D0C8F140025046E9
:1005200000F095F905460E4650465946424600F001
:100530007FF9084305D0012004E020463946BDE894
:10054000F08D0020054346EAE0762C4337430A98B5
:100550006305E40AA0EB08000022FD0A44EA4754C0
:100560000A3002D500200146E9E70105101969416A
:10057000DDE9084500196941BDE8F04DA2E72DE924
:10058000FE4F804681EA0300C00F0C46009021F028
:10059000004123F00045B8EB0200A94105D24046D6
:1005A000214690461C460B46024623F0004010436D
:1005B00047D0270DC7F30A00C3F30A510290401A2F
:1005C000019040286BDAC3F3130040F4801B0098BD
:1005D000924620B10023D2EB030A63EB0B0B019888
:1005E0005946C0F14002504600F022F906460D4639
:1005F00050465946019A00F03AF910EB0800614163
:10060000002487EA115284EAE7731A4340D0009A23
:1006100062B3019A012A4FEA075215DC001B61EB15
:1006200002014FF0004202EA0752CDE90042001CED
:1006300041F5801132462B46FFF753FF03B0BDE86A
:10064000F08F40462146F9E7001B61EB0201001CD8
:1006500041F5801300185B412018A2F5001747EB05
:10066000030140EAD570B6196D4111E06D084FEAFB
:10067000360645EAC0754FEA0752001B61EB0201DE
:10068000001C41F5801149084FEA30000019514122
:1006900032462B4603B0BDE8F04FFFF713BF00987A
:1006A000012240000023D0EB020263EBE0730098CC
:1006B00021464FEAE074B8EB000061EB0401E9E782
:1006C00083F000435BE781F0004158E72DE9F04DEE
:1006D00081EA030404F0004B21F0004514464FF07A
:1006E000000A23F0004150EA050220D054EA01023A
:1006F0001DD0C5F30A570246C5F31303C1F3130017
:10070000C1F30A5640F4801543F48013A7EB0608A2
:10071000101BD64608F2FD3873EB050002D308F132
:10072000010801E092185B41B8F1000F03DA0020E4
:100730000146BDE8F08D00204FF480110646844646
:100740000EE0171B73EB050705D3121B63EB0503C4
:1007500006434CEA010C49084FEA300092185B410D
:1007600050EA0107EDD152EA030012D082EA0400F8
:1007700083EA0501084305D0101BAB4106D20122D4
:10078000002306E000224FF0004302E06FF0010278
:1007900053101AEB06004CEB085110EB0A0041EB2A
:1007A0000B01BDE8F04DFFF78DBEC1F30A52C1F356
:1007B000130140F2FF3341F480119A4202DA002023
:1007C0000146704740F233439A42A2F2334202DCC0
:1007D000524200F03CB800F02BB8000030B5041EC7
:1007E00071F1000404DB4FF00044404264EB01016E
:1007F000141E73F1000405DB1C464FF00043524207
:1008000063EB0403994208BF904230BD064C074D8C
:1008100006E0E06840F0010394E8070098471034D0
:10082000AC42F6D3FFF788FC443D0008643D000865
:10083000202A04DB203A00FA02F1002070479140A0
:10084000C2F1200320FA03F3194390407047202A95
:1008500004DB203A21FA02F00021704721FA02F36A
:10086000D040C2F120029140084319467047202A27
:1008700006DBCB17203A41FA02F043EAE07306E0C8
:1008800041FA02F3D040C2F12002914008431946D8
:10089000704710B500F09AFB10BD000008B50121AB
:1008A000082000F0D9FC4FF48070ADF80000102053
:1008B0008DF8030003208DF802006946044800F01B
:1008C000ABFA4FF48071024800F07AFB08BD0000DB
:1008D000000C014000BFFEE710B5044C02E02068A8
:1008E0008047241D20680028F9D110BD2C0000206D
:1008F00010B5202000F040F830B1202000F01EF8A4
:100900000021024800F028F810BD00001C00024041
:1009100010B54FF4005000F02FF850B14FF40050D4
:1009200000F00CF80021034800F016F801200249FD
:10093000087010BD440002407400002000F0805197
:1009400011B10349086001E00249486070470000A6
:10095000040402400000024021B1026842F001029A
:10096000026004E002684FF6FE731A4002607047AE
:100970000146486880B2704701460020002201F01D
:10098000805313B1054B1A6801E0054B1A6802EA5F
:1009900001030BB1012000E0002070470004024079
:1009A000000002401AB103680B43036002E00368D1
:1009B0008B430360704710B50022026847F6F0735E
:1009C0009A430C6A8B6823430C6923434C69234385
:1009D0008C692343CC6923434C6A23438C6A2343A9
:1009E0001A430260CB6843600B6883604B68C36046
:1009F00010BD4160704700002DE9F05F0024A14662
:100A0000A246A34600F0B4F8CC2000F0F9F8442048
:100A100000F0F6F800F0ACF8CC2000F0F1F8BE20C1
:100A200000F0EEF800F080F8814600F07DF8824694
:100A300049EA0A2404F47840B0F5784F0FD1E04336
:100A4000401C84B22046FFF783FC074600220B4B74
:100A5000FFF70CFC0546FFF79BFC83460BE02046A6
:100A6000FFF776FC07460022054BFFF7FFFB054624
:100A7000FFF78EFC83465846BDE8F09F0000B0BFEC
:100A80000000B03F08B51020ADF8000048208DF8F8
:100A900003006946014800F0BFF908BD000C0140A1
:100AA00008B51020ADF800008DF8030003208DF884
:100AB00002006946014800F0AFF908BD000C014092
:100AC00008B50121082000F0C7FB1020ADF8000098
:100AD0008DF8030003208DF802006946014800F0FC
:100AE0009BF908BD000C014010B500F041F833201F
:100AF00000F086F8002409E000F016F806490855D1
:100B00000846015D05A001F033FC641C082CF3DBF2
:100B100004A001F02DFC10BD6500002025237820E5
:100B2000000000000A00000070B50025002417E056
:100B3000FFF7B6FF00200C490860022002F0C8F859
:100B4000FFF7A0FF082002F0C3F8084890F8100152
:100B5000A0402843C5B2322002F0BAF8601CC4B2EB
:100B6000082CE5DB284670BD90812142008021429F
:100B700010B5FFF795FF0020154908604FF4FA7093
:100B800002F0A6F801201349C1F890011E2002F0DE
:100B90009FF80024FFF776FF04E0601CC4B2012038
:100BA00002F096F80A488038006808B1F02CF4DBAF
:100BB000F02C03DB08A001F0DBFB03E00AA001F04E
:100BC000D7FB00244FF4FA7002F082F810BD000049
:100BD00090812142008021425265736574206661D4
:100BE000696C65642E0A0000526573657420537544
:100BF000636365737366756C6C79210A000000008D
:100C000070B50446FFF74CFF002520E004F001001A
:100C100068B100200F490860022002F059F8012055
:100C20000D49C1F890013C2002F052F80CE0002080
:100C3000084908603C2002F04BF801200649C1F841
:100C40009001022002F044F86410681CC5B2082D1F
:100C5000DCDB70BD908121420080214270470000A2
:100C600010B5012000F05AF8012808D10A2002F03E
:100C70000FF805480068012801D1044908600120E7
:100C800000F046F810BD000000012142940123420B
:100C900010B5082000F042F8012809D10A2001F01F
:100CA000F7FF0548006818B900200349883108603B
:100CB000082000F02DF810BD0C01234210B51020C3
:100CC00000F02CF8012818D10A2001F0E1FF0D48AE
:100CD000006890B90B488430006808B9012000E032
:100CE00000200849843108600748D0F8A00108B9FD
:100CF000012000E0002005490860102000F008F8FD
:100D000010BD00001001234200802142A081214239
:100D100001490860704700001404014001460020AA
:100D20000022074B1B6803EA0102054B14331B68C2
:100D30000B4013B10AB1012000E000207047000011
:100D400000040140002123498279002A3AD00A4652
:100D5000126803689A430B461A600A1D12680368FA
:100D60009A430B1D1A60027911440A6803681A43FA
:100D70000A60184A0832126803689A43154B083310
:100D80001A601A1D126803689A43124B0C331A60DA
:100D90004279102A0ED11A1F126803681A430D4BAC
:100DA00008331A601A1D126803681A43094B0C3382
:100DB0001A600DE00749427911440A6803681A4332
:100DC0000A6005E0027911440A6803689A430A60E0
:100DD000704700000004014030B500228B071C0F53
:100DE0000F2303FA04F20B4B8C1053F82430934377
:100DF000084C8D1044F8253023468C1053F82430CD
:100E00008C07240F00FA04F42343024C8D1044F89D
:100E1000253030BD080001402DE9F0410246002593
:100E20000026002000230024002791F803C00CF0C6
:100E30000F0591F803C00CF0100CBCF1000F03D0AB
:100E400091F802C04CEA050591F800C0BCF1000F12
:100E500031D0146800202BE04FF0010C0CFA00F3A5
:100E6000B1F800C00CEA03069E4220D183004FF087
:100E70000F0C0CFA03F7BC4305FA03FC4CEA04041C
:100E800091F803C0BCF1280F06D14FF0010C0CFA09
:100E900000FCC2F814C00AE091F803C0BCF1480F8E
:100EA00005D14FF0010C0CFA00FCC2F810C0401C38
:100EB0000828D1D31460B1F800C0BCF1FF0F34DDB5
:100EC000546800202EE000F1080C4FF0010808FAE9
:100ED0000CF3B1F800C00CEA03069E4221D1830056
:100EE0004FF00F0C0CFA03F7BC4305FA03FC4CEA75
:100EF000040491F803C0BCF1280F05D100F1080CDF
:100F000008FA0CF8C2F8148091F803C0BCF1480F3D
:100F100007D100F1080C4FF0010808FA0CF8C2F8EC
:100F20001080401C0828CED35460BDE8F08100003A
:100F3000F0B50A46002300240021002500F00046F9
:100F4000B6F1004F02D11D4EF16901E01B4E7168F0
:100F5000C0F3034583B200F44016B6F5401F08D134
:100F600021F07061154E766826F07066134F7E6032
:100F700012E000F48016B6F5801F06D1032606FAAB
:100F800005F4A14341F0706106E0460D360103FA15
:100F900006F6B14341F0706122B1460D360103FA05
:100FA00006F6314300F00046B6F1004F02D1034E81
:100FB000F16101E0014E7160F0BD000000000140F0
:100FC000416170470161704700BFFEE708B501212C
:100FD000082000F041F94020ADF8000003208DF812
:100FE000020010208DF8030069460B48FFF714FF3C
:100FF0008020ADF8000003208DF8020010208DF84D
:10100000030069460448FFF707FF01200349086011
:101010000349C1F89C0108BD000C014098812142A0
:101020000080214208B50121442000F015F9182064
:10103000ADF8000048208DF8030069460648FFF728
:10104000EBFE0120ADF8000028208DF80300694672
:101050000248FFF7E1FE08BD00180140000801400A
:1010600008B50121482000F0F7F82020ADF8000075
:1010700010208DF8030003208DF8020069460C480B
:10108000FFF7CAFE2020ADF8000010208DF8030005
:1010900003208DF8020069460648FFF7BDFE2021B7
:1010A0000348FFF78FFF20210248FFF78BFF08BDA1
:1010B000000C0140001801400EB50121084600F067
:1010C000CBF804210846FFF787FE03210420FFF731
:1010D00083FE00210846FFF77FFE182001900020C4
:1010E0008DF808000C208DF8090001208DF80A0009
:1010F00001A8FFF727FE0120019000208DF80800CD
:1011000008208DF8090001208DF80A0001A8FFF7DA
:1011100019FE0A208DF8000002208DF80100002041
:101120008DF8020001208DF80300684600F022F8D7
:1011300009208DF8000002208DF8010001208DF8B3
:1011400002008DF80300684600F014F806208DF8C0
:10115000000002208DF8010003208DF8020001201C
:101160008DF80300684600F005F80EBD00BFFEE7ED
:101170007047000070B5002100230F22C47804B32B
:10118000154C246804F4E064C4F5E064210AC1F15C
:101190000403CA40447804FA03F1847814402143DC
:1011A00009010E4C0678A155047804F01F050124AE
:1011B000AC4005786D11AD0005F1E025C5F80041A2
:1011C00009E0047804F01F050124AC40044D0678C2
:1011D000761145F8264070BD0CED00E000E400E01B
:1011E00080E100E002490143024A116070470000BB
:1011F0000000FA050CED00E029B1064A52690243ED
:10120000044B5A6104E0034A52698243014B5A611C
:10121000704700000010024029B1064AD26902431B
:10122000044BDA6104E0034AD2698243014BDA617C
:10123000704700000010024029B1064A12690243BB
:10124000044B1A6104E0034A12698243014B1A619C
:10125000704700000010024029B1064A926902431B
:10126000044B9A6104E0034A92698243014B9A61FC
:10127000704700000010024029B1064AD2680243BC
:10128000044BDA6004E0034AD2688243014BDA601F
:10129000704700000010024030B5002100220024F9
:1012A00000232D4D6D6805F00C0121B1042905D0F6
:1012B000082923D105E0294D056022E0274D05606E
:1012C0001FE0254D6D6805F47012234D6D6805F41F
:1012D0008034022505EB92421CB9214D554305602F
:1012E0000BE01D4D6D6805F400351DB11C4D5543D7
:1012F000056002E0194D5543056002E0174D056099
:1013000000BF00BF144D6D6805F0F0010909154DCF
:101310006B5C0568DD4045600F4D6D6805F4E0616C
:10132000090A104D6B5C4568DD4085600A4D6D68AB
:1013300005F46051C90A0B4D6B5C4568DD40C56022
:10134000054D6D6805F44041890B074D6B5CC56820
:10135000B5FBF3F5056130BD0010024000127A00C4
:1013600000093D00000000201000002010B500F032
:1013700001F810BD0CB500200190009033480068C2
:1013800040F480303149086000BF3048006800F404
:10139000003000900198401C0190009818B9019805
:1013A000B0F5A06FF1D12948006800F4003010B109
:1013B0000120009001E0002000900098012843D116
:1013C0002348006840F01000214908600846006882
:1013D00020F0030008600846006840F00200086042
:1013E0001A484068194948600846406848600846FD
:1013F000406840F4806048600846406820F47C10F3
:1014000048600846406840F4E810486008460068B4
:1014100040F08070086000BF0C48006800F0007069
:101420000028F9D00948406820F0030007494860C7
:101430000846406840F00200486000BF034840682A
:1014400000F00C000828F9D10CBD0000001002408B
:1014500000200240042808D14FF0E021096941F042
:1014600004014FF0E022116107E04FF0E02109692B
:1014700021F004014FF0E0221161704710B502F035
:101480000DFB012801D002F0BFFA10BD10B50420F9
:10149000FFF7E0FF104800681049B0FBF1F0104979
:1014A00008700D4800680D49B0FBF1F44FF47A70F4
:1014B000444301200B4908804FF0E020006940F0D0
:1014C00002004FF0E021086108464461006940F0E5
:1014D0000100086110BD00001400002040420F0010
:1014E000280000202A00002010B51348006840F0B2
:1014F00001001149086008464068104908400E493B
:101500004860084600680E4908400B4908600846D4
:10151000006820F4802008600846406820F4FE003F
:1015200048604FF41F008860FFF720FF4FF0006015
:101530000449086010BD0000001002400000FFF8E0
:10154000FFFFF6FE08ED00E010B50121044800F0B1
:101550003EF818B10121024800F036F810BD000035
:10156000000800401FB501210420FFF755FE41F29D
:101570008730ADF8080043F63F00ADF804000020C6
:10158000ADF80A00ADF8060001A90E4800F03AF8DF
:1015900001210C4800F018F801221146094800F01A
:1015A00027F81E208DF8000002208DF8010003208E
:1015B0008DF8020001208DF803006846FFF7DAFD80
:1015C0001FBD000000080040CA430282704730B5CA
:1015D0000246002000230024158A05EA01039589AC
:1015E00005EA010413B10CB1012000E0002030BD78
:1015F0001AB183890B43838102E083898B43838102
:1016000070470000002202881D4B98420ED01D4BEF
:1016100098420BD0B0F1804F08D01B4B984205D0B8
:101620001A4B984202D01A4B984204D14FF68F734E
:101630001A404B881A43174B984207D0164B9842D2
:1016400004D04FF6FF431A40CB881A4302808B88A0
:1016500083850B8803850A4B98420BD0094B98422F
:1016600008D00E4B984205D00D4B984202D00D4B3E
:10167000984201D10B7A03860123838270470000D0
:10168000002C0140003401400004004000080040EC
:10169000000C0040001000400014004000400140D9
:1016A000004401400048014000B58DB001210846CA
:1016B000FFF7A2FD264802902648039010200490D0
:1016C00000020590002006908020079000200890DE
:1016D00009900A904FF480500B9000200C9002A9C2
:1016E0001D48FFF768F9012202211B48FFF75AF94C
:1016F0000E208DF8040000208DF805008DF80600FE
:1017000001208DF8070001A8FFF734FD1048029072
:1017100012480390002004904FF480600590002050
:101720000690802007900020089009900A904FF4BE
:1017300000500B9000200C9002A907481430FFF7CE
:101740003AF9012104481430FFF706F90DB000BD45
:1017500004380140E404002044000240E414002066
:1017600000B58DB001210846FFF746FD26480290DE
:1017700026480390102004908001059000200690D8
:10178000802007900020089009900A904FF4805024
:101790000B9000200C9002A91D48FFF70CF91A4885
:1017A00002901C480390002004904FF48060059044
:1017B00000200690802007900020089009900A9051
:1017C0004FF400500B9000200C9002A910481430E8
:1017D000FFF7F1F801210E481430FFF7BDF80122A0
:1017E00002210B48FFF7DEF80C208DF804000020E2
:1017F0008DF805008DF8060001208DF8070001A87E
:10180000FFF7B8FC0DB000BD04480040E41C002008
:101810001C000240E418002000B587B02E4800F0FC
:101820009BF901210820FFF717FD01218804FFF72C
:10183000F3FC4FF48060ADF8180018208DF81B0001
:1018400003208DF81A0006A92448FFF7E5FA4FF4A3
:101850000060ADF8180004208DF81B0006A91F4891
:10186000FFF7DAFA4FF4E13002900020ADF80C00F7
:10187000ADF80E00ADF81000ADF814000C20ADF876
:10188000120002A9144800F011FA0121124800F0D8
:101890004EF9012240F224410F4800F0E2F92720DE
:1018A0008DF8040000208DF805008DF80600012059
:1018B0008DF8070001A8FFF75DFC01228021064892
:1018C00000F041F901224021034800F03CF9FFF704
:1018D00047FF07B000BD000000480040000C014079
:1018E0000FB408B503A800900B48009A029900F0C5
:1018F0004FFD0020009000210848FFF72DF84FF41D
:1019000080610648FFF775F801210448FFF724F8C5
:1019100001B05DF814FB0000E41C00201C00024034
:1019200070B504460D4600210748FFF715F8064834
:101930001C388462A9B20448FFF75BF80121024811
:10194000FFF70AF870BD00001C00024000B587B028
:1019500001210420FFF780FC01218803FFF77CFCB4
:101960004FF40070ADF8180018208DF81B0003200C
:101970008DF81A0006A92348FFF74EFA4FF480604D
:10198000ADF8180004208DF81B0006A91D48FFF7CC
:1019900043FA4FF4E13002900020ADF80C00ADF8AE
:1019A0000E00ADF81000ADF814000C20ADF81200D8
:1019B00002A9154800F07AF90121134800F0B7F8A0
:1019C00025208DF8040002208DF8050003208DF8F5
:1019D000060001208DF8070001A8FFF7CBFB0122CC
:1019E00040F22441084800F03CF9012280210648D9
:1019F00000F0A9F801224021034800F0A4F807B044
:101A000000BD0000000801400038014010B540F260
:101A10002551244800F0FBF8F0B140F2255121484F
:101A200000F076F81F4800F0ADF9C4B21E48016816
:101A30000068401C1C4A10601C4844540A2C0BD1FE
:101A4000002110460068801E184A115400201649D3
:101A5000086001201649087040F22441114800F046
:101A6000D6F8E8B10F4800880E48001D00881148DC
:101A7000FEF77EFFC0F580600F49086000210E4828
:101A80000068801E0D4A11540A48FEF765FF4FF4A6
:101A900080610848FEF7ADFF01210648FEF75CFFB4
:101AA00010BD00000038014060000020E40000206C
:101AB000640000205800024078000020E414002058
:101AC00010B540F224410F4800F0A1F8C0B10D4814
:101AD00000880C48001D00880B48FEF749FFC0F540
:101AE00080600A49086000210748FEF735FF4FF47F
:101AF000806005493039486301210348FEF72CFF17
:101B000010BD000000480040300002407C00002072
:101B100010B50022002340F66A14A14200D100BF94
:101B20000A1201249440A3B2DC43048010BD21B109
:101B3000828942F40052828104E082894DF6FF736B
:101B40001A40828170471AB1838A0B43838202E074
:101B5000838A8B438382704710B5044620488442B1
:101B600009D101218803FFF787FB00214FF4804052
:101B7000FFF782FB32E01B48844209D1012148046F
:101B8000FFF75AFB00214FF40030FFF755FB25E02B
:101B90001548844209D101218804FFF74DFB00213B
:101BA0004FF48020FFF748FB18E01048844209D129
:101BB0000121C804FFF740FB00214FF40020FFF78C
:101BC0003BFB0BE00A48844208D101210805FFF7DE
:101BD00033FB00214FF48010FFF72EFB10BD0000F7
:101BE000003801400044004000480040004C0040E4
:101BF0000050004002460020B1F5007F00D100BF38
:101C000013880B400BB1012000E00020704770B535
:101C10000246002400230025002040F66A16B14247
:101C200000D100BFC1F3421501F01F03012606FADF
:101C300003F3012D02D19689334006E0022D02D133
:101C4000168A334001E0968A33400C12012606FAC8
:101C500004F41688344013B10CB1012000E00020D8
:101C600070BDF0B50346002400260025002040F694
:101C70006A17B94200D100BF1846C1F3421401F0FF
:101C80001F06012707FA06F5012C01D10C3004E0EC
:101C9000022C01D1103000E014301AB107682F4334
:101CA000076002E00768AF430760F0BD2DE9F04729
:101CB00086B005460E460024A24600BFA146002776
:101CC000B08900B100BF2F462C8A4CF6FF7004404B
:101CD000F08804432C82AC894EF6F3100440B0889F
:101CE00031890843718908430443AC81AC8A4FF6BB
:101CF000FF400440B0890443AC8201A8FFF7CCFA4E
:101D00001F48874202D1DDF810A001E0DDF80CA0E9
:101D1000A88900F4004040B10AEBCA0000EB0A10A9
:101D200031684900B0FBF1F807E00AEBCA0000EBAC
:101D30000A1031688900B0FBF1F86420B8FBF0F0BC
:101D400004012009642101FB1089A88900F40040E6
:101D500040B1322000EBC900B0FBF1F000F0070009
:101D6000044308E0322000EB09106421B0FBF1F0DD
:101D700000F00F0004432C8106B0BDE8F08700009E
:101D80000038014001468888C0F308007047C1F35D
:101D900008028280704700BFFEE710B500F004F82B
:101DA00008B1FFF7FAFF10BD10B5322000F048FA75
:101DB00020B12FA000F0DCFA012010BD36A000F009
:101DC000D7FA32213BA000F099FA20B13CA000F0F4
:101DD000CFFA0220F1E741A000F0CAFA322147A071
:101DE00000F08CFA20B149A000F0C2FA0320E4E729
:101DF0004EA000F0BDFA1E2000F0D2F920B154A090
:101E000000F0B6FA0420D8E757A000F0B1FA4FF47A
:101E10007A7000F03DFF4FF47A7000F039FF322104
:101E200059A000F06BFA20B15BA000F0A1FA0520E8
:101E3000C3E760A000F09CFA322166A000F05EFAD1
:101E400020B167A000F094FA0620B6E76BA000F07E
:101E50008FFA0A2000F000F920B171A000F088FA92
:101E60000720AAE774A000F083FA0020A5E700008D
:101E700057494649205265736574204661696C650F
:101E8000642C20506C656173652054727920416721
:101E900061696E0D0A00000057494649205265737A
:101EA0006574205375636365737366756C6C792113
:101EB0000D0A000041542B43574D4F44453D31001E
:101EC000536574205749464920535441204D6F644F
:101ED00065204661696C65640D0A000053657420D5
:101EE000535441204D6F646520537563636573736C
:101EF00066756C6C79210D0A0000000041542B437B
:101F0000574155544F434F4E4E3D300043616E6331
:101F1000656C204175746F20436F6E6E656374202D
:101F20004661696C65640D0A0000000043616E63E0
:101F3000656C204175746F20436F6E6E656374200D
:101F40005375636365737366756C6C79210D0A0054
:101F5000436F6E6E65637420726F75746572204690
:101F600061696C640D0A0000436F6E6E65637420D6
:101F7000526F75746572205375636365737366750C
:101F80006C6C79210D0A000041542B4349504D4F90
:101F900044453D310000000053657420446972657A
:101FA0006374204D6F6465204661696C65640D0A39
:101FB0000000000053657420446972656374204D0D
:101FC0006F6465205375636365737366756C6C79B4
:101FD000210D0A0041542B4349504D55583D3000C6
:101FE0005365742053696E676C65204D6F6465207E
:101FF0004661696C65642E0D0A000000536574200B
:1020000053696E676C65204D6F646520537573630B
:102010006365737366756C6C79210D0A00000000AE
:10202000436F6E6E656374205365727665722046E9
:1020300061696C65640D0A00436F6E6E65637420A0
:102040005365727665722053756363657373667545
:102050006C6C79210D0A000010B5044600202A4955
:1020600008604FF480612948FEF7E3F841F690726A
:1020700027A12BA0FFF734FC0CE0642000F008FE41
:102080002EA12248FEF7E0F800B107E021462DA07E
:1020900000F06EF9201EA4F10104EED100BF2AA0C9
:1020A00000F066F9002C01DC012010BD27A000F033
:1020B0005FF90020144908604FF480611348FEF76F
:1020C000B8F82EA0FFF70CFC10E0642000F0E0FD53
:1020D0000E492EA000F04CF92EA10C48FEF7B4F8E2
:1020E00000B107E0214617A000F042F9201EA4F13C
:1020F0000104EAD100BF14A000F03AF9002C01DC81
:102100000220D2E70020D0E77C000020E418002065
:1021100031302E3131372E3231322E313035000010
:1021200041542B43495053544152543D225443503F
:10213000222C222573222C25640D0A00434F4E4E7B
:1021400045435400256420000D0A0000436F6E6E65
:102150006563742053657276657220537563636599
:10216000737366756C6C792C205374617274207370
:10217000656E6420646174610D0A000041542B4354
:10218000495053454E440D0A0000000025730D0AC6
:10219000000000000D0A4F4B0D0A0D0A3E00000022
:1021A00010B504460020144908604FF480611348BC
:1021B000FEF73FF812A215A116A0FFF791FB0DE064
:1021C0004FF47A7000F064FD18A10C48FEF73CF85B
:1021D00000B107E0214618A000F0CAF8201EA4F1C3
:1021E0000104EDD100BF15A000F0C2F8002C01DC05
:1021F000012010BD0020FCE77C000020E418002036
:10220000373239383331686800000000434D4343AA
:102210000000000041542B43574A41503D22257392
:10222000222C222573220D0A00000000574946493E
:1022300020474F5420495000256420000D0A00001B
:1022400010B504460020134908604FF4FA7000F0FE
:102250001FFD01201049C1F8BC010CE0642000F012
:1022600017FD0EA10F48FDF7EFFF00B107E0214673
:102270000DA000F07DF8201EA4F10104EED100BFF6
:102280000AA000F075F8002C01DC012010BD002030
:10229000FCE70000BC01214200002142726561643C
:1022A00079000000E4180020256420000D0A0000D9
:1022B00008B501210420FEF7CFFF01210846FEF7F3
:1022C000CBFF01210A48FEF733FE4FF40040ADF882
:1022D000000003208DF8020010208DF803006946ED
:1022E0000448FEF799FD01200349086008BD00007D
:1022F0000002300000080140BC01214270B50546D3
:102300000C460020134908604FF480611248FDF725
:1023100090FF294611A0FFF7E3FA0CE0642000F0DB
:10232000B7FC10A10C48FDF78FFF00B107E0214674
:102330000DA000F01DF8201EA4F10104EED100BF95
:102340000AA000F015F8002C01DC012070BD00206F
:10235000FCE700007C000020E418002025730D0A33
:10236000000000004F4B0000256420000D0A000013
:102370000FB4054B10B503A9044A029800F0ECF81D
:1023800010BC5DF814FB0000192D0008E0000020CF
:1023900037B514460846064B6A46214600F0DCF87D
:1023A00004466946002000F06EFC20463EBD000059
:1023B000872C000802E008C8121F08C1002AFAD1C1
:1023C00070477047002001E001C1121F002AFBD1B5
:1023D000704700002DE9FF5F82B00021DDE9043085
:1023E000020DDDF840B0034318D044F61050A2F2BD
:1023F000FF3242431514119801281FD0A5EB0B00A2
:10240000401C5FEA000A4FF000064E4FDFF838919B
:10241000B046504615D5CAF1000413E011980124C6
:102420004AA3012801D16FEA0B010298119AC0E971
:102430000031C0E9024206B0BDE8F09FCBF10000D8
:10244000DFE704460021404A491842EB0450CDE939
:10245000001012E0E00707D032463B4640464946AE
:10246000FDF704FF8046894632463B461046194632
:10247000FDF7FCFE06460F466410002CEAD1DDE9AC
:102480000401DDE90023BAF1000F06DAFDF7EEFEE4
:1024900042464B46FDF7EAFE05E0FEF717F94246D5
:1024A0004B46FEF713F904460E460022284BFEF772
:1024B00095F903D84FF0FF30014607E00022254B85
:1024C00020463146FEF75BF8FEF76FF9102409E06D
:1024D000002C0ADB0A220023FDF78CFF039B30321D
:1024E0001A55641E50EA0102F2D1641C039AC4F129
:1024F00011031444119A012A03D0012208430DD17B
:102500000AE0084304D000204FF0110B119072E74D
:10251000A3EB0B056D1E0DE05B4504DD4FF00002E3
:1025200005F1010504E003DA4FF00002A5F1010511
:10253000002AECD002981199C0E90231C0E90045A7
:1025400079E70000000014400000F03F3000000078
:102550000000F0430000E03F2DE9FF4F95B09B469F
:102560008946064600250FE2252877D10024274614
:10257000F84A0121059400E0044316F8013F203B8E
:1025800001FA03F01042F7D130782A2811D06FF009
:102590002F033078A0F13002092A16D8059A44F0AA
:1025A000020402EB820203EB42021044761C059007
:1025B000EFE759F8042B0592002A03DA504244F45D
:1025C0000054059044F00204761C30782E2816D171
:1025D00016F8010F44F004042A280DD06FF02F02E2
:1025E0003078A0F13003092B09D807EB870302EB01
:1025F0004303C718761CF3E759F8047B761C307840
:102600006C280FD006DC4C2817D068280DD06A281B
:1026100014D104E0742810D07A280FD10DE044F4CE
:1026200000140AE044F4801401E044F44014727889
:10263000824202D104F58014761C761C307866281C
:102640000BD013DC582877D009DC002875D045283A
:10265000F6D04628F4D047281AD19DE118E0632827
:1026600035D0642879D0652812D195E1702873D0CF
:1026700008DC6728F1D069286FD06E280DD06F284C
:1026800006D1B5E073282CD0752875D0782874D081
:102690005A46179990476D1C75E1C4F30250022801
:1026A00009D003280DD0D9F8001004280DD00D60F2
:1026B00009F1040967E1D9F80010EA17C1E90052ED
:1026C000F6E7D9F800100D80F2E70D70F0E719F881
:1026D000041B8DF8001000208DF80100EA4601204F
:1026E00003E059F804AB4FF0FF3061074FF00001F1
:1026F00002D40DE008F101018846B9420FDA8045A5
:10270000F8DB1AF808100029F4D108E008F10101FB
:1027100088468142FADB1AF808100029F6D105989C
:102720005B46A0EB080721463846179A00F094FA5A
:10273000284400EB080507E04DE029E10DE01AF818
:10274000010B5A4617999047B8F10108F7D25B463A
:1027500021463846179A13E142E00A220092C4F358
:1027600002524FF0000A022A08D059F804CB032A7B
:102770004FEAEC710AD00DE029E02AE009F10701E7
:1027800021F00702F2E802C1914609E00FFA8CFC41
:102790004FEAEC71042A03D14FFA8CFC4FEAEC713A
:1027A000002907DA0A460021DCF1000C61EB020186
:1027B0002D2202E0220504D52B228DF804200122CF
:1027C00003E0E20701D02022F7E7904659E00A2112
:1027D00002E010220DE010214FF0000A00910BE002
:1027E00010224FF0000A44F004040827009203E08E
:1027F00008224FF0000A0092C4F30252022A05D0C8
:1028000059F804CB0021032A08D009E009F1070197
:1028100021F00702F2E802C1914605E01FFA8CFCA4
:10282000042A01D10CF0FF0C4FF00008220728D534
:10283000702806D0009B83F0100353EA0A0305D0EA
:102840000EE040228DF80420012208E05CEA01023B
:1028500006D030228DF804208DF805000222904623
:10286000009B83F0080353EA0A030AD15CEA0102E1
:1028700001D1620705D530228DF804204FF0010800
:102880007F1E582804D034A003900EA802900DE0BB
:1028900036A0F9E753466046009AFDF7ABFD844643
:1028A0000398825C0298401E029002705CEA01006C
:1028B000F0D1029806A9081A00F1200A600702D593
:1028C00024F4803400E00127574502DDA7EB0A001D
:1028D00000E0002000EB0A01009005984144401AF6
:1028E0000590E00306D45B462146179A059800F050
:1028F000B3F90544002706E001A85A46C05D1799C0
:1029000090476D1C7F1C4745F6DBE0030CD55B460A
:102910002146179A059800F09FF9054404E03020FD
:102920005A46179990476D1C0099481E009000293F
:10293000F5DC08E0029802995A460078491C029199
:10294000179990476D1CBAF10001AAF1010AF1DC58
:1029500065E1000009280100303132333435363763
:1029600038396162636465660000000030313233DB
:10297000343536373839414243444546000000007B
:1029800000F058F90544761C307800287FF4ECAD4F
:1029900019B02846BDE8F08F620700D4062709F178
:1029A000070222F0070CFCE80223E14603F000488E
:1029B0005FEA080C02D00FF2702C0DE05FEA045CB5
:1029C00002D50FF2682C07E05FEAC47C02D00FF258
:1029D000602C01E0AFF2700C4FF0FF3823F00043A1
:1029E000CDF850C065280CD006DC452809D0462813
:1029F0001DD047283DD13DE0662818D067287ED1FC
:102A000038E00021112F01DB112000E0781CCDE916
:102A1000000106A90EA8FFF7DDFCDDE90F010E9A03
:102A200003910021009207F1010A04914DE04FF05B
:102A300000400097CDE9011006A90EA8FFF7CAFCD7
:102A4000DDE90F0203920E9B11990022DDF80CA024
:102A50000093049211B9791C00EB010AB7EB0A004C
:102A600004D4C0F1FF3007F1010A0490AAEB07007B
:102A7000019044E0012F00DA01270021112F01DD30
:102A8000112000E03846CDE9000106A90EA8FFF7A5
:102A9000A1FCDDE90F010E9A03910021049100923F
:102AA000BA4621070CD40399514500DA8A46BAF197
:102AB000010F05DD009AAAF10101515C302908D00F
:102AC000B84202DA10F1040F06DA0121CDE9011053
:102AD00015E0AAF10101E9E7002805DC04990144A9
:102AE0000491AAEB000102E0411C514500DD8A4639
:102AF0000499401A401C01904FF0004002902007BA
:102B000004D40198504501DBCDF8048000208DF8F5
:102B10004F0002980DF14F07B0F1004F25D02B2048
:102B20000E9002984FF0020800280CDA4042029002
:102B30002D200E9007E00A210298FDF745FC303168
:102B4000029007F8011DB8F10001A8F10108F2DCBC
:102B500002980028EFD1791E0E980870307800F0A6
:102B6000200040F0450007F8020D12A8C01B00F13C
:102B700007081498007800B1012000EB0A010198C1
:102B800001EBE07105984144401A401E0590E003B6
:102B900006D45B462146179A059800F05DF8054477
:102BA0001498007818B15A46179990476D1CE003A5
:102BB00024D55B462146179A059800F04DF8054448
:102BC0001CE00498002807DBDDE90301884203DDEF
:102BD0000098405C179901E0179930205A469047B9
:102BE000049805F10105401C04900198401E0190D5
:102BF00004D12E205A46179990476D1CBAF1000156
:102C0000AAF1010ADDDC05E017F8010B5A46179915
:102C100090476D1CB8F10001A8F10108F4DC5B4697
:102C20002146179A0598ABE62D0000002B00000006
:102C3000200000002DE9F041044600251E461746FD
:102C4000880404D405E039462020B0476D1C641E7A
:102C5000F9D52846BDE8F0812DE9F041044600256C
:102C60001E469046C80301D5302700E0202788047F
:102C700004D505E041463846B0476D1C641EF9D5C1
:102C80002846BDE8F0810A68531C0B60107070473D
:102C900070B5044600F002FF012810D00B480088F0
:102CA000844206D309480088B4FBF0F5284600F0BA
:102CB000B1FC06480088B4FBF0F100FB11444FF46E
:102CC0007A7104FB01F000F003F870BD2A000020C7
:102CD00070B5034600224FF0E02675690D4E367838
:102CE00003FB06F44FF0E026B16910E04FF0E02658
:102CF000B06988420BD0884202D20E1A324402E0F8
:102D00002E1A0E4432440146A24200D300E0EDE701
:102D100000BF70BD2800002070B504460D4600BFFE
:102D200040210548FEF766FF0028F9D0A1B202480D
:102D3000FFF72DF8204670BD003801401CB5FDF7A7
:102D4000CBFD4FF4A060FEF74DFAFDF7CDFEFFF787
:102D500024F80020012103466422CDE9001009A1D6
:102D60000A4800F06BFE002002210346C822CDE98C
:102D7000001007A1074800F061FE00F043FD0020AD
:102D80001CBD000054656D7000000000B1370008E4
:102D90004D554C008D3600082DE9F04105460E4694
:102DA0001C4807681C480068001D00F001FB50B972
:102DB0001948006890F82C100120884017490968CC
:102DC000814316480160681C38B936B11248016861
:102DD000091D134800F02AFB1AE07C190E48006810
:102DE0004460BC4207D20C480168091D0D480068C8
:102DF00000F002FB0CE008480168091D0A48006861
:102E000000F0FAFA09480068844201D207480460D9
:102E1000BDE8F08194000020800000209800002090
:102E2000B42300208800002084000020B00000208F
:102E300010B5044600F006FB23480068401C2249F8
:102E400008602248006840B92048046008460068CD
:102E500001280DD100F036F90AE01D48006838B9A4
:102E60001A480068C06AE16A884201D817480460BD
:102E700018480068401C1749086094F82C1001207D
:102E8000884015490968084313490860E16A01EB65
:102E90008101124A02EB8100211D00F0C7FA00F007
:102EA00015FB0B48006868B108480068C06AE16A11
:102EB000884207D24FF0805009490860BFF34F8F16
:102EC000BFF36F8F10BD0000900000208000002035
:102ED0009C000020AC00002098000020E42000208E
:102EE00004ED00E070B523E000F0E0FC134800685A
:102EF00008B9012000E00020054600F091FEBDB9B0
:102F000000F0A0FA0D48C068C468201D00F050FA17
:102F10000B480068401E0A4908600A480068401EC5
:102F20000849086000F0D2FA204600F00DF800BF12
:102F3000044800680028D7D170BD0000A0230020FD
:102F4000900000208C00002010B50446206B00F09B
:102F5000F5FA204600F0F2FA10BD000030B54FF44B
:102F60001043174800F007042CB1C01D20F00700E3
:102F7000134C041B1B1B0246124C22600024114DF3
:102F80006C60D018083820F007000F4C2060002437
:102F90000D4D2D686C600C4D2D682C601146441A47
:102FA0004C60094C24680C60084D4C682C60084D3E
:102FB0004C682C604FF00044064D2C6030BD000082
:102FC000C8230020BC000020C4000020CC0000204A
:102FD000C8000020D000002000BFFFF783FF064894
:102FE00000680128F9D94FF0805004490860BFF308
:102FF0004F8FBFF36F8FF0E7E420002004ED00E077
:103000002DE9FF5F81460E469246DDE90E7B109C5E
:10301000AAF10100216B01EB800828F0070808F0F5
:10302000070008B9012000E0002028B940F22B3247
:103030001AA120A0FFF79CF9002507E0715D04F1BB
:1030400034004155705D00B902E06D1C102DF5D3C0
:1030500000BF002143200155202F00D31F27E76226
:10306000201D00F0C6F904F1180000F0C2F9246137
:10307000C7F12000A06164620020606484F8480009
:1030800049464046039A00F081F92060BBF1000FE9
:1030900001D0CBF80040BDE8FF9F00004150505CDC
:1030A0004672656552544F535C7461736B732E6343
:1030B000000000004572726F723A25732C25640D72
:1030C0000A00000010B5002407E004EB84010F4A59
:1030D00002EB810000F080F9641C202CF5D30C4831
:1030E00000F07AF90B4800F077F90B4800F074F91A
:1030F0000A4800F071F90A4800F06EF904480949DD
:10310000086004480849086010BD0000E420002061
:1031100064230020782300208C230020A02300209B
:10312000B4230020840000208800002010B5014650
:10313000164800E0006803688B42FBD302464368F0
:1031400013448B4204D143684C68234443600146D6
:103150000A464B6813440468A34211D10C4C03681F
:103160002468A34208D04B680468646823444B6019
:1031700003681B680B6005E0054B1B680B6001E0F2
:1031800003680B60884200D0016010BDBC000020C5
:10319000C40000200A490968096809B9012100E052
:1031A000002121B14FF0FF31064A116006E00449C9
:1031B0000968C968C868034A41681160704700001F
:1031C00084000020B00000200B480068401C08B9B3
:1031D000012000E0002020B9F42208A112A0FFF78E
:1031E000C7F800BF502080F31188BFF34F8FBFF3A3
:1031F0006F8F00BF00BFFEE7D40000204150505C3D
:103200004672656552544F535C706F727461626CA4
:10321000655C525644535C41524D5F434D335C7084
:103220006F72742E630000004572726F723A2573DC
:103230002C25640D0A0000002DE9F04104464FF0F2
:10324000000800F033FB3E48006808B9FFF786FE2F
:103250003C480068204000285FD1A4B1083404F045
:10326000070080B104F00700C0F10800044404F036
:10327000070008B9012000E0002020B9BF2232A1D8
:103280003BA0FFF775F8002C47D03D48006884420A
:1032900043D83C4E3046056801E02E462D686868EC
:1032A000A04202D228680028F7D12548006885424C
:1032B00033D0306800F10808286830606868001B67
:1032C000102813D92F1907F0070008B9012000E0D2
:1032D000002020B9EC221CA125A0FFF749F868685E
:1032E000001B78606C603846FFF720FF244968684F
:1032F0000968081A224908600846006822490968D6
:10330000884203D21E4800681F4908600D4968685A
:103310000968084368600020286000F081FC08F01C
:10332000070008B9012000E0002028B94FF4967288
:1033300005A10FA0FFF71CF84046BDE8F081000092
:10334000C4000020D00000204150505C46726565EA
:1033500052544F535C706F727461626C655C4D6562
:103360006D4D616E675C686561705F342E6300004F
:103370004572726F723A25732C25640D0A000000A5
:10338000C8000020BC000020CC000020001F4FF02F
:1033900080730360001F21F001030360001F034BD3
:1033A000036014380260203870470000C9310008FB
:1033B00001460A69D1E901309860D1E901035860FA
:1033C0005068884201D18868506000200861106808
:1033D000401E10601068704700F1080141604FF016
:1033E000FF31816000F10801C160016100210160CD
:1033F000704700210161704710B502460B685C1CE4
:103400000CB9106907E002F1080000E04068446868
:1034100024689C42FAD944684C604C68A16088607A
:1034200041600A611468641C146010BD42684A60FF
:1034300093688B60936859609160086103685B1CB6
:103440000360704710B500BF502080F31188BFF3B0
:103450004F8FBFF36F8F00BF0B480068401C0A49B5
:1034600008600846006801280DD108480068C0B20D
:1034700008B9012000E0002028B94FF4BD7204A172
:103480000EA0FEF775FF10BDD400002004ED00E093
:103490004150505C4672656552544F535C706F7278
:1034A0007461626C655C525644535C41524D5F439B
:1034B0004D335C706F72742E630000004572726F42
:1034C000723A25732C25640D0A00000010B50B48D4
:1034D000006828B940F2811209A114A0FEF748FF44
:1034E00006480068401E054908600846006820B983
:1034F000002080F3118800BF00BF10BDD400002061
:103500004150505C4672656552544F535C706F7207
:103510007461626C655C525644535C41524D5F432A
:103520004D335C706F72742E630000004572726FD1
:10353000723A25732C25640D0A00000070B506460A
:103540003546002E35D0083D2C461A49606809687A
:10355000084008B1012000E0002028B94FF4A07213
:1035600015A11FA0FEF704FF206808B9012000E0A4
:10357000002028B940F241120FA119A0FEF7F8FE71
:103580000C4960680968084098B1206888B9094901
:10359000606809688843606000F088F914496068D1
:1035A00009680844124908602046FFF7BFFD00F093
:1035B00037FB70BDD00000204150505C46726565FD
:1035C00052544F535C706F727461626C655C4D65F0
:1035D0006D4D616E675C686561705F342E630000DD
:1035E0004572726F723A25732C25640D0A00000033
:1035F000C8000020064800684FF47A71B0FBF1F073
:10360000401E4FF0E021486107200861704700002C
:103610001400002070B504460025ACB10F480068C6
:1036200008B9012000E0002028B940F2CF420CA1E7
:1036300011A0FEF79DFE00F039F900212046FFF7AA
:10364000ABFB00F0EDFA05463DB94FF080500E4956
:103650000860BFF34F8FBFF36F8F70BDB8000020BD
:103660004150505C4672656552544F535C746173AF
:103670006B732E63000000004572726F723A2573FF
:103680002C25640D0A00000004ED00E08AB071E012
:10369000322439480068002868D038480168089109
:1036A0004068099036A00899FEF762FE0898012844
:1036B00002D0052850D132E01022304904A8FCF78E
:1036C0009FFD0698012806D10798012803D1002004
:1036D000354908601AE00698012805D1079818B9FD
:1036E00001203149086011E00698022806D10798A8
:1036F000012803D100202D49086007E00698022820
:1037000004D1079810B901202849086002200190CF
:10371000012003900C2101A8FEF702F91CE01748D4
:10372000016805914168069180680790079820B963
:1037300000201D490C31086005E00798012802D1DE
:1037400019490C31086006200290012004900C21D8
:1037500002A8FEF7E5F800BF00BF00200649086098
:103760004FF480610548FCF764FD00BF3220FFF78D
:1037700051FF00BF8CE700007C000020E41800200F
:103780002A2A2A2A2A73746D3332206765742052DC
:103790004551206D73676964203D202564202A2AE5
:1037A0002A2A2A2A2A2A0A009481214294012342A1
:1037B0000EB517E041F2883603200090FDF71CF9A2
:1037C00002900C216846FEF7ABF80298FCF7CDFD9D
:1037D000044622460B4604A0FEF7CAFD3046FFF71A
:1037E00019FF00BFE6E700002A2A2A2A2074656D27
:1037F00070203D20252E3266202A2A2A2A2A2A0ACB
:10380000000000001CB5184800210B468022CDE9BD
:10381000001016A1174800F011F90446012C15D12B
:1038200000BF502080F31188BFF34F8FBFF36F8F1D
:1038300000BF4FF0FF301049086001200F490860B9
:1038400000200F49086000F08FF80BE0601C08B101
:10385000012000E0002028B940F2847209A10FA0E5
:10386000FEF786FD1CBD0000B400002049444C4515
:1038700000000000D92F0008B00000209C000020AC
:10388000940000204150505C4672656552544F537D
:103890005C7461736B732E63000000004572726F7D
:1038A000723A25732C25640D0A0000000248006856
:1038B000401C014908607047B800002010B51B4843
:1038C000006818B101201A4908602DE0002018494D
:1038D000086018480068B0FA80F0C0F11F0404EBDB
:1038E0008400154951F8200008B1012000E00020B3
:1038F00028B940F6F62211A116A0FEF739FD04EB17
:1039000084010D4A02EB810041684968416000F181
:10391000080142688A4202D14168496841604168B1
:10392000C968104A116000BF10BD0000B800002037
:10393000A400002098000020E42000204150505CAA
:103940004672656552544F535C7461736B732E639A
:10395000000000004572726F723A25732C25640DC9
:103960000A000000800000201CB5224801460978AA
:103970000191FF21024611700146097800919DF8DE
:10398000001001F050011C4A117007211B4A116000
:1039900009E01A490968491E184A11609DF800108B
:1039A0004906090E00919DF8001001F08001802960
:1039B000EFD0124909680902104A116011460988BE
:1039C00001F4E06111600B4A019911700C48006824
:1039D00040F470000A4908600846006840F07040F2
:1039E0000860FFF707FE002006490860FCF7BCFBF3
:1039F00000201CBD00E400E0D8000020DC00002016
:103A000020ED00E0D400002010B500BF502080F36E
:103A10001188BFF34F8FBFF36F8F00BF00F04EF8D8
:103A200018B14FF080500449086000BF002080F3B7
:103A3000118800BF10BD000004ED00E02DE9FF4F2C
:103A400085B0804689461746DDE912ABB800FFF71E
:103A5000F3FB064656B14C20FFF7EEFB04460CB1D3
:103A6000266304E03046FFF769FD00E000247CB1E6
:103A70000020CDE900ABCDE902403A464946404638
:103A8000089BFFF7BDFA2046FFF7D2F9012501E0B8
:103A90004FF0FF35284609B0BDE8F08F05490968A9
:103AA00009B9012005E00449096809B9022000E0CC
:103AB000002070479C000020B80000202DE9F04154
:103AC0004FF0000841480068002872D14048006863
:103AD000451C3F480560EDB93E480068006808B9DC
:103AE000012000E0002028B940F6D9123AA140A0F8
:103AF000FEF73EFC374807684148006835490860D2
:103B00003F4807603F480068401C3E490860FFF797
:103B100041FB00BF3C48006885423CD300BF2D48B4
:103B20000068006808B9012000E0002020B14FF0D3
:103B3000FF30354908602DE026480068C068C46839
:103B40006668B54202D23048066023E0201DFFF7C8
:103B50002FFCA06A18B104F11800FFF729FC94F8B3
:103B60002C1001208840294909680843274908602A
:103B7000E16A01EB8101264A02EB8100211DFFF77A
:103B800055FC2449E06A0968C96A8842C7D34FF0E6
:103B90000108C4E700BF1F480068C06A00EB80004E
:103BA0001B4951F82000012801D94FF0010805E018
:103BB000FFE719480068401C17490860174800686B
:103BC00008B14FF001084046BDE8F081B800002080
:103BD00094000020840000204150505C46726565CE
:103BE00052544F535C7461736B732E63000000007A
:103BF0004572726F723A25732C25640D0A0000001D
:103C000088000020A8000020B000002098000020BC
:103C1000E420002080000020A0000020A40000205C
:103C200070B5002400263448006828B94FF4FD62BE
:103C300032A138A0FEF79CFBFFF704FC2E48006879
:103C4000401E2D4908600846006800284FD13548BD
:103C5000006800284BD024E03348C068C46804F1F1
:103C60001800FFF7A5FB201DFFF7A2FB94F82C100E
:103C7000012088402D49096808432C490860E16A01
:103C800001EB81012A4A02EB8100211DFFF7CEFBE7
:103C90002849E06A0968C96A884202D30120264996
:103CA00008602148006808B9012000E000200028D1
:103CB000D2D00CB1FFF76EFA2048056865B100BF9D
:103CC000FFF7FCFE10B101201B4908606D1E002D9E
:103CD000F6D10020194908601748006838B101265C
:103CE000300717490860BFF34F8FBFF36F8FFFF79F
:103CF000EDFB304670BD0000B80000204150505C24
:103D00004672656552544F535C7461736B732E63D6
:103D1000000000004572726F723A25732C25640D05
:103D20000A000000900000208C2300209800002052
:103D3000E420002080000020A4000020A00000203B
:103D400004ED00E0643D000800000020E4000000F5
:103D5000B4230008483E0008E4000020E4B6000058
:103D6000C423000800000000010203040102030450
:103D7000060708090204060800A24A040000000021
:103D8000000000000102030406070809000000000B
:103D90008D140008611000089D0800084D190008E6
:103DA00025100008B910000893080008C10A00088F
:103DB000A916000865150008B122000819180008A6
:103DC00000000000000000000000000000000000F3
:103DD00000000000000000000000000000000000E3
:103DE00000000000000000000000000000000000D3
:103DF00000000000000000000000000000000000C3
:103E000000000000000000000000000000000000B2
:103E100000000000000000000000000000000000A2
:103E20000000000000000000000000000000000092
:103E30000000000000000000AAAAAAAA00000000DA
:083E400000000000000000007A
:0400000508000131BD
:00000001FF
