:020000040800F2
:10000000403400204501000889210008B51400088B
:100010003D1F0008F10C00089338000800000000A4
:100020000000000000000000000000004D28000853
:1000300039110008000000009D250008392900083A
:100040005F0100085F0100085F0100085F01000810
:100050005F0100085F0100086B1100085F010008E4
:100060005F010008851100089F1100085F0100086A
:100070000D0D00085F0100082D0D00085F0100084C
:100080005F0100085F0100085F0100085F010008D0
:100090005F0100085F0100085F0100085F010008C0
:1000A0005F0100085F0100085F0100085F010008B0
:1000B0005F010008B52A0008252B00085F01000831
:1000C0005F0100085F0100085F0100085F01000890
:1000D0005F010008A534000859350008A93500085B
:1000E0005F0100085F0100085F0100085F01000870
:1000F0005F0100085F0100085F0100085F01000860
:100100005F0100085F0100085F0100085F0100084F
:100110005F0100085F0100085F0100085F0100083F
:100120005F0100085F0100085F0100085F0100082F
:10013000DFF80CD000F062FB00480047D54900080A
:10014000403400200648804706480047FEE7FEE7A7
:10015000FEE7FEE7FEE7FEE7FEE7FEE7FEE7FEE777
:100160006D2900083101000840EA01039B0703D014
:1001700009E008C9121F08C0042AFAD203E011F8E6
:10018000013B00F8013B521EF9D27047D2B201E0A8
:1001900000F8012B491EFBD270470022F6E710B58C
:1001A00013460A4604461946FFF7F0FF204610BDE5
:1001B00030B505462A460B4612F8010B13F8014BE1
:1001C00008B1A042F8D01CB1002802D06D1CF1E7A4
:1001D000284630BD421C10F8011B0029FBD1801AB3
:1001E000704710B5002200E0521C835C8C5CA34277
:1001F00001D1002BF8D1D8B2E1B2401A10BD2DE9DF
:10020000FE4F81EA030404F0004421F00041009411
:100210004FF0000B23F0004350EA01045ED052EA95
:1002200003045BD0C3F30A54C1F30A552C44A4F26F
:10023000F3340194A0FB0254C1F3130141F4801183
:10024000C3F3130343F4801301FB024400FB034E8A
:10025000840A970A44EA815447EA8357A4FB076853
:1002600002958D0A05FB07854FEA932C04FB0C547D
:100270002705029D4FEA065847EA1637B5EB0805F1
:100280006EEB070C870E920E47EA811742EA831243
:10029000A7FB0201B6EB0B0164EB00042B0D43EA54
:1002A0000C335E1844EB1C50DA465146E7FB020162
:1002B000C5F313044FEA0B3343EA14534FEA0432F5
:1002C000019C43EA0603A4F10C040294009CCDE9CE
:1002D00000B400F06EF903B0BDE8F08F00200146D5
:1002E000F9E72DE9F04D81EA030404F0004B21F019
:1002F000004514464FF0000A23F0004150EA050281
:1003000020D054EA01021DD0C5F30A570246C5F3B6
:100310001303C1F31300C1F30A5640F4801543F4EC
:100320008013A7EB0608101BD64608F2FD3873EBC6
:10033000050002D308F1010801E092185B41B8F111
:10034000000F03DA00200146BDE8F08D00204FF4D5
:100350008011064684460EE0171B73EB050705D394
:10036000121B63EB050306434CEA010C49084FEAF4
:10037000300092185B4150EA0107EDD152EA0300C8
:1003800012D082EA040083EA0501084305D0101B5D
:10039000AB4106D20122002306E000224FF00043C9
:1003A00002E06FF0010253101AEB06004CEB08510B
:1003B00010EB0A0041EB0B01BDE8F04D00F0EAB88C
:1003C0000EB5C10F80EAE0700844CA07002140F270
:1003D00033438DE80E000A460B4600F0EAF803B0FE
:1003E00000BD0EB540F2334102910021CDE900116C
:1003F0000A460B4600F0DDF803B000BD20F00040D7
:10040000C10DC0F3160040F400007F2901DA00207E
:100410007047962903DCC1F19601C84070479639B0
:100420008840704700F0004230F000400AD0C10D13
:1004300001F56071C0F3160042EA0151C20840079D
:100440001143704700200146704701F0004330B46B
:1004500021F0004150EA010206D00A0DA2F56072B7
:10046000C1F31301002A02DC30BC00207047440FA6
:1004700044EAC104C100E01830BC00EBC25000F0F7
:1004800052B80000002801DBC0F10040002901DB68
:10049000C1F100418142704730B50B460146002052
:1004A0002022012409E021FA02F59D4205D303FA36
:1004B00002F5491B04FA02F52844151EA2F10102B7
:1004C000F1DC30BD2DE9F05F0546002092469B46E9
:1004D00088460646814640241BE02846414647465A
:1004E000224600F0ACF953465A46C01A914110D347
:1004F00011461846224600F093F92D1A67EB0108C1
:100500004F4622460120002100F08AF917EB00092E
:100510004E41201EA4F10104DFDC484631462A4644
:100520004346BDE8F09F0029A8BF7047401C490022
:1005300008BF20F00100704710B4B0FA80FC00FA48
:100540000CF050EA010404BF10BC704749B1CCF173
:10055000200421FA04F411FA0CF118BF01212143FF
:100560000843A3EB0C01CB1D4FEA00614FEA1020BA
:1005700042BF002010BC704700EBC350104400295C
:10058000A4BF10BC7047401C490008BF20F0010008
:1005900010BC704710B5141E73F1000408DA401C3B
:1005A00041F1000192185B411A4301D120F0010092
:1005B00010BD2DE9F04D92469B4611B1B1FA81F282
:1005C00002E0B0FA80F22032904600F029F90446A9
:1005D0000F4640EA0A0041EA0B0153465A460843D7
:1005E00013D0114653EA010019D0C8F14002504619
:1005F00000F025F905460E4650465946424600F0A1
:100600000FF9084305D0012004E020463946BDE833
:10061000F08D0020054346EAE0762C4337430A98E4
:100620006305E40AA0EB08000022FD0A44EA4754EF
:100630000A3002D500200146E9E701051019694199
:10064000DDE9084500196941BDE8F04DA2E72DE953
:10065000FE4F804681EA0300C00F0C46009021F057
:10066000004123F00045B8EB0200A94105D2404605
:10067000214690461C460B46024623F0004010439C
:1006800047D0270DC7F30A00C3F30A510290401A5E
:10069000019040286BDAC3F3130040F4801B0098EC
:1006A000924620B10023D2EB030A63EB0B0B0198B7
:1006B0005946C0F14002504600F0B2F806460D46D9
:1006C00050465946019A00F0CAF810EB0800614103
:1006D000002487EA115284EAE7731A4340D0009A53
:1006E00062B3019A012A4FEA075215DC001B61EB45
:1006F00002014FF0004202EA0752CDE90042001C1D
:1007000041F5801132462B46FFF753FF03B0BDE899
:10071000F08F40462146F9E7001B61EB0201001C07
:1007200041F5801300185B412018A2F5001747EB34
:10073000030140EAD570B6196D4111E06D084FEA2A
:10074000360645EAC0754FEA0752001B61EB02010D
:10075000001C41F5801149084FEA30000019514151
:1007600032462B4603B0BDE8F04FFFF713BF0098A9
:10077000012240000023D0EB020263EBE0730098FB
:1007800021464FEAE074B8EB000061EB0401E9E7B1
:1007900083F000435BE781F0004158E7C1F30A5260
:1007A000C1F3130140F2FF3341F480119A4202DA9F
:1007B00000200146704740F233439A42A2F233428E
:1007C00002DC524200F03BB800F02AB830B5041EFB
:1007D00071F1000404DB4FF00044404264EB01017E
:1007E000141E73F1000405DB1C464FF00043524217
:1007F00063EB0403994208BF904230BD064C074D9D
:1008000006E0E06840F0010394E8070098471034E0
:10081000AC42F6D3FFF790FC90700008B07000086F
:10082000202A04DB203A00FA02F1002070479140B0
:10083000C2F1200320FA03F3194390407047202AA5
:1008400004DB203A21FA02F00021704721FA02F37A
:10085000D040C2F120029140084319467047202A37
:1008600006DBCB17203A41FA02F043EAE07306E0D8
:1008700041FA02F3D040C2F12002914008431946E8
:10088000704770B58C1810F8015B15F0070301D1A3
:1008900010F8013B2A1106D110F8012B03E010F8E3
:1008A000016B01F8016B5B1EF9D12B0705D4002306
:1008B000521E0DD401F8013BFAE710F8013BCB1AA8
:1008C000921C03E013F8015B01F8015B521EF9D59D
:1008D000A142D8D3002070BD10B500F009FE10BDB4
:1008E00070B506460C46154600F0A4FEA02000F0A8
:1008F00073FE00F0D3FEF0B200F06EFE00F0CEFE0C
:1009000000F098FEA12000F067FE00F0C7FE0DE0A9
:10091000012D04D1002000F033FE207003E00120FF
:1009200000F02EFE2070681E85B2641C002DEFD1F1
:1009300000F09CFE70BD70B50446002500F07AFE04
:10094000A02000F049FE00F0A9FEE0B200F044FE55
:1009500000F0A4FE00F06EFEA12000F03DFE00F0CD
:100960009DFE002000F00CFE054600F07FFE2846AC
:1009700070BD000010B586B0142101A8FFF70DFC72
:10098000142201A90020FFF7ABFF002406E001A814
:10099000025D214603A003F001FB641C142CF6D376
:1009A00006B010BD416464725B25645D3A20446109
:1009B00074615B2523785D0A0000000010B50020FB
:1009C000FFF7B9FF0446214601A003F0E7FA10BD86
:1009D0005265616420446174612069733A20256422
:1009E0000A00000070B504460D46164600F022FECF
:1009F000A02000F0F1FD00F051FEE0B200F0ECFDAF
:100A000000F04CFE1FE0287800F0E6FD00F046FE06
:100A10006D1C601C84B2E11704EB5171C910A4EB8A
:100A2000C10181B900F022FE052003F05BFF00F058
:100A300001FEA02000F0D0FD00F030FEE0B200F09A
:100A4000CBFD00F02BFE301EA6F101018EB2DAD1F3
:100A500000F00CFE052003F045FF70BD70B50446A4
:100A60000D4600F0E7FDA02000F0B6FD00F016FEF8
:100A7000E0B200F0B1FD00F011FE284600F0ACFD40
:100A800000F00CFE00F0F2FD0A2003F02BFF70BD19
:100A90003EB5002404E0601CC0B20DF80400641CE4
:100AA000092CF8DB092269460020FFF79BFF3EBDB9
:100AB00010B5AA210020FFF7D1FF10BD10B5A2B0DC
:100AC00080212D48FFF769FB2CA22EA12A4803F0B4
:100AD00075FA2948FFF77EFB3449086080213448C5
:100AE000FFF75BFB33A325A235A1314803F066FA7B
:100AF0002F48FFF76FFB34490860802102A8FFF7F9
:100B00004CFB2CA01DA31DA230A1009002A803F055
:100B100055FA02A8FFF75EFB0446202034A33D4AA5
:100B20002146009002A804F053F83A48FFF752FB20
:100B30003949086080213948FFF72FFB1DA238A1F1
:100B4000364803F03BFA40F25B703F4908600846C4
:100B5000324902683DA003F021FA074940A003F0A2
:100B60001DFA134942A003F019FA2A4944A003F0E0
:100B700015FA22B010BD00001425002065686F6DC5
:100B80006500000025737C7365637572656D6F6425
:100B9000653D332C7369676E6D6574686F643D687D
:100BA0006D6163736861317C0000000068010020A2
:100BB0009425002061317A6F7741634D763772005A
:100BC00025732625730000006C010020636C6965A5
:100BD0006E74496425736465766963654E616D65FD
:100BE000257370726F647563744B657925730000AB
:100BF000366138663635353836376230366264618C
:100C00003164623964353164386632653631336255
:100C1000000000001426002070010020942600200F
:100C200025732E696F742D61732D6D7174742E632D
:100C30006E2D7368616E676861692E616C69797584
:100C40006E63732E636F6D0074010020534950264C
:100C5000506F72743A25733A25640D0A0000000043
:100C6000436C69656E7469643A25730D0A0000006F
:100C7000557365726E616D653A25730D0A0000004B
:100C800050617373776172643A25730D0A00000036
:100C900008B50121082001F0B3FC4FF48070ADF8D5
:100CA000000010208DF8030003208DF80200694633
:100CB000044800F005FB4FF48071024800F0D4FBBB
:100CC00008BD0000000C014010B54FF480710248CF
:100CD00000F0CAFB10BD0000000C014010B54FF43D
:100CE0008071024800F0C2FB10BD0000000C014002
:100CF00000BFFEE710B5044C02E020688047241DC9
:100D000020680028F9D110BD2400002010B5202053
:100D100000F064F830B1202000F02CF800210248E7
:100D200000F036F810BD00001C00024010B54FF472
:100D3000005000F053F850B14FF4005000F01AF892
:100D40000021034800F024F801200249086010BD8A
:100D5000440002405C01002000F0805111B10349C1
:100D6000086001E002494860704700000404024046
:100D70000000024000F0805111B10349086001E019
:100D8000024948607047000004040240000002402D
:100D900021B1026842F00102026004E002684FF6ED
:100DA000FE731A40026070470146486880B270477F
:100DB00001460020002201F0805313B1054B1A6850
:100DC00001E0054B1A6802EA01030BB1012000E0C3
:100DD000002070470004024000000240014600204D
:100DE000002201F0805313B1054B1A6801E0054B56
:100DF0001A6802EA01030BB1012000E000207047ED
:100E000000040240000002401AB103680B43036073
:100E100002E003688B430360704710B5002202684C
:100E200047F6F0739A430C6A8B6823430C6923439B
:100E30004C6923438C692343CC6923434C6A234385
:100E40008C6A23431A430260CB6843600B6883605B
:100E50004B68C36010BD4160704700002DE9F05F32
:100E60000024A146A246A34600F0C6F800F070F8A0
:100E7000442000F033F900F0BFF800F069F8BE201C
:100E800000F02CF900F094F8814600F091F88246C9
:100E900049EA0A2404F47840B0F5784F0FD1E043D2
:100EA000401C84B22046FFF79CFA074600220B4BF9
:100EB000FFF7A5F90546FFF7C8FA83460BE0204681
:100EC000FFF78FFA07460022044BFFF798F9054613
:100ED000FFF7BBFA83465846BDE8F09F0000B03FDD
:100EE00008B54FF40060ADF8000048208DF803000D
:100EF0006946024800F0E4F908BD00000020014006
:100F000008B54FF40060ADF8000010208DF8030024
:100F100003208DF802006946014800F0D1F908BDB0
:100F20000020014008B50121080201F069FB4FF4DF
:100F30000060ADF8000010208DF8030003208DF84C
:100F400002006946014800F0BBF908BD00200140DD
:100F500010B5552000F0C2F8002404E00349085DF4
:100F600000F0BCF8641C082CF8DB10BD4D0100201B
:100F700010B500F041F8332000F0B0F8002409E08B
:100F800000F016F8064908550846015D05A003F073
:100F900005F8641C082CF3DB04A002F0FFFF10BD71
:100FA0004D01002025237820000000000A000000E9
:100FB00070B50025002417E0FFF7A2FF00200C49C0
:100FC0000860022003F0B4FCFFF78AFF082003F05A
:100FD000AFFC084890F82C01A0402843C5B232204D
:100FE00003F0A6FC601CC4B2082CE5DB284670BDEB
:100FF000AC0124420000244210B5FFF781FF00201D
:10100000134908604FF4FA7003F092FC0120114973
:10101000C1F8AC011E2003F08BFC0024FFF760FF39
:1010200004E0601CC4B2012003F082FC0848803850
:10103000006808B1F02CF4DBF02C03DB06A002F012
:10104000ADFF03E008A002F0A9FF002410BD0000DE
:10105000AC0124420000244252657365742046614D
:10106000696C65642E0A00005265736574205375BF
:10107000636365737365642E0A00000070B5002415
:10108000FFF7ECFE044600212046FFF7FBF903D2F0
:1010900008A002F083FF02E00AA002F07FFF2046D2
:1010A000FFF7C0F905462A460B460AA002F076FF74
:1010B00070BD000043757272656E742054656D706A
:1010C0003A202D0043757272656E742054656D7000
:1010D0003A200000252E32660D0A000070B5044645
:1010E000FFF70EFF002520E004F0010068B10020AA
:1010F0000F490860022003F01BFC01200D49C1F8D4
:10110000AC013C2003F014FC0CE00020084908600E
:101110003C2003F00DFC01200649C1F8AC0102207F
:1011200003F006FC6410681CC5B2082DDCDB70BD42
:10113000AC01244200002442704710B5FFF718FFAD
:1011400002F0A9FB00F0A0FC00F02EFE00F098FDDC
:101150004FF47A7003F0C6FB4FF47A7003F0C2FBD1
:1011600000F058FD01F0F6FC10BD10B5012000F0B4
:1011700029F8012802D10A2003F0B4FB012000F075
:101180001BF810BD10B5082000F01CF8012802D192
:101190000A2003F0A7FB082000F00EF810BD10B5E0
:1011A000102000F00FF8012802D10A2003F09AFB6A
:1011B000102000F001F810BD0149086070470000E0
:1011C00014040140014600200022074B1B6803EA7B
:1011D0000102054B14331B680B4013B10AB1012007
:1011E00000E0002070470000000401400021234976
:1011F0008279002A3AD00A46126803689A430B465D
:101200001A600A1D126803689A430B1D1A6002795E
:1012100011440A6803681A430A60184A08321268BF
:1012200003689A43154B08331A601A1D1268036845
:101230009A43124B0C331A604279102A0ED11A1FAE
:10124000126803681A430D4B08331A601A1D12689E
:1012500003681A43094B0C331A600DE007494279C1
:1012600011440A6803681A430A6005E002791144D0
:101270000A6803689A430A6070470000000401404E
:1012800030B500228B071C0F0F2303FA04F20B4B1F
:101290008C1053F824309343084C8D1044F82530BB
:1012A00023468C1053F824308C07240F00FA04F4E2
:1012B0002343024C8D1044F8253030BD0800014016
:1012C0002DE9F041024600250026002000230024DD
:1012D000002791F803C00CF00F0591F803C00CF043
:1012E000100CBCF1000F03D091F802C04CEA0505C8
:1012F00091F800C0BCF1000F31D0146800202BE041
:101300004FF0010C0CFA00F3B1F800C00CEA030630
:101310009E4220D183004FF00F0C0CFA03F7BC4320
:1013200005FA03FC4CEA040491F803C0BCF1280F51
:1013300006D14FF0010C0CFA00FCC2F814C00AE010
:1013400091F803C0BCF1480F05D14FF0010C0CFA25
:1013500000FCC2F810C0401C0828D1D31460B1F8BA
:1013600000C0BCF1FF0F34DD546800202EE000F116
:10137000080C4FF0010808FA0CF3B1F800C00CEAB1
:1013800003069E4221D183004FF00F0C0CFA03F7A5
:10139000BC4305FA03FC4CEA040491F803C0BCF119
:1013A000280F05D100F1080C08FA0CF8C2F81480D7
:1013B00091F803C0BCF1480F07D100F1080C4FF0C1
:1013C000010808FA0CF8C2F81080401C0828CED397
:1013D0005460BDE8F0810000F0B50A460023002407
:1013E0000021002500F00046B6F1004F02D11D4E4D
:1013F000F16901E01B4E7168C0F3034583B200F44C
:101400004016B6F5401F08D121F07061154E766880
:1014100026F07066134F7E6012E000F48016B6F579
:10142000801F06D1032606FA05F4A14341F070613E
:1014300006E0460D360103FA06F6B14341F070614D
:1014400022B1460D360103FA06F6314300F000469C
:10145000B6F1004F02D1034EF16101E0014E71601F
:10146000F0BD00000000014041617047016170471C
:1014700030B502464FF6FF7012B10446A14200D1CA
:1014800030BD11E012F8014B604000230AE000F08B
:10149000010424B140104AF20104604000E0401011
:1014A0005C1CE3B2082BF2DB0C1EA1F10101E9D1B7
:1014B00000BFE5E700BFFEE710B500200A4908605D
:1014C00001F048F900200949C1F89C01062003F009
:1014D0002FFA012004490860062003F029FA0020B1
:1014E0000249C1F8980110BD988121420080214233
:1014F00008B50121082001F083F84020ADF8000074
:1015000003208DF8020010208DF8030069460B4877
:10151000FFF7D6FE8020ADF8000010208DF8030004
:1015200003208DF8020069460448FFF7C9FE012038
:10153000034908600349C1F89C0108BD000C014043
:10154000988121420080214210B500200A4908609C
:1015500001F000F901200949C1F89C01062003F0BF
:10156000E7F9012004490860062003F0E1F90020B2
:101570000249C1F8980110BD9881214200802142A2
:1015800070B50546002601F0D7F8002416E00020CB
:101590000F490860062003F0CBF901200D49C1F87E
:1015A00098010B487C380078C4F10701884030432B
:1015B000C6B2062003F0BCF9601CC4B2082CE6DBFE
:1015C00015B9FFF7C1FF01E0FFF776FF304670BDA8
:1015D000988121420080214270B5044601F0BAF89A
:1015E00000201249086000251CE004F0800020B1B2
:1015F00001200E49091D086003E000200B49091D68
:1016000008606006040E062003F092F901200749E5
:101610000860062003F08CF900200549C1F8980104
:10162000681CC5B2082DE0DB70BD00009881214226
:101630000080214210B501F08DF8012009490860B1
:101640000949C1F89C01052003F072F90020054901
:10165000091D0860062003F06BF900200249C1F85B
:10166000980110BD988121420080214210B501F0FF
:1016700071F800200749086001200749C1F8980166
:10168000062003F055F9012002490860062003F006
:101690004FF910BD9C8121420080214210B50024E9
:1016A000002011490860062003F042F901F044F8D7
:1016B00001200E49C1F89801062003F039F90AE02B
:1016C000601CC4B2FA2C06DDFFF7D0FF08A002F0C0
:1016D00065FC012010BD04487C3800680028EFD16B
:1016E0000149086000BFF5E798812142008021424E
:1016F0004E6F7420526563656976652041434B0ADD
:101700000000000008B50121442000F079FF1820F6
:10171000ADF8000048208DF8030003208DF802008A
:1017200069460848FFF7CCFD0120ADF800002820ED
:101730008DF8030003208DF8020069460248FFF788
:10174000BFFD08BD001801400008014010B51B484E
:10175000007808BB1A48006838B11948001F0068B3
:1017600018B118480068012816D10A2003F0BAF809
:101770000120124908701248006808B9012010BD04
:101780000F48001F006808B90220F8E70D480068FC
:10179000012810D10320F2E70948006801280AD186
:1017A0000748001F0068012805D10648006810B9E5
:1017B0000020024908700020E1E70000200000201E
:1017C000100123420001214208B50121082000F048
:1017D00017FF0121402000F013FF2020ADF800008A
:1017E00010208DF8030003208DF8020069460A4896
:1017F000FFF766FD2020ADF8000010208DF80300F3
:1018000003208DF8020069460448FFF759FD2021A6
:101810000248FFF72BFE08BD000C014000180140F4
:1018200010B520210348FFF721FE20210248FFF7D1
:101830001DFE10BD000C01400018014010B5202114
:101840000348FFF711FE20210248FFF70DFE10BDEF
:10185000000C01400018014070B501207F4908606C
:101860000A207F4908607F480068001D7E4909689A
:101870000844801C7D49096808447D49086078480F
:1018800000680968441810207A49087000BF204693
:10189000E11704EB5161C911A4EBC116E11704EB88
:1018A0005161CC11002C01DD46F0800671496B4A74
:1018B00012688E5469480068401C68490860002C12
:1018C000E5DC00216B4A6548006811540421634837
:1018D0000068401C11544D2160480068801C115460
:1018E00051215E480068C01C115454215B480068B7
:1018F000001D115459480068401D115404215748D7
:101900000068801D1154C22154480068C01D115444
:10191000002258495148006808300A546421554A49
:101920004E480068093011544E490868C11700EB51
:101930001161C1F307224F4B484909680A315A54D3
:1019400048490868C11700EB11610912A0EB012199
:10195000CAB2424909680B315A541A463F490968CC
:101960000C3150183F490A684349FEF7FDFB3E49D8
:101970000868C11700EB1161C1F3072237490968F4
:101980000C31384B1B6819443A4B5A543649086895
:10199000C11700EB11610912A0EB0121CAB22F4956
:1019A00009680D312F4B1B681944324B5A542B498F
:1019B00009680E312B4A126811441A4688182A49C0
:1019C0000A682E49FEF7D0FB28490868C11700EBCA
:1019D0001161C1F30722214909680E31214B1B68AF
:1019E0001944214B1B681944224B5A541F4908685B
:1019F000C11700EB11610912A0EB0121CAB217490E
:101A000009680F31174B1B681944174B1B681944A1
:101A1000184B5A54114909681031124A126811447E
:101A2000114A126811441A46881810490A68144964
:101A3000FEF79AFB094800680949096808440C49FF
:101A400009684518280A0F4908704D702A46094947
:101A50000C48801CFEF788FB70BD00007801002058
:101A60007C010020680100206C0100207001002032
:101A70008001002014270020142500209425002038
:101A800014260020BC22002010B5FFF7E5FE09480F
:101A900001F072FC4FF47A7002F024FF06480078DF
:101AA000202805D10448C07810B904A002F076FAC5
:101AB00010BD0000BC22002090210020434F4E4E5C
:101AC000454354205375636365737366756C6C7915
:101AD000210D0A0010B5C020074908700020487089
:101AE0000224200A0549087008464470224602492B
:101AF000801CFEF739FB10BD14270020BC220020FB
:101B000010B5FFF7E7FF024801F036FC10BD0000FA
:101B1000BC2200202DE9F0470646894617460120E1
:101B2000374908603046FEF755FB801C3549086090
:101B30003548076008460068334909684418302072
:101B40003249087000BF2046E11704EB5161C9110A
:101B5000A4EBC118E11704EB5161CC11002C01DD9D
:101B600048F080082949264A126801F80280244872
:101B70000068401C22490860002CE4DC3046FEF777
:101B800029FBC0F30721214A1D4800681154304643
:101B9000FEF720FBC1B21D4A19480068401C1154D1
:101BA0003046FEF717FB8246184A15490968891C1A
:101BB000501852463146FEF7D7FA3046FEF70AFB78
:101BC0000F490968891C0844104900EB010A3A468C
:101BD00049465046FEF7C8FA0948006809490968AD
:101BE0000844094909684518280A094908704D70D0
:101BF0002A4606490648801CFEF7B6FABDE8F0877B
:101C0000780100207C0100208001002014270020A2
:101C1000BC22002010B5C0B009480A4902686846D5
:101C200002F0CCF96846FEF7D5FA0446224669462A
:101C300005A0FFF76FFF114801F09EFB40B010BDFB
:101C4000A0812142A46F00082F7379732F61317A2C
:101C50006F7741634D7637722F65686F6D652F74AE
:101C600068696E672F6576656E742F70726F706528
:101C70007274792F706F737400000000BC22002012
:101C800010B5C0B00F48006808B9012000E000207E
:101C900003460D48006808B9012000E00020024614
:101CA0000A49684602F08AF96846FEF793FA044644
:101CB0002246694606A0FFF72DFF124801F05CFBA3
:101CC00040B010BD9401234294812142E86F000886
:101CD0002F7379732F61317A6F7741634D76377245
:101CE0002F65686F6D652F7468696E672F657665FF
:101CF0006E742F70726F70657274792F706F737459
:101D000000000000BC22002030B5C1B0FFF7A6F8EB
:101D10000546FEF773FBC4B221460CA002F03EF963
:101D2000114822461149036801A802F047F901A8A9
:101D3000FEF750FA05462A4601A90DA0FFF7EAFE74
:101D4000184801F019FB41B030BD000043757272B4
:101D5000656E742074656D70657274757265206946
:101D600073203A2025640A000001214238700008DF
:101D70002F7379732F61317A6F7741634D763772A4
:101D80002F65686F6D652F7468696E672F6576655E
:101D90006E742F70726F70657274792F706F7374B8
:101DA00000000000BC22002010B500210AA000F0B5
:101DB00041F8164801F0E0FA4FF47A7002F092FD13
:101DC00013480078902806D111480079012802D1E3
:101DD00010A002F0E3F810BD2F7379732F61317AF0
:101DE0006F7741634D7637722F65686F6D652F741D
:101DF00068696E672F736572766963652F70726F9D
:101E000070657274792F736574000000BC22002025
:101E10009021002053756273637269626520537567
:101E2000636365737366756C6C79EFBC815C720A71
:101E3000000000002DE9F04706460F4601203A4910
:101E400008600220394908603046FEF7C3F9C01C1B
:101E500037490860354800680968441882203549C8
:101E6000087000BF2046E11704EB5161C911A4EBD3
:101E7000C118E11704EB5161CC11002C01DD48F0D1
:101E800080082C49284A126801F802802648006818
:101E9000401C25490860002CE4DC0021254A22482A
:101EA000006811540A2120480068401C1154304633
:101EB000FEF790F9C0F307211E4A1B480068801CFA
:101EC00011543046FEF786F9C1B21A4A1648006826
:101ED000C01C11543046FEF77DF98146154A12495F
:101EE0000968091D50184A463146FEF73DF930464B
:101EF000FEF770F90C490968091D08440D490F5493
:101F000009480068094909680844094909684518E9
:101F1000280A094908704D702A4606490648801C5F
:101F2000FEF722F9BDE8F087780100207C0100204F
:101F30008001002014270020BC22002000BFFEE703
:101F400029E0002401201449087003204870002073
:101F50008870C87008710220487106210E48FFF78A
:101F600087FA04460C498C71200AC87108210A4876
:101F700001F0FEF808E00948006828B100F03AF8DE
:101F800000200649086000E0F5E700BF4FF47A70D2
:101F900002F0A8FC00BFD4E7402C002088010020FC
:101FA00010B5002401201149087006204870002057
:101FB00088706420C87000200871022048710621D2
:101FC0000A48FFF755FA044608498C71200AC8717F
:101FD0000821064801F0CCF805E00548006810B17A
:101FE00000F008F800E0F8E700BF10BD402C00202A
:101FF000880100202DE9FC4728484078032802D0BA
:10200000062848D139E025480078012834D12349F1
:102010000979224AD27841EA0220FEF7D1F907462F
:1020200000221F4BFEF75DF90546FEF70EFA044647
:102030001A498979194A527941EA0220FEF7C0F912
:1020400007460022164BFEF74CF90546FEF7FDF950
:1020500081464846FEF7E6F905460E462046FEF75D
:10206000E1F907460B460D48CDE9005601783A469E
:102070000CA001F093FF00BF0DE0002405E007482D
:10208000015D11A001F08AFF641C082CF7DB10A091
:1020900001F084FF00BF00BFBDE8FC87402800209E
:1020A00000002440536C6176652025643A20546515
:1020B0006D70203D20252E31662C2048756D6920DD
:1020C0003D20252E31660A002523327820000000AD
:1020D0000A0000000EB50121084600F091FA042123
:1020E0000846FFF7CDF803210420FFF7C9F80021C7
:1020F0000846FFF7C5F81820009000208DF804006E
:102100000C208DF8050001208DF806006846FFF7C9
:102110006DF80120009000208DF8040008208DF853
:10212000050001208DF806006846FFF75FF80A20D9
:102130008DF8080002208DF8090000208DF80A00B3
:1021400001208DF80B0002A800F020F809208DF87E
:10215000080002208DF8090001208DF80A008DF892
:102160000B0002A800F012F806208DF808000220EB
:102170008DF8090003208DF80A0001208DF80B006E
:1021800002A800F003F80EBD7047000070B50021F2
:1021900000230F22C47804B3154C246804F4E064CF
:1021A000C4F5E064210AC1F10403CA40447804FA8A
:1021B00003F184781440214309010E4C0678A1559F
:1021C000047804F01F050124AC4005786D11AD00C2
:1021D00005F1E025C5F8004109E0047804F01F0589
:1021E0000124AC40044D0678761145F8264070BDB8
:1021F0000CED00E000E400E080E100E00249014372
:10220000024A1160704700000000FA050CED00E082
:1022100070B50646002419E004F1B001C8B20021EF
:1022200000F044F90021084600F040F90021102098
:1022300000F03CF9002505E00121304600F036F9B8
:10224000681CC5B2802DF7DB601CC4B2082CE3DB30
:1022500070BD00002DE9F04306460D461746A7F174
:10226000200800241AE00F4800EB081010F8149022
:102270002819C1B24A46304600F03EF8094800EB42
:1022800008116000401C11F800902A19D1B2721C8C
:10229000D0B24A4600F030F8601CC4B2082CE2DB31
:1022A000BDE8F083B46700082DE9F04306460D460B
:1022B000104F4FF0E008002414E017F8149028198C
:1022C000C1B24A46304600F017F86000401C17F8CB
:1022D00000902A19D1B2721CD0B24A4600F00CF814
:1022E000601CC4B208EBD871B4EB610FE5DBBDE84C
:1022F000F0830000A46D000870B505460C46164634
:1023000005F1B001C8B2002100F0D0F804F00F00D0
:10231000002100F0CBF8102101EB1410002100F097
:10232000C5F80121304600F0C1F870BD70B5064611
:102330000D46144608E0227829463046FFF78AFF0A
:1023400005F10800C5B2641C20780028F3D170BDE7
:1023500008B50121202000F053F9F820ADF8000065
:1023600010208DF8030003208DF8020069464348D1
:10237000FEF7A6FFF8214148FFF778F80120404911
:102380000860642002F0AEFA00203E49C1F89001D6
:10239000642002F0A7FA0120394908600021AE202C
:1023A00000F084F80021084600F080F80021102099
:1023B00000F07CF80021402000F078F80021A120F6
:1023C00000F074F80021C82000F070F80021A62069
:1023D00000F06CF80021812000F068F80021FF2057
:1023E00000F064F80021A82000F060F800213F20F0
:1023F00000F05CF80021D32000F058F800210846D6
:1024000000F054F80021D52000F050F80021802081
:1024100000F04CF80021D92000F048F80021F1200C
:1024200000F044F80021DA2000F040F800211220EA
:1024300000F03CF80021DB2000F038F800214020BB
:1024400000F034F80021202000F030F800211020A6
:1024500000F02CF800218D2000F028F80021142035
:1024600000F024F80021A42000F020F80021AF2083
:1024700000F01CF80020FFF7CBFE08BD001401405F
:10248000908122420080224210B504210220FFF7F1
:102490000BFF00BFFFF75AF90446032C00D100E000
:1024A000F8E700BF02F0CAFA10BD000010B5134BE8
:1024B00019600023124CC4F88C31002216E000236E
:1024C0000E4C241D236000F080031BB10123241D4A
:1024D000236003E00023094C083423600123074CE8
:1024E000241D23604306180E531CDAB2082AE6DBCB
:1024F0000123024C083C236010BD0000948122425D
:10250000008022423224002500263DE0FFF71EF91C
:102510000546032D04D1A41E322C29DA322427E0EB
:10252000022D04D1A41C5A2C22DD5A2420E0012DB6
:102530001ED10EB9012000E00020064632214807D6
:1025400000F05DFC4FF4FA7002F0CCF946B91021AE
:102550000E48FEF78BFF80210C48FEF785FF07E051
:1025600080210A48FEF782FF10210848FEF77CFF11
:10257000322002F0B7F9214605A001F00FFDA1B20B
:102580004FF0804000F03BFCC0E70000000C014031
:10259000636372203D2025640A000000704700003C
:1025A00029B1064A52690243044B5A6104E0034AC6
:1025B00052698243014B5A6170470000001002408B
:1025C00029B1064AD2690243044BDA6104E0034AA6
:1025D000D2698243014BDA6170470000001002406B
:1025E00029B1064A12690243044B1A6104E0034A06
:1025F00012698243014B1A617047000000100240CB
:1026000029B1064A92690243044B9A6104E0034AE5
:1026100092698243014B9A617047000000100240AA
:1026200029B1064AD2680243044BDA6004E0034A47
:10263000D2688243014BDA6070470000001002400C
:1026400030B500210022002400232D4D6D6805F0D7
:102650000C0121B1042905D0082923D105E0294D19
:10266000056022E0274D05601FE0254D6D6805F4EB
:102670007012234D6D6805F48034022505EB9242FB
:102680001CB9214D554305600BE01D4D6D6805F4E7
:1026900000351DB11C4D5543056002E0194D5543F1
:1026A000056002E0174D056000BF00BF144D6D6866
:1026B00005F0F0010909154D6B5C0568DD404560CA
:1026C0000F4D6D6805F4E061090A104D6B5C4568BB
:1026D000DD4085600A4D6D6805F46051C90A0B4DF7
:1026E0006B5C4568DD40C560054D6D6805F4404193
:1026F000890B074D6B5CC568B5FBF3F5056130BD13
:102700000010024000127A0000093D000400002081
:102710001400002010B5002403E0412005490855AD
:10272000641CB4F5806FF8DB4FF48061014800F061
:102730001FFD10BD402C002008B58020ADF8000022
:1027400048208DF8030069460148FEF7B9FD08BD31
:10275000000C014008B58020ADF8000010208DF875
:10276000030003208DF8020069460248FEF7A8FD29
:1027700008BD0000000C014000B589B0012108200F
:10278000FFF73EFF01210220FFF71AFF18208DF806
:1027900023000220ADF8200003208DF8220008A9B4
:1027A0001848FEF78DFD0020ADF81A00ADF81600B0
:1027B00040F2E730ADF818004FF4B460ADF8140003
:1027C00005A9114800F020FB6020ADF804000020AE
:1027D000ADF80C000120ADF806000520ADF80A00A8
:1027E00001A9094800F0C0FA0821074800F0FAFAE8
:1027F0000121054800F031FA1A21034800F001FBDD
:1028000009B000BD000C0140000400401BE01A2488
:1028100007E0A1B20C4800F0F4FA642002F062F87C
:10282000641C682CF5DB682407E0A1B2064800F0C0
:10283000E8FA642002F056F8641E1A2CF5DA4FF418
:102840007A7002F04FF8E2E700040040704710B5DC
:1028500000F002F810BD00000CB5002001900090BF
:102860003348006840F480303149086000BF304888
:10287000006800F4003000900198401C019000981E
:1028800018B90198B0F5A06FF1D12948006800F49B
:10289000003010B10120009001E00020009000986D
:1028A000012843D12348006840F010002149086006
:1028B0000846006820F0030008600846006840F001
:1028C000020008601A484068194948600846406894
:1028D00048600846406840F48060486008464068A8
:1028E00020F47C1048600846406840F4E8104860D6
:1028F0000846006840F08070086000BF0C4800681F
:1029000000F000700028F9D00948406820F003006A
:10291000074948600846406840F00200486000BF30
:102920000348406800F00C000828F9D10CBD0000F5
:102930000010024000200240704700004FF0E020ED
:10294000006920F004004FF0E021086109200549EA
:102950000860084600684FF47A71484302490860ED
:1029600070470000180000201C00002010B513481C
:10297000006840F0010011490860084640681049AD
:1029800008400E494860084600680E4908400B4957
:1029900008600846006820F4802008600846406807
:1029A00020F4FE0048604FF41F008860FFF74FFFDF
:1029B0004FF000600449086010BD000000100240A4
:1029C0000000FFF8FFFFF6FE08ED00E000B589B05B
:1029D00001210820FFF714FE01210846FFF7F0FD52
:1029E00001210846FFF70CFE0820ADF80400032083
:1029F0008DF8060018208DF8070001A92B48FEF776
:102A00005FFC01212A48FEF7E7FC1020ADF8040026
:102A10008DF8070003208DF8060001A92348FEF772
:102A20004FFC8020ADF8040010208DF80700032033
:102A30008DF8060001A91D48FEF742FC6320ADF8A1
:102A40001C002320ADF818000020ADF81E00ADF8E2
:102A50001A0006A94FF0804000F0D6F96020ADF8CA
:102A600008000020ADF810000120ADF80A0002A90E
:102A7000800700F019F90821C80600F067F9012164
:102A8000880700F0DBF80121880700F0E6F8002154
:102A90004FF0804000F0B3F910210448FEF7E6FC47
:102AA00080210248FEF7E0FC09B000BD000C0140A7
:102AB0000001180070B58AB00121144800F0D9F85F
:102AC00008B328216846FDF768FB0024FEF750FA9A
:102AD000FEF7C4F904460E48006801280ED12046CE
:102AE000FDF7A0FC05462A460B460AA1684601F000
:102AF00065FA6A4600210220FFF718FC012103480D
:102B000000F0A8F800BF0AB070BD0000000400404B
:102B10008401002074656D706572747572653A2564
:102B20002E32660010B50121084800F0A2F838B135
:102B30000748006808B9012000E000200449086047
:102B40000121024800F086F810BD00000008004096
:102B5000948121421FB501210220FFF731FD42F28D
:102B60000F70ADF8080043F63F00ADF804000020F8
:102B7000ADF80A00ADF8060001A90E4800F044F9CE
:102B8000012211460B4800F085F80121094800F0A8
:102B900064F81D208DF8000002208DF8010003204C
:102BA0008DF8020001208DF803006846FFF7EEFA69
:102BB0001FBD0000000400401FB501210420FFF7E5
:102BC000FFFC42F20F70ADF8080041F61F40ADF86F
:102BD00004000020ADF80A00ADF8060001A90E4877
:102BE00000F012F901210C4800F034F801221146DE
:102BF000094800F04FF81E208DF8000002208DF8E3
:102C0000010003208DF8020001208DF803006846C2
:102C1000FFF7BCFA1FBD00000008004010B50121FD
:102C2000014800F01AF810BD0008004010B500215E
:102C3000014800F012F810BD0008004021B10288E0
:102C400042F08002028004E002884FF67F731A404F
:102C500002807047CA430282704721B1028842F065
:102C60000102028004E002884FF6FE731A400280DF
:102C7000704730B50246002000230024158A05EA7B
:102C80000103958905EA010413B10CB1012000E0AC
:102C9000002030BD1AB183890B43838102E0838910
:102CA0008B4383817047000070B50024002200230D
:102CB000058C4FF6EF7635400584028C8388048BB3
:102CC00048F6FF752C404FF6FF452C400D884FF617
:102CD000FF7606EA05252C434FF6DF752A400D895D
:102CE00006EA05152A434D8806EA05152A43154DBF
:102CF000A84202D0144DA8421DD14FF67F752A403C
:102D00004D894FF6FF7606EA05152A434FF6BF7543
:102D10002A408D8806EA05152A434FF6FF352B40D9
:102D20004FF2FF752B408D8906EA85052B43CD892F
:102D300006EA85052B4383800483CD8805870284BA
:102D400070BD0000002C0140003401400A46002103
:102D5000018B4FF2FF7319404FF6FF7303EA022312
:102D6000194301837047000070B50022002300243E
:102D7000058C4EF6FF7635400584038C8488828B63
:102D800048F6FF752A404FF6FF452A400D884FF65A
:102D9000FF7606EA05252A434DF6FF752B400D897F
:102DA00006EA05352B434D8806EA05352B430B4DC6
:102DB000A84202D00A4DA84208D14BF6FF752C401C
:102DC0008D894FF6FF7606EA85152C438480828331
:102DD000CD88A0F84050038470BD0000002C014055
:102DE000003401400A460021818B4FF2FF731940E5
:102DF0004FF6FF7303EA022319438183704701876B
:102E00007047A0F840107047002202881D4B98427E
:102E10000ED01D4B98420BD0B0F1804F08D01B4B09
:102E2000984205D01A4B984202D01A4B984204D1CE
:102E30004FF68F731A404B881A43174B984207D0AE
:102E4000164B984204D04FF6FF431A40CB881A43E2
:102E500002808B8883850B8803850A4B98420BD0B0
:102E6000094B984208D00E4B984205D00D4B984222
:102E700002D00D4B984201D10B7A03860123838245
:102E800070470000002C0140003401400004004065
:102E900000080040000C00400010004000140040FA
:102EA00000400140004401400048014000B58DB0A1
:102EB00001210846FFF774FB26480290264803903C
:102EC00010200490000205900020069080200790BA
:102ED0000020089009900A904FF480500B90002039
:102EE0000C9002A91D48FDF798FF012202211B4802
:102EF000FDF78AFF0E208DF8040000208DF80500F4
:102F00008DF8060001208DF8070001A8FFF73EF9B3
:102F10001048029012480390002004904FF4806003
:102F200005900020069080200790002008900990CE
:102F30000A904FF400500B9000200C9002A9074813
:102F40001430FDF76AFF012104481430FDF720FF1B
:102F50000DB000BD0438014090050020440002403F
:102F60009015002010B5002403E0412018490855B1
:102F7000641CB4F5805FF8DB00211648FDF708FFFC
:102F800001228021144800F05CFB4FF4805111486D
:102F9000FDF761FF01210F48FDF7FAFE00200F4900
:102FA000086011E00D48006818B10DA000F0F6FFB0
:102FB0000BE01048006808B9012000E000200D492E
:102FC0000860322001F08EFCECE700BF10BD00006D
:102FD0009005002044000240003801405C010020C0
:102FE000554152543120444D4120545820444F4EB5
:102FF00045210A009481214200B58BB00121084689
:10300000FFF7CEFA1E4800901E4801900020029063
:103010004FF48060039000200490802005900020F1
:103020000690079008904FF40050099000200A90F5
:1030300069461548FDF7F1FE1148009013480190CC
:1030400010200290800103900020049080200590C1
:1030500000200690079008904FF4805009900020BF
:103060000A90694608481430FDF7D7FE012106484A
:10307000FDF78EFE0020064908600BB000BD000081
:1030800004440040402800206C000240402C0020F6
:103090009C81224200B587B001214804FFF790FAD5
:1030A00001212420FFF7ACFA0420ADF8180003201A
:1030B0008DF81A0018208DF81B0006A92948FEF784
:1030C000FFF80820ADF8180004208DF81B0006A9B1
:1030D0002448FEF7F5F88020ADF8180010208DF890
:1030E0001B0003208DF81A0006A91F48FEF7E8F818
:1030F0004FF4165002900020ADF80C00ADF80E0011
:10310000ADF81000ADF814000C20ADF8120002A9C3
:10311000164800F049FB0121144800F086FA01220C
:1031200040F22441114800F01AFB26208DF80400DB
:1031300003208DF805008DF8060001208DF80700AA
:1031400001A8FFF723F801224021084800F079FA8E
:1031500001228021054800F074FAFFF74DFF07B007
:1031600000BD000000080140001401400044004080
:1031700070B505460C4601200F49086000210F4834
:10318000FDF706FEA1B20D48FDF765FE01210B48D3
:10319000FDF7FEFD00BF4FF00070FDF709FE0028AF
:1031A000F9D04FF00070FDF7D7FD022001F09AFB37
:1031B00000200149086070BD9C81224280000240CD
:1031C00000B58DB001210846FFF7EAF924480290C6
:1031D00024480390002004904FF480600590002064
:1031E0000690802007900020089009900A904FF4E4
:1031F00000500B9000200C9002A91B48FDF70DFE1B
:1032000017480290194803901020049080010590FF
:1032100000200690802007900020089009900A90D6
:103220004FF480500B9000200C9002A90E481438E7
:10323000FDF7F3FD012202210B481438FDF7E4FDF0
:103240000B208DF8040000208DF805008DF8060095
:1032500001208DF8070001A8FEF798FF0DB000BD12
:10326000044800409019002030000240901D0020CA
:1032700000B587B02E4800F0EDF901218804FFF772
:103280009FF901210820FFF7BBF94FF48060ADF8EA
:10329000180003208DF81A0018208DF81B0006A9CD
:1032A0002448FEF70DF84FF40060ADF81800042034
:1032B0008DF81B0006A91F48FEF702F84FF4E13015
:1032C00002900020ADF80C00ADF80E00ADF8100033
:1032D000ADF814000C20ADF8120002A9144800F05B
:1032E00063FA0121124800F0A0F9012240F22441C2
:1032F0000F4800F034FA27208DF8040000208DF8E4
:1033000005008DF8060001208DF8070001A8FEF7E2
:103310003DFF01224021064800F093F9012280215F
:10332000034800F08EF9FFF74BFF07B000BD000027
:1033300000480040000C01400FB408B503A80090FD
:103340000B48009A029900F04DFE002000900021E9
:103350000848FDF71DFD4FF480610648FDF77BFD31
:1033600001210448FDF714FD01B05DF814FB0000D5
:10337000901D00201C00024070B504466078217842
:1033800000EB012500210848FDF702FDA01C0649BD
:103390001C398862A9B20448FDF75DFD012102488D
:1033A000FDF7F6FC70BD00001C00024000B587B0C0
:1033B00001210420FFF724F901218803FFF720F9F8
:1033C0004FF40070ADF8180018208DF81B00032092
:1033D0008DF81A0006A92348FDF772FF4FF48060AC
:1033E000ADF8180004208DF81B0006A91D48FDF754
:1033F00067FF4FF4E13002900020ADF80C00ADF80B
:103400000E00ADF81000ADF814000C20ADF812005D
:1034100002A9154800F0C8F90121134800F005F988
:1034200025208DF8040002208DF8050003208DF87A
:10343000060001208DF8070001A8FEF7A7FE012273
:1034400040F22441084800F08AF901224021064850
:1034500000F0F7F801228021034800F0F2F807B0ED
:1034600000BD0000000801400038014010B50446CE
:1034700000BF4021044800F03BF90028F9D0214664
:10348000014800F002FA10BD0038014010B50446B2
:1034900003E02078FFF7EAFF641C20780028F8D1C9
:1034A00010BD000010B540F22551244800F02DF960
:1034B000F0B140F22551214800F0A8F81F4800F073
:1034C000DFF9C4B21E4801680068401C1C4A106045
:1034D0001C4844540A2C0BD1002110460068801E61
:1034E000184A115400201649086001201649087036
:1034F00040F22441114800F008F9E8B10F48008873
:103500000E48001D00881148FDF74EFCC0F5806094
:103510000F49086000210E480068801E0D4A1154B2
:103520000A48FDF735FC4FF480610848FDF793FC2D
:1035300001210648FDF72CFC10BD000000380140B9
:1035400048010020900100204C010020580002405A
:10355000600100209015002010B540F224410F4872
:1035600000F0D3F8C0B10D4800880C48001D008859
:103570000B48FDF719FCC0F580600A49086000217E
:103580000748FDF705FC4FF4806005496C39086772
:1035900001210348FDF7FCFB10BD00000044004082
:1035A0006C0002408801002010B540F2244112480E
:1035B00000F0ABF8F0B1104800880F48001D0088FB
:1035C0000E48FDF7F1FBC0F580600D490860084624
:1035D0000C4902680C48FCF7C7FD00210748FDF7BD
:1035E000D7FB4FF480600549303948630121034817
:1035F000FDF7CEFB10BD0000004800403000024047
:1036000064010020901900209021002010B50022B4
:10361000002340F66A14A14200D100BF0A1201241F
:103620009440A3B2DC43048010BD21B1828942F4EE
:103630000052828104E082894DF6FF731A40828134
:1036400070471AB1838A0B43838202E0838A8B43DB
:103650008382704710B504462048844209D1012175
:103660008803FEF7DDFF00214FF48040FEF7D8FF0E
:1036700032E01B48844209D101214804FEF7B0FF23
:1036800000214FF40030FEF7ABFF25E015488442DF
:1036900009D101218804FEF7A3FF00214FF4802007
:1036A000FEF79EFF18E01048844209D10121C804AA
:1036B000FEF796FF00214FF40020FEF791FF0BE08C
:1036C0000A48844208D101210805FEF789FF00213C
:1036D0004FF48010FEF784FF10BD00000038014059
:1036E0000044004000480040004C004000500040B2
:1036F00002460020B1F5007F00D100BF13880B40C7
:103700000BB1012000E00020704770B50246002494
:1037100000230025002040F66A16B14200D100BF08
:10372000C1F3421501F01F03012606FA03F3012D30
:1037300002D19689334006E0022D02D1168A334029
:1037400001E0968A33400C12012606FA04F416882A
:10375000344013B10CB1012000E0002070BDF0B581
:103760000346002400260025002040F66A17B942CF
:1037700000D100BF1846C1F3421401F01F06012713
:1037800007FA06F5012C01D10C3004E0022C01D11E
:10379000103000E014301AB107682F43076002E0D0
:1037A0000768AF430760F0BD2DE9F04786B00546D6
:1037B0000E460024A24600BFA1460027B08900B1F2
:1037C00000BF2F462C8A4CF6FF700440F08804435B
:1037D0002C82AC894EF6F3100440B088318908433E
:1037E000718908430443AC81AC8A4FF6FF40044022
:1037F000B0890443AC8201A8FEF722FF1F4887422C
:1038000002D1DDF810A001E0DDF80CA0A88900F4D9
:10381000004040B10AEBCA0000EB0A1031684900D1
:10382000B0FBF1F807E00AEBCA0000EB0A103168C0
:103830008900B0FBF1F86420B8FBF0F00401200926
:10384000642101FB1089A88900F4004040B13220B6
:1038500000EBC900B0FBF1F000F00700044308E002
:10386000322000EB09106421B0FBF1F000F00F00F2
:1038700004432C8106B0BDE8F08700000038014009
:1038800001468888C0F308007047C1F308028280AF
:10389000704700BFFEE710B500F004F808B1FFF76D
:1038A000FAFF10BD10B53BA000F078FB322000F00D
:1038B000CBFA20B13DA000F071FB012010BD41A06A
:1038C00000F06CFB43A000F069FB322148A000F03F
:1038D00019FB20B149A000F061FB0220EEE74FA0E8
:1038E00000F05CFB54A000F059FB322159A000F01D
:1038F00009FB20B15BA000F051FB0320DEE762A0D2
:1039000000F04CFB67A000F049FB1E2000F04AFAD3
:1039100020B16BA000F042FB0420CFE770A000F0C4
:103920003DFB4FF47A7000F0DDFF4FF47A7000F049
:10393000D9FF72A000F032FB322176A000F0E2FA4B
:1039400020B178A000F02AFB0520B7E77BA000F0AB
:1039500025FB81A000F022FB322186A000F0D2FAE4
:1039600020B187A000F01AFB0620A7E78DA000F089
:1039700015FB93A000F012FB0A2000F057F920B1CC
:1039800096A000F00BFB072098E79CA000F006FB38
:10399000002093E7E58786E5A487E5A48DE4BD8D47
:1039A000E6A8A1E59D970D0A00000000E5A48DE4BE
:1039B000BD8DE5A4B1E8B4A52CE9878DE8AF952EBF
:1039C0000D0A0000E5A48DE4BD8DE68890E58A9F90
:1039D0002E0D0A00E58786E5A487E8AEBEE7BDAEFA
:1039E000E4B8BA535441E6A8A1E5BC8F0D0A000023
:1039F00041542B43574D4F44453D3100E8AEBEE79F
:103A0000BDAE535441E6A8A1E5BC8FE5A4B1E8B42E
:103A1000A52CE9878DE8AF952E0D0A00E8AEBEE72C
:103A2000BDAE535441E6A8A1E5BC8FE68890E58A77
:103A30009F2E0D0A00000000E58786E5A487E58F2C
:103A400096E6B688E887AAE58AA8E8BF9EE68EA52E
:103A50000D0A000041542B43574155544F434F4EDC
:103A60004E3D3000E58F96E6B688E887AAE58AA83D
:103A7000E8BF9EE68EA5E5A4B1E8B4A52CE9878D44
:103A8000E8AF952E0D0A0000E58F96E6B688E88728
:103A9000AAE58AA8E8BF9EE68EA5E68890E58A9FFB
:103AA0002E0D0A00E58786E5A487E8BF9EE68EA571
:103AB000E8B7AFE794B1E599A85C720A000000008E
:103AC000E8BF9EE68EA5E8B7AFE794B1E599A8E513
:103AD000A4B1E8B4A52CE9878DE8AF950D0A0000E4
:103AE000E8BF9EE68EA5E8B7AFE794B1E599A8E6F2
:103AF0008890E58A9F2E0D0A00000000E58786E584
:103B0000A487E8AEBEE7BDAEE9808FE4BCA00D0A95
:103B10000000000041542B4349504D4F44453D3176
:103B200000000000E8AEBEE7BDAEE9808FE4BCA0B7
:103B3000E5A4B1E8B4A52E0D0A000000E8AEBEE78A
:103B4000BDAEE9808FE4BCA0E6A8A1E5BC8FE68805
:103B500090E58A9F2E0D0A00E58786E5A487E58516
:103B6000B3E997ADE5A49AE8B7AFE8BF9EE68EA5A6
:103B70000D0A000041542B4349504D55583D30002B
:103B8000E585B3E997ADE5A49AE8B7AFE8BF9EE64F
:103B90008EA5E5A4B1E8B4A52CE9878DE8AF950D15
:103BA0000A000000E585B3E997ADE5A49AE8B7AF50
:103BB000E8BF9EE68EA5E68890E58A9F0D0A000084
:103BC000E58786E5A487E8BF9EE68EA5E69C8DE5A1
:103BD0008AA1E599A85C720A00000000E8BF9EE691
:103BE0008EA5E69C8DE58AA1E599A8E5A4B1E8B487
:103BF000A52CE9878DE8AF950D0A0000E8BF9EE689
:103C00008EA5E69C8DE58AA1E599A8E68890E58ACF
:103C10009FEFBC8CE58FAFE4BBA5E4BCA0E8BE93EE
:103C2000E695B0E68DAE0D0A0000000010B5044622
:103C30000020304908604FF480612F48FCF7ADFA4E
:103C40002E482F4902682FA0FFF776FB1AE0642068
:103C500000F048FE32A12848FCF7AAFA00B115E0AE
:103C600031A12548FCF7A4FA08B1012010BD30A10C
:103C70002148FCF79DFA08B10220F7E7214631A060
:103C800000F08CF9201EA4F10104E0D100BF2EA0A9
:103C900000F084F9002C01DC0320E7E72BA000F002
:103CA0007DF90020134908604FF480611248FCF749
:103CB00074FA33A0FFF740FB10E0642000F012FE1E
:103CC0000D4933A000F06AF933A10B48FCF770FAF4
:103CD00000B107E021461BA000F060F9201EA4F10E
:103CE0000104EAD100BF002C01DC0420BEE7002063
:103CF000BCE700006401002090190020740100203E
:103D00009426002041542B43495053544152543D72
:103D100022544350222C222573222C25640D0A00A4
:103D2000434F4E4E45435400434C4F5345440000CF
:103D3000414C524541445920434F4E4E4543544512
:103D400044000000256420000D0A0000E8BF9EE644
:103D50008EA5E69C8DE58AA1E599A8E68890E58A7E
:103D60009F2CE58786E5A487E5BC80E5A78BE4BCAE
:103D7000A0E8BE93E695B0E68DAE5C720A00000046
:103D800041542B43495053454E440D0A0000000056
:103D900025730D0A000000000D0A4F4B0D0A0D0A95
:103DA0003E00000010B504460020144908604FF49E
:103DB00080611348FCF7F1F912A215A117A0FFF7D3
:103DC000BBFA0DE04FF47A7000F08CFD19A10C489D
:103DD000FCF7EEF900B107E0214619A000F0DEF88B
:103DE000201EA4F10104EDD100BF16A000F0D6F80A
:103DF000002C01DC012010BD0020FCE76401002044
:103E0000901900206173642E3132333400000000B9
:103E1000796F7563773132330000000041542B43D2
:103E2000574A41503D222573222C222573220D0A28
:103E3000000000005749464920474F542049500090
:103E4000256420000D0A000010B504460020134927
:103E500008604FF4FA7000F045FD01201049C1F8E8
:103E6000BC010CE0642000F03DFD0EA10F48FCF702
:103E70009FF900B107E021460DA000F08FF8201E49
:103E8000A4F10104EED100BF0AA000F087F8002CD5
:103E900001DC012010BD0020FCE70000BC01214234
:103EA00000002142726561647900000090190020D1
:103EB000256420000D0A000008B501210420FEF74A
:103EC0009FFB01210846FEF79BFB01210A48FDF7F5
:103ED00083FA4FF40040ADF8000010208DF8030085
:103EE00003208DF8020069460448FDF7E9F9012036
:103EF0000349086008BD00000002300000080140CE
:103F0000BC01214270B505460C46002013490860EB
:103F10004FF480611248FCF740F9294611A0FFF7E1
:103F20000BFA0CE0642000F0DDFC10A10C48FCF75B
:103F30003FF900B107E021460DA000F02FF8201E48
:103F4000A4F10104EED100BF0AA000F027F8002C74
:103F500001DC012070BD0020FCE7000064010020AE
:103F60009019002025730D0A000000004F4B00003F
:103F7000256420000D0A000010B503A4214605A009
:103F8000FFF7DAF910BD000068656C6C6F2C776F75
:103F9000726C640025730000704700000FB4054B7D
:103FA00010B503A9044A029800F000F910BC5DF8AE
:103FB00014FB0000B14900088C0100200FB4084B2D
:103FC00010B504A902AA039800F0F0F8044602A96B
:103FD000002000F082FC204610BC5DF814FB0000BD
:103FE000DB48000837B514460846064B6A462146AA
:103FF00000F0DCF804466946002000F06EFC204624
:104000003EBD0000DB48000802E008C8121F08C1DE
:10401000002AFAD170477047002001E001C1121F49
:10402000002AFBD1704700002DE9FF5F82B000211C
:10403000DDE90430020DDDF840B0034318D044F64A
:104040001050A2F2FF3242431514119801281FD0DC
:10405000A5EB0B00401C5FEA000A4FF000064E4F34
:10406000DFF83891B046504615D5CAF1000413E088
:10407000119801244AA3012801D16FEA0B0102988B
:10408000119AC0E90031C0E9024206B0BDE8F09FD4
:10409000CBF10000DFE704460021404A491842EB1B
:1040A0000450CDE9001012E0E00707D032463B464D
:1040B00040464946FCF7A3F88046894632463B46CF
:1040C00010461946FCF79BF806460F466410002C74
:1040D000EAD1DDE90401DDE90023BAF1000F06DAD7
:1040E000FCF78DF842464B46FCF789F805E0FCF7F3
:1040F000F8F842464B46FCF7F4F804460E46002218
:10410000284BFCF763FB03D84FF0FF30014607E074
:104110000022254B20463146FCF799FAFCF73EFB7E
:10412000102409E0002C0ADB0A220023FCF7CAF95C
:10413000039B30321A55641E50EA0102F2D1641C0E
:10414000039AC4F111031444119A012A03D00122E5
:1041500008430DD10AE0084304D000204FF0110BB2
:10416000119072E7A3EB0B056D1E0DE05B4504DDBE
:104170004FF0000205F1010504E003DA4FF0000200
:10418000A5F10105002AECD002981199C0E902318D
:10419000C0E9004579E70000000014400000F03F4E
:1041A000300000000000F0430000E03F2DE9FF4F29
:1041B00095B09B468946064600250FE2252877D113
:1041C00000242746F84A0121059400E0044316F82C
:1041D000013F203B01FA03F01042F7D130782A2842
:1041E00011D06FF02F033078A0F13002092A16D8D1
:1041F000059A44F0020402EB820203EB42021044EF
:10420000761C0590EFE759F8042B0592002A03DA93
:10421000504244F40054059044F00204761C307877
:104220002E2816D116F8010F44F004042A280DD0C8
:104230006FF02F023078A0F13003092B09D807EB7B
:10424000870302EB4303C718761CF3E759F8047B96
:10425000761C30786C280FD006DC4C2817D06828E4
:104260000DD06A2814D104E0742810D07A280FD118
:104270000DE044F400140AE044F4801401E044F436
:1042800040147278824202D104F58014761C761CA8
:10429000307866280BD013DC582877D009DC00284A
:1042A00075D04528F6D04628F4D047281AD19DE18C
:1042B00018E0632835D0642879D0652812D195E1BB
:1042C000702873D008DC6728F1D069286FD06E2879
:1042D0000DD06F2806D1B5E073282CD0752875D085
:1042E000782874D05A46179990476D1C75E1C4F32D
:1042F0000250022809D003280DD0D9F80010042854
:104300000DD00D6009F1040967E1D9F80010EA1732
:10431000C1E90052F6E7D9F800100D80F2E70D7000
:10432000F0E719F8041B8DF8001000208DF801004B
:10433000EA46012003E059F804AB4FF0FF30610773
:104340004FF0000102D40DE008F101018846B942A6
:104350000FDA8045F8DB1AF808100029F4D108E0DC
:1043600008F1010188468142FADB1AF80810002999
:10437000F6D105985B46A0EB080721463846179A08
:1043800000F094FA284400EB080507E04DE029E12D
:104390000DE01AF8010B5A4617999047B8F1010839
:1043A000F7D25B4621463846179A13E142E00A22CB
:1043B0000092C4F302524FF0000A022A08D059F8C2
:1043C00004CB032A4FEAEC710AD00DE029E02AE081
:1043D00009F1070121F00702F2E802C1914609E064
:1043E0000FFA8CFC4FEAEC71042A03D14FFA8CFCD3
:1043F0004FEAEC71002907DA0A460021DCF1000CD3
:1044000061EB02012D2202E0220504D52B228DF85A
:104410000420012203E0E20701D02022F7E79046C2
:1044200059E00A2102E010220DE010214FF0000AAD
:1044300000910BE010224FF0000A44F0040408271A
:10444000009203E008224FF0000A0092C4F30252E7
:10445000022A05D059F804CB0021032A08D009E02C
:1044600009F1070121F00702F2E802C1914605E0D7
:104470001FFA8CFC042A01D10CF0FF0C4FF000084D
:10448000220728D5702806D0009B83F0100353EA3A
:104490000A0305D00EE040228DF80420012208E036
:1044A0005CEA010206D030228DF804208DF8050068
:1044B00002229046009B83F0080353EA0A030AD1C4
:1044C0005CEA010201D1620705D530228DF8042093
:1044D0004FF001087F1E582804D034A003900EA886
:1044E00002900DE036A0F9E753466046009AFBF7CC
:1044F000E9FF84460398825C0298401E0290027095
:104500005CEA0100F0D1029806A9081A00F1200A1D
:10451000600702D524F4803400E00127574502DD0E
:10452000A7EB0A0000E0002000EB0A0100900598CC
:104530004144401A0590E00306D45B462146179A91
:10454000059800F0B3F90544002706E001A85A4693
:10455000C05D179990476D1C7F1C4745F6DBE00353
:104560000CD55B462146179A059800F09FF9054443
:1045700004E030205A46179990476D1C0099481E58
:1045800000900029F5DC08E0029802995A4600786C
:10459000491C0291179990476D1CBAF10001AAF1CC
:1045A000010AF1DC65E100000928010030313233F5
:1045B000343536373839616263646566000000005F
:1045C0003031323334353637383941424344454649
:1045D0000000000000F058F90544761C30780028EF
:1045E0007FF4ECAD19B02846BDE8F08F620700D427
:1045F000062709F1070222F0070CFCE80223E14636
:1046000003F000485FEA080C02D00FF2702C0DE0B6
:104610005FEA045C02D50FF2682C07E05FEAC47C15
:1046200002D00FF2602C01E0AFF2700C4FF0FF38B7
:1046300023F00043CDF850C065280CD006DC452897
:1046400009D046281DD047283DD13DE0662818D026
:1046500067287ED138E00021112F01DB112000E016
:10466000781CCDE9000106A90EA8FFF7DDFCDDE905
:104670000F010E9A03910021009207F1010A0491A3
:104680004DE04FF000400097CDE9011006A90EA8BB
:10469000FFF7CAFCDDE90F0203920E9B119900227D
:1046A000DDF80CA00093049211B9791C00EB010A0B
:1046B000B7EB0A0004D4C0F1FF3007F1010A0490FF
:1046C000AAEB0700019044E0012F00DA0127002146
:1046D000112F01DD112000E03846CDE9000106A9C7
:1046E0000EA8FFF7A1FCDDE90F010E9A039100214E
:1046F00004910092BA4621070CD40399514500DA7F
:104700008A46BAF1010F05DD009AAAF10101515C58
:10471000302908D0B84202DA10F1040F06DA01217C
:10472000CDE9011015E0AAF10101E9E7002805DC57
:10473000049901440491AAEB000102E0411C514597
:1047400000DD8A460499401A401C01904FF0004059
:104750000290200704D40198504501DBCDF8048075
:1047600000208DF84F0002980DF14F07B0F1004F77
:1047700025D02B200E9002984FF0020800280CDA6A
:10478000404202902D200E9007E00A210298FBF78C
:1047900083FE3031029007F8011DB8F10001A8F145
:1047A0000108F2DC02980028EFD1791E0E980870FB
:1047B000307800F0200040F0450007F8020D12A804
:1047C000C01B00F107081498007800B1012000EB2D
:1047D0000A01019801EBE07105984144401A401E1E
:1047E0000590E00306D45B462146179A059800F031
:1047F0005DF805441498007818B15A461799904707
:104800006D1CE00324D55B462146179A059800F0FD
:104810004DF805441CE00498002807DBDDE903019E
:10482000884203DD0098405C179901E01799302019
:104830005A469047049805F10105401C04900198E0
:10484000401E019004D12E205A46179990476D1CA6
:10485000BAF10001AAF1010ADDDC05E017F8010B4D
:104860005A46179990476D1CB8F10001A8F101084C
:10487000F4DC5B462146179A0598ABE62D00000054
:104880002B000000200000002DE9F0410446002527
:104890001E461746880404D405E039462020B04758
:1048A0006D1C641EF9D52846BDE8F0812DE9F04164
:1048B000044600251E469046C80301D5302700E077
:1048C0002027880404D505E041463846B0476D1CD2
:1048D000641EF9D52846BDE8F0810A68531C0B60B8
:1048E000107070470146114A12684A434FF0E023A6
:1048F0005A6100229A611A46126942F001021A6155
:1049000000BF4FF0E022106900F001021AB100F47C
:104910008032002AF5D04FF0E022126922F0010225
:104920004FF0E0231A6100229A6170471C000020BA
:104930000146114A12684A434FF0E0235A610022AF
:104940009A611A46126942F001021A6100BF4FF0E3
:10495000E022106900F001021AB100F48032002A4E
:10496000F5D04FF0E022126922F001024FF0E0236F
:104970001A6100229A6170471800002070B5054640
:1049800000240BE0084850F834102846FBF729FCB7
:1049900018B9054800EBC40070BD641C03480068EA
:1049A0008442EFDB0020F7E76C0000204401002088
:1049B00070B504460D4600BF40210548FEF798FE3D
:1049C0000028F9D0E1B20248FEF75FFF204670BD33
:1049D00000380140FCF78EF94FF4A060FDF70EFCA3
:1049E0001AE00E480068B8B10D48FEF74FFD0C48BC
:1049F000FFF7C4FF0B4908600846006818B1096852
:104A00004868804702E008A0FEF740FD0020034907
:104A1000086009A0FFF7C2FAE3E700006001002088
:104A20009015002000000020696E76616C6964209A
:104A3000636F6D6D616E64210A00000010B500F0B7
:104A400085F80446012C04D0022C04D0032C06D196
:104A500003E000F037F800F049F800F003F800BF79
:104A600010BD00000020FDF7D3FB0FA20021084677
:104A7000FDF75CFC0FA200210220FDF757FC00BFF0
:104A8000FCF764FE0446032C02D1FFF7D7FF0AE0CF
:104A9000022C03D101200A49086004E0012C02D154
:104AA000002007490860EBE7312E42454550204F72
:104AB0004E000000322E42454550204F4646000031
:104AC000A08121420020FDF7A3FB012006490860D8
:104AD00000BFFCF73BFE0446032C04D10020024932
:104AE0000860FFF7ABFFF4E7840100200020FDF72A
:104AF0008FFB0FA200210846FDF718FC0FA2002132
:104B00000220FDF713FC00BFFCF720FE0446032C37
:104B100002D1FFF793FF0AE0022C03D100200A49DB
:104B2000086004E0012C02D1012007490860EBE78E
:104B3000312E4C4544204F4E00000000322E4C4593
:104B400044204F46460000009481214210B50020C9
:104B5000FDF75EFB0FA200210846FDF7E7FB10A260
:104B600000210220FDF7E2FB10A200210420FDF746
:104B7000DDFB00BFFCF7EAFD0446032C01D1012058
:104B800010BD022C01D10220FAE7012CF2D1032042
:104B9000F6E70000312E474554202054454D500083
:104BA000322E4354524C204C45440000332E435483
:104BB000524C204245455000014601F00F010A29A0
:104BC00002DA01F1300001E001F1570040B2704714
:104BD0002DE9F043BDB00646884615461F46DDF870
:104BE00010910EB105B117B93DB0BDE8F083B9F130
:104BF000400F00DDF8E7402116A8FBF7CEFA402170
:104C000006A8FBF7CAFA4A46394616A8FBF7ACFADB
:104C10004A46394606A8FBF7A7FA00240CE016A876
:104C2000005D80F0360016A9085506A8005D80F0EA
:104C30005C0006A90855641C402CF0DB26A800F097
:104C4000AFF826A801F042FD402216A926A801F0DF
:104C500053FD4246314626A801F04EFD01A926A883
:104C600000F02AF826A800F09BF826A801F02EFDF7
:104C7000402206A926A801F03FFD142201A926A87A
:104C800001F03AFD01A926A800F016F800240FE073
:104C900001A9095D0811FFF78FFF05F8140001A9AC
:104CA000085DFFF789FF012101EB44016854641C92
:104CB000142CEDDB00BF97E72DE9FC4704460D46B9
:104CC0002068400F616840EAC1062068C700300EC6
:104CD0008DF80000300C8DF80100300A8DF80200CC
:104CE000F0B28DF80300380E8DF80400380C8DF802
:104CF0000500380A8DF80600F8B28DF80700207814
:104D000000F03F08B8F1380F02D2C8F1380001E0D6
:104D1000C8F1780081464A462049204601F0ECFC63
:104D200008226946204601F0E7FCA068000E2870C2
:104D3000A068000C68702089000AA870207AE870CA
:104D4000E068000E2871E068000C6871A089000A14
:104D5000A871207BE8712069000E28722069000C80
:104D60006872208A000AA872207CE8726069000ECE
:104D700028736069000C6873A08A000AA873207DFC
:104D8000E873A069000E2874A069000C6874208B79
:104D9000000AA874207EE874BDE8FC8774670008E8
:104DA00010B504465C212046FBF7F7F910BD000062
:104DB0002DE9F04390B007460E4696F800C04FEA42
:104DC0000C6C96F801804CEA084C96F802804CEA8C
:104DD000082C96F803804CEA080CCDF800C096F831
:104DE00004C04FEA0C6C96F805804CEA084C96F823
:104DF00006804CEA082C96F807804CEA080CCDF89F
:104E000004C096F808C04FEA0C6C96F809804CEA8A
:104E1000084C96F80A804CEA082C96F80B804CEA6D
:104E2000080CCDF808C096F80CC04FEA0C6C96F848
:104E30000D804CEA084C96F80E804CEA082C96F847
:104E40000F804CEA080CCDF80CC096F810C04FEA61
:104E50000C6C96F811804CEA084C96F812804CEADB
:104E6000082C96F813804CEA080CCDF810C096F880
:104E700014C04FEA0C6C96F815804CEA084C96F872
:104E800016804CEA082C96F817804CEA080CCDF8EE
:104E900014C096F818C04FEA0C6C96F819804CEACA
:104EA000084C96F81A804CEA082C96F81B804CEABD
:104EB000080CCDF818C096F81CC04FEA0C6C96F898
:104EC0001D804CEA084C96F81E804CEA082C96F897
:104ED0001F804CEA080CCDF81CC096F820C04FEAA1
:104EE0000C6C96F821804CEA084C96F822804CEA2B
:104EF000082C96F823804CEA080CCDF820C096F8D0
:104F000024C04FEA0C6C96F825804CEA084C96F8C1
:104F100026804CEA082C96F827804CEA080CCDF83D
:104F200024C096F828C04FEA0C6C96F829804CEA09
:104F3000084C96F82A804CEA082C96F82B804CEA0C
:104F4000080CCDF828C096F82CC04FEA0C6C96F8E7
:104F50002D804CEA084C96F82E804CEA082C96F8E6
:104F60002F804CEA080CCDF82CC096F830C04FEAE0
:104F70000C6C96F831804CEA084C96F832804CEA7A
:104F8000082C96F833804CEA080CCDF830C096F81F
:104F900034C04FEA0C6C96F835804CEA084C96F811
:104FA00036804CEA082C96F837804CEA080CCDF88D
:104FB00034C096F838C04FEA0C6C96F839804CEA49
:104FC000084C96F83A804CEA082C96F83B804CEA5C
:104FD000080CCDF838C096F83CC04FEA0C6C96F837
:104FE0003D804CEA084C96F83E804CEA082C96F836
:104FF0003F804CEA080CCDF83CC0B868F9683A69C3
:105000007B69BC694FEA401C4CEAD06882EA030C19
:105010000CEA010C8CEA030CC444DFF8F88FC4449A
:10502000DDF80080C44464444FEA817C4CEA91017D
:105030004FEA441C4CEAD46881EA020C0CEA000CEA
:105040008CEA020CC444DFF8CC8FC444DDF8048041
:10505000C44463444FEA807C4CEA90004FEA431C0E
:105060004CEAD36880EA010C0CEA040C8CEA010CCF
:10507000C444DFF8A08FC444DDF80880C44462440F
:105080004FEA847C4CEA94044FEA421C4CEAD26812
:1050900084EA000C0CEA030C8CEA000CC444DFF830
:1050A000748FC444DDF80C80C44461444FEA837CAF
:1050B0004CEA93034FEA411C4CEAD16883EA040CA2
:1050C0000CEA020C8CEA040CC444DFF8488FC44498
:1050D000DDF81080C44460444FEA827C4CEA9202BE
:1050E0004FEA401C4CEAD06882EA030C0CEA010C3F
:1050F0008CEA030CC444DFF81C8FC444DDF8148030
:10510000C44464444FEA817C4CEA91014FEA441C58
:105110004CEAD46881EA020C0CEA000C8CEA020C1E
:10512000C444DFF8F08EC444DDF81880C4446344FE
:105130004FEA807C4CEA90004FEA431C4CEAD3686B
:1051400080EA010C0CEA040C8CEA010CC444DFF880
:10515000C48EC444DDF81C80C44462444FEA847C9D
:105160004CEA94044FEA421C4CEAD26884EA000CF0
:105170000CEA030C8CEA000CC444DFF8988EC4449B
:10518000DDF82080C44461444FEA837C4CEA9303F9
:105190004FEA411C4CEAD16883EA040C0CEA020C89
:1051A0008CEA040CC444DFF86C8EC444DDF824801F
:1051B000C44460444FEA827C4CEA92024FEA401CAD
:1051C0004CEAD06882EA030C0CEA010C8CEA030C6E
:1051D000C444DFF8408EC444DDF82880C4446444ED
:1051E0004FEA817C4CEA91014FEA441C4CEAD468B6
:1051F00081EA020C0CEA000C8CEA020CC444DFF8D1
:10520000148EC444DDF82C80C44463444FEA807C8F
:105210004CEA90004FEA431C4CEAD36880EA010C48
:105220000CEA040C8CEA010CC444DFF8E88DC44499
:10523000DDF83080C44462444FEA847C4CEA940434
:105240004FEA421C4CEAD26884EA000C0CEA030CD8
:105250008CEA000CC444DFF8BC8DC444DDF8348013
:10526000C44461444FEA837C4CEA93034FEA411CF7
:105270004CEAD16883EA040C0CEA020C8CEA040CB8
:10528000C444DFF8908DC444DDF83880C4446044E1
:105290004FEA827C4CEA92024FEA401C4CEAD0680A
:1052A00082EA030C0CEA010C8CEA030CC444DFF81C
:1052B000648DC444DDF83C80C44464444FEA817C7E
:1052C0004CEA9101DDF834C0DDF820808CEA080C4E
:1052D000DDF808808CEA080CDDF800808CEA08050F
:1052E0004FEA450C4CEAD5784FEA441C4CEAD469A5
:1052F00081EA020C0CEA000C8CEA020CCC44DFF8C8
:10530000149DCC44C4446344CDF800804FEA807CB3
:105310004CEA9000DDF838C0DDF824808CEA080CF7
:10532000DDF80C808CEA080CDDF804808CEA0805B6
:105330004FEA450C4CEAD5784FEA431C4CEAD36956
:1053400080EA010C0CEA040C8CEA010CCC44DFF876
:10535000C49CCC44C4446244CDF804804FEA847CAD
:105360004CEA9404DDF83CC0DDF828808CEA080C97
:10537000DDF810808CEA080CDDF808808CEA08055E
:105380004FEA450C4CEAD5784FEA421C4CEAD26908
:1053900084EA000C0CEA030C8CEA000CCC44DFF825
:1053A000749CCC44C4446144CDF808804FEA837CAB
:1053B0004CEA9303DDF800C0DDF82C808CEA080C81
:1053C000DDF814808CEA080CDDF80C808CEA080506
:1053D0004FEA450C4CEAD5784FEA411C4CEAD169BA
:1053E00083EA040C0CEA020C8CEA040CCC44DFF8CF
:1053F000249CCC44C4446044CDF80C804FEA827CA9
:105400004CEA9202DDF804C0DDF830808CEA080C2A
:10541000DDF818808CEA080CDDF810808CEA0805AD
:105420004FEA450C4CEAD5784FEA401C4CEAD0696B
:1054300081EA020C8CEA030CCC44DFF8DC9BCC4400
:10544000C4446444CDF810804FEA817C4CEA910159
:10545000DDF808C0DDF834808CEA080CDDF81C802B
:105460008CEA080CDDF814808CEA08054FEA450C3C
:105470004CEAD5784FEA441C4CEAD46980EA010C26
:105480008CEA020CCC44DFF8909BCC44C4446344C7
:10549000CDF814804FEA807C4CEA9000DDF80CC017
:1054A000DDF838808CEA080CDDF820808CEA080CE6
:1054B000DDF818808CEA08054FEA450C4CEAD578EF
:1054C0004FEA431C4CEAD36984EA000C8CEA010CD5
:1054D000CC44DFF8449BCC44C4446244CDF81880EB
:1054E0004FEA847C4CEA9404DDF810C0DDF83C807F
:1054F0008CEA080CDDF824808CEA080CDDF81C80AE
:105500008CEA08054FEA450C4CEAD5784FEA421C74
:105510004CEAD26983EA040C8CEA000CCC44DFF834
:10552000F89ACC44C4446144CDF81C804FEA837C93
:105530004CEA9303DDF814C0DDF800808CEA080C17
:10554000DDF828808CEA080CDDF820808CEA08055C
:105550004FEA450C4CEAD5784FEA411C4CEAD16938
:1055600082EA030C8CEA040CCC44DFF8AC9ACC44FD
:10557000C4446044CDF820804FEA827C4CEA920219
:10558000DDF818C0DDF804808CEA080CDDF82C800A
:105590008CEA080CDDF824808CEA08054FEA450CFB
:1055A0004CEAD5784FEA401C4CEAD06981EA020CFB
:1055B0008CEA030CCC44DFF8609ACC44C4446444C5
:1055C000CDF824804FEA817C4CEA9101DDF81CC0C3
:1055D000DDF808808CEA080CDDF830808CEA080CD5
:1055E000DDF828808CEA08054FEA450C4CEAD578AE
:1055F0004FEA441C4CEAD46980EA010C8CEA020CA4
:10560000CC44DFF8149ACC44C4446344CDF82880D9
:105610004FEA807C4CEA9000DDF820C0DDF80C8079
:105620008CEA080CDDF834808CEA080CDDF82C805C
:105630008CEA08054FEA450C4CEAD5784FEA431C42
:105640004CEAD36984EA000C8CEA010CCC44DFF804
:10565000C899CC44C4446244CDF82C804FEA847C81
:105660004CEA9404DDF824C0DDF810808CEA080CC4
:10567000DDF838808CEA080CDDF830808CEA08050B
:105680004FEA450C4CEAD5784FEA421C4CEAD26905
:1056900083EA040C8CEA000CCC44DFF87C99CC44FF
:1056A000C4446144CDF830804FEA837C4CEA9303D4
:1056B000DDF828C0DDF814808CEA080CDDF83C80A9
:1056C0008CEA080CDDF834808CEA08054FEA450CBA
:1056D0004CEAD5784FEA411C4CEAD16982EA030CC6
:1056E0008CEA040CCC44DFF83099CC44C4446044C8
:1056F000CDF834804FEA827C4CEA9202DDF82CC06F
:10570000DDF818808CEA080CDDF800808CEA080CC3
:10571000DDF838808CEA08054FEA450C4CEAD5786C
:105720004FEA401C4CEAD06981EA020C8CEA030C77
:10573000CC44DFF8E498CC44C4446444CDF83880C9
:105740004FEA817C4CEA9101DDF830C0DDF81C8025
:105750008CEA080CDDF804808CEA080CDDF83C804B
:105760008CEA08054FEA450C4CEAD5784FEA441C10
:105770004CEAD46980EA010C8CEA020CCC44DFF8D4
:105780009898CC44C4446344CDF83C804FEA807C74
:105790004CEA9000DDF834C0DDF820808CEA080C7B
:1057A000DDF808808CEA080CDDF800808CEA08053A
:1057B0004FEA450C4CEAD5784FEA431C4CEAD369D2
:1057C00084EA000C8CEA010CCC44DFF84C98CC4401
:1057D000C4446244CDF800804FEA847C4CEA9404CF
:1057E000DDF838C0DDF824808CEA080CDDF80C8088
:1057F0008CEA080CDDF804808CEA08054FEA450CB9
:105800004CEAD5784FEA421C4CEAD26983EA040C90
:105810008CEA000CCC44DFF80098CC44C4446144CA
:10582000CDF804804FEA837C4CEA9303DDF83CC05A
:10583000DDF828808CEA080CDDF810808CEA080C72
:10584000DDF808808CEA08054FEA450C4CEAD5786B
:105850004FEA411C4CEAD16982EA030C8CEA040C41
:10586000CC44DFF8B497CC44C4446044CDF80880FD
:105870004FEA827C4CEA9202DDF800C0DDF82C8011
:105880008CEA080CDDF814808CEA080CDDF80C803A
:105890008CEA08054FEA450C4CEAD5784FEA401CE3
:1058A0004CEAD06981EA020C8CEA030CCC44DFF8A4
:1058B0006897CC44C4446444CDF80C804FEA817CA2
:1058C0004CEA9101DDF804C0DDF830808CEA080C68
:1058D000DDF818808CEA080CDDF810808CEA0805E9
:1058E0004FEA450C4CEAD5784FEA441C4CEAD4699F
:1058F00080EA010C8CEA020CCC44DFF81C97CC4403
:10590000C4446344CDF810804FEA807C4CEA900098
:10591000DDF808C0DDF834808CEA080CDDF81C8066
:105920008CEA080CDDF814808CEA08054FEA450C77
:105930004CEAD5784FEA431C4CEAD36984EA000C60
:105940008CEA010CCC44DFF8D096CC44C4446244C9
:10595000CDF814804FEA847C4CEA9404DDF80CC046
:10596000DDF838808CEA080CDDF820808CEA080C21
:10597000DDF818808CEA08054FEA450C4CEAD5782A
:105980004FEA421C4CEAD26983EA040C8CEA000C10
:10599000CC44DFF88496CC44C4446144CDF81880EC
:1059A0004FEA837C4CEA9303DDF810C0DDF83C80BD
:1059B0008CEA080CDDF824808CEA080CDDF81C80E9
:1059C0008CEA08054FEA450C4CEAD5784FEA411CB1
:1059D0004CEAD16982EA030C8CEA040CCC44DFF86F
:1059E0003896CC44C4446044CDF81C804FEA827C95
:1059F0004CEA92024FEA401C4CEAD06901EA020CE0
:105A000041EA020808EA03084CEA080CCC44DFF833
:105A10000C86E044DDF814C0DDF800908CEA090C37
:105A2000DDF828908CEA090CDDF820908CEA090555
:105A30004FEA450C4CEAD57CCDF820C0C444644400
:105A40004FEA817C4CEA91014FEA441C4CEAD4694C
:105A500000EA010C40EA010808EA02084CEA080CD6
:105A6000CC44DFF8B885E044DDF818C0DDF80490D8
:105A70008CEA090CDDF82C908CEA090CDDF82490F6
:105A80008CEA09054FEA450C4CEAD57CCDF824C0D8
:105A9000C44463444FEA807C4CEA90004FEA431CC4
:105AA0004CEAD36904EA000C44EA000808EA010859
:105AB0004CEA080CCC44DFF86485E044DDF81CC0F7
:105AC000DDF808908CEA090CDDF830908CEA090CBE
:105AD000DDF828908CEA09054FEA450C4CEAD57CA4
